:100000000C9439000C9456000C9456000C94560035
:100010000C9456000C9456000C9456000C94560008
:100020000C9456000C9456000C9456000C945600F8
:100030000C9456000C9456000C9456000C945600E8
:100040000C9456000C9456000C9456000C945600D8
:100050000C9456000C9456000C9456000C945600C8
:100060000C9456000C9456003F065B4F666D7D075E
:100070007F6F11241FBECFEFD8E0DEBFCDBF11E0F0
:10008000A0E0B1E0EAE5FCE002C005900D92A833E3
:10009000B107D9F711E0A8E3B1E001C01D92AA347D
:1000A000B107E1F70E9458000C942B060C94000055
:1000B0009F92AF92BF92CF92DF92EF92FF920F93F7
:1000C0001F93DF93CF9300D000D000D0CDB7DEB721
:1000D0000E946B030E94DF000E94710400D080E048
:1000E00091E0ADB7BEB712969C938E9311970E9484
:1000F000C401FE01319683E0DF011D928A95E9F784
:10010000198288E08A838FE08B830F900F90CF0154
:100110000E94F00300D08BE091E0EDB7FEB7928330
:1001200081830E94C4010F900F900F2EF3E09F2E49
:10013000F02DEE24FF246894E2F8EC0EFD1E0F2E45
:10014000F2E1AF2EF1E0BF2EF02D0F2EF0E1CF2E19
:10015000F7E2DF2EF02D00E911E0D701E92D1D9225
:10016000EA95E9F70E94E300C7010E94CE048DB72B
:100170009EB708970FB6F8949EBF0FBE8DBFEDB720
:10018000FEB73196B182A0828E81828313828D81E7
:10019000848315828C81868317820E94C401960114
:1001A000ADB7BEB718960FB6F894BEBF0FBEADBFC1
:1001B000C8010197F1F721503040D1F7CECF8FEF32
:1001C0008093B8000895ECEBF0E080818B7F808312
:1001D0000895ECEBF0E080818823ECF70895ECEBD8
:1001E000F0E080818B7F808384EA80830E94E90035
:1001F000089584E98093BC0008958093BB0084E84F
:100200008093BC000E94E900089584EC8093BC00B8
:100210000E94E9008091BB00089584E88093BC00AF
:100220000E94E9008091BB000895E0913801F091AF
:1002300039018193F0933901E09338010895982FA3
:100240008A3014F480E307C080914801882311F4B8
:1002500087E501C087E3890F0E94150181E0809343
:1002600049010895AC01809146019091470184179E
:10027000950710F4E0E017C066277727641B750B1D
:100280009C01241B350BE0E0EF5FF22FA32F260F1C
:10029000371FC901840F951F84179507A8F7F0939E
:1002A0004601A093470180914901882311F4EE2370
:1002B00019F08E2F0E941F010895EF92FF920F9365
:1002C0001F930F2EF0E3EF2EF02D0F2EF0E3FF2EF5
:1002D000F02D00E30E948403182F0E9478031D3044
:1002E00021F0EF2CF02E012FF5CF802F805D24E63A
:1002F0009E2D920290011124820F2AE09F2D9202DE
:1003000090011124820F1F910F91FF90EF9008959B
:10031000EF92FF920F931F93CF93DF937C0170E0D6
:10032000EB0121971C161D0614F000E012C000E03E
:100330000E948403182F0E9478031D3051F0F701AA
:10034000E00FF11D10830F5F802F90E08C179D0749
:100350007CF3F701E00FF11D1082DF91CF911F9127
:100360000F91FF90EF900895CF93DF93FC01808170
:10037000882339F0EF010E94810389812196882327
:10038000D1F7DF91CF9108952F923F924F925F92D4
:100390006F927F928F929F92AF92BF92CF92DF9295
:1003A000EF92FF920F931F93DF93CF93CDB7DEB7FA
:1003B0000F2EF5E1EF2EFF24F02DEC0EFD1EF701C0
:1003C000C190D1907F010F2EFAE36F2EF1E07F2EC6
:1003D000F02D0F2EF0E34F2EF02D842C5524689431
:1003E00055F80F2EF6E42F2EF1E03F2EF02D5BC1D5
:1003F0000894C11CD11C853221F00E948103570151
:1004000051C1F60111916F01103311F0992404C00C
:1004100011916F0199249394912F812F80538A30E9
:1004200010F000E012C000E0892F8053902F990F48
:10043000990F900F990F082F090FF60111916F0175
:10044000912F812F80538A3078F370923901609216
:10045000380110924901133609F4C2C014369CF4D5
:10046000183509F451C019355CF4123409F478C018
:100470001334ACF4112309F41BC1153281F4C6C046
:10048000123669F46DC0133709F4B6C014371CF482
:10049000143629F407C0153729F01837A9F1570188
:1004A000D301B9C0F70120813181209346013093F7
:1004B0004701143669F433235CF488279927821B9B
:1004C000930B90934701809346018DE20E941501A2
:1004D000AA24BB246894A1F8AE0CBF1C80E197E26B
:1004E0000E94320188EE93E00E94320184E690E09F
:1004F0000E9432018AE090E00E943201F101808185
:100500000E941F01D30187C0842D0E94150188E736
:100510000E94150110924801183519F4F1E0F0938A
:100520004801AA24BB246894A1F8AE0CBF1CF701B3
:1005300080819181909347018093460180E090E112
:100540000E94320180E091E00E94320180E190E05F
:100550000E943201F10180810E941F01D3015BC022
:10056000842D0E94150182E60E9415011092480117
:10057000123419F4F1E0F0934801AA24BB246894E2
:10058000A1F8AE0CBF1CF70180819181907090930F
:10059000470180934601F1E0F093490180E890E043
:1005A0000E94320180E490E00E94320180E290E0FB
:1005B0000E94320180E190E00E94320188E090E0E8
:1005C0000E94320184E090E00E94320182E090E0DB
:1005D0000E943201F10180810E941F01D3011BC0E2
:1005E000AA24BB246894A1F8AE0CBF1CF70180813B
:1005F0000E941501D3010FC0AA24BB246894A1F85E
:10060000AE0CBF1CF701A081B18105C085E20E943C
:1006100015015701D301E0913801F09139011082A1
:10062000B0933901A0933801FD0181917F01F093CE
:100630003901E0933801882389F010163CF5015008
:10064000E0913801F09139018191F0933901E09303
:100650003801882319F0101694F318C01016B4F45A
:100660008C918D3211F07D0103C08DE20E948103D7
:10067000102F1150992011F4852D01C0882D0E9452
:100680008103111614F41150F5CFD7018C918823F2
:1006900049F08D010E948103F80181810F5F1F4F96
:1006A0008823C1F77501F6018081882309F0A0CE67
:1006B000CF91DF911F910F91FF90EF90DF90CF903E
:1006C000BF90AF909F908F907F906F905F904F9072
:1006D0003F902F90089587E690E09093C500809317
:1006E000C40088E18093C10086E08093C200089531
:1006F000982FE0ECF0E0808185FFFDCF9093C6005D
:1007000008950E9478030895E0ECF0E0808188234A
:10071000ECF78091C6000895282F30E020773070E4
:10072000A901440F551F220F331F220F331F220F21
:10073000331F420F531F559547955595479555952E
:100740004795559547958F70840F0895E82FF0E0F1
:1007500040E050E08E2F6AE00E941206292F8E2F73
:100760006AE00E941206E82F332727FD3095042EF9
:1007700002C0220F331F0A94E2F7F22B4C5F5F4F47
:100780004031510539F78F2F08951F93CF93DF9391
:10079000182FEB010E94EF0080ED0E94FD00113048
:1007A00021F08BE00E94FD0008C087E00E94FD0060
:1007B00088810E94A6030E94FD0089810E94A603F1
:1007C0000E94FD008A810E94A6030E94FD0080E82D
:1007D0000E94FD000E94F900DF91CF911F910895C2
:1007E0000F931F938C010E94EF0080ED0E94FD008B
:1007F00080E00E94FD00F80180810E94A6030E9413
:10080000FD00F80181810E94A6030E94FD00F8010D
:1008100082810E94A6030E94FD000E94F9001F91A0
:100820000F9108951F930E94EF0080ED0E94FD003C
:100830008EE00E94FD000E94F9000E94EF0081ED11
:100840000E94FD000E940501182F0E94F900812FCF
:100850001F9108951F930E941204182F0E94EF0009
:1008600080ED0E94FD008EE00E94FD00812F867FBA
:100870000E94FD000E94F9001F9108951F930E949D
:10088000EF0080ED0E94FD008FE00E94FD000E94BD
:10089000F9000E94EF0081ED0E94FD000E94050119
:1008A000182F0E94F900812F1F9108951F93813006
:1008B00029F40E943E04182F1E7F04C00E943E04AB
:1008C000182F1D7F0E94EF0080ED0E94FD008FE039
:1008D0000E94FD00812F0E94FD000E94F9001F91DF
:1008E00008950F931F930E941204182F0E943E0434
:1008F000082F0E94EF0080ED0E94FD008EE00E9414
:10090000FD00812F87600E94FD000E94F9000E9477
:10091000EF0080ED0E94FD008FE00E94FD00802F1F
:1009200087770E94FD000E94F9001F910F910895A2
:100930001F93CF93DF93182FEB010E94EF0080ED00
:100940000E94FD00113059F08BE00E94FD000E94D2
:10095000F9000E94EF0081ED0E94FD000FC087E0CA
:100960000E94FD000E94F9000E94EF0081ED0E94AC
:10097000FD000E9405010E948C0388830E940501EE
:100980000E948C0389830E9405010E948C038A8344
:100990000E94F900DF91CF911F9108950F931F934B
:1009A0008C010E94EF0080ED0E94FD0080E00E941B
:1009B000FD000E94F9000E94EF0081ED0E94FD0001
:1009C0000E9405010E948C03F80180830E940501AA
:1009D0000E948C03F80181830E9405010E948C0310
:1009E000F80182830E94F9001F910F9108958AE116
:1009F0008A95F1F70895E7E2F0E0808183608083D3
:100A00000895E7E2F0E080818C7F808308950F9362
:100A10001F930E94FB0408E210E0F80180818160CE
:100A200080838081826080830E94F704F801808146
:100A30008E7F80831F910F9108950F931F9308E27B
:100A400010E0F80180818D7F80830E94F704F80117
:100A500080818E7F80830E94F704F801808182600C
:100A600080830E94F704F8018081816080830E9466
:100A700001051F910F910895FF920F931F93CF933C
:100A8000DF93182F00E0C8E2D0E088818D7F888353
:100A90000E94F70410FF04C088818160888303C02E
:100AA00088818E7F88838881826088830E94F70492
:100AB0000F5F083011F01695E8CFE8E2F0E0808192
:100AC0008D7F8083A7E2B0E08C918E7F8C938081B4
:100AD000816080830E94F704FF24309B02C0FF24C2
:100AE000F394FF2051F0E7E2F0E0808181608083A1
:100AF000E8E2F0E080818E7F80830E94F70408E2C4
:100B000010E0F8018081826080830E94F704F80180
:100B100080818D7F80830E94F704E7E2F0E080818E
:100B2000816080838F2DDF91CF911F910F91FF9076
:100B300008951F93182F0E940705812F0E943C05DE
:100B40000E941D051F910895811188E0683008F00A
:100B500067E0862B8093360180680E94990508958E
:100B600090913601682F6770892F88700E94A405C4
:100B700008956091360167700E94A40508950E944F
:100B8000A40508950F931F93182F062F84E40E9445
:100B900099050E9407051370812F806C0E943C0507
:100BA000802F0E943C050E941D051F910F91089502
:100BB00080E060E00E94C20581E060E00E94C20522
:100BC00082E060E00E94C20583E060E00E94C2050E
:100BD0000895882331F08091350180688093350134
:100BE00005C0809135018F778093350181E0609158
:100BF00035010E94C2050895982F6A3010F060E018
:100C000005C0E8E6F0E0E60FF11D6491913031F4A3
:100C1000809135018078682B60933501892F0E947F
:100C2000C205089587FB082E062687FD819567FD7E
:100C3000619505D00EF4919507FC81950895991B57
:100C400079E004C0991F961708F0961B881F7A95C3
:0A0C5000C9F780950895F894FFCFCE
:100C5A005374617274696E670A0D00536574210AD0
:100C6A000D00486F75723A2025642C204D696E7507
:100C7A0074653A2025642C205365636F6E643A20AC
:080C8A0025640A0D00FF0F00B4
:00000001FF
