:100000000C9439000C9456000C9456000C94560035
:100010000C9456000C9456000C9456000C94560008
:100020000C9456000C9456000C9456000C945600F8
:100030000C9456000C9456000C9456000C945600E8
:100040000C9456000C9456000C9456000C945600D8
:100050000C9456000C9456000C9456000C945600C8
:100060000C9456000C9456003F065B4F666D7D075E
:100070007F6F11241FBECFEFD8E0DEBFCDBF11E0F0
:10008000A0E0B1E0EAE4FCE002C005900D92A230ED
:10009000B107D9F711E0A2E0B1E001C01D92A4318F
:1000A000B107E1F70E9458000C9423060C9400005D
:1000B000AF92BF92DF92EF92FF920F931F93DF9365
:1000C000CF9300D00F92CDB7DEB70E9463030E949A
:1000D000D70081E061E00E94B70580E069E00E94FE
:1000E000F40581E069E00E94F40582E069E00E9485
:1000F000F40583E069E00E94F4050E94690420E2AF
:100100003EE440E951E0CA010197F1F72150304047
:10011000D1F70F2EF3E0DF2EF02D8E010F5F1F4F72
:100120000F2EF0E1EF2EF7E2FF2EF02D0F2EF0E96B
:10013000AF2EF1E0BF2EF02DF8018D2D11928A9592
:10014000E9F70E94DB00C8010E94C6048B816AE0C7
:100150000E940A06682F80E00E94F4058B816AE005
:100160000E940A0681E0692F0E94F4058A816AE0F4
:100170000E940A06682F82E00E94F4058A816AE0E4
:100180000E940A068D2D692F0E94F40589818E3107
:1001900020F480E00E94E10503C081E00E94E105B7
:1001A000C701F5013197F1F7019731F2FACF8FEFDF
:1001B0008093B8000895ECEBF0E080818B7F808322
:1001C0000895ECEBF0E080818823ECF70895ECEBE8
:1001D000F0E080818B7F808384EA80830E94E1004D
:1001E000089584E98093BC0008958093BB0084E85F
:1001F0008093BC000E94E100089584EC8093BC00D1
:100200000E94E1008091BB00089584E88093BC00C7
:100210000E94E1008091BB000895E0910201F091FD
:1002200003018193F0930301E09302010895982F55
:100230008A3014F480E307C080911201882311F4FE
:1002400087E501C087E3890F0E940D0181E080935B
:1002500013010895AC018091100190911101841750
:10026000950710F4E0E017C066277727641B750B2D
:100270009C01241B350BE0E0EF5FF22FA32F260F2C
:10028000371FC901840F951F84179507A8F7F093AE
:100290001001A093110180911301882311F4EE2322
:1002A00019F08E2F0E9417010895EF92FF920F937D
:1002B0001F930F2EF0E3EF2EF02D0F2EF0E3FF2E05
:1002C000F02D00E30E947C03182F0E9470031D3064
:1002D00021F0EF2CF02E012FF5CF802F805D24E64A
:1002E0009E2D920290011124820F2AE09F2D9202EE
:1002F00090011124820F1F910F91FF90EF900895AC
:10030000EF92FF920F931F93CF93DF937C0170E0E6
:10031000EB0121971C161D0614F000E012C000E04E
:100320000E947C03182F0E9470031D3051F0F701CA
:10033000E00FF11D10830F5F802F90E08C179D0759
:100340007CF3F701E00FF11D1082DF91CF911F9137
:100350000F91FF90EF900895CF93DF93FC01808180
:10036000882339F0EF010E9479038981219688233F
:10037000D1F7DF91CF9108952F923F924F925F92E4
:100380006F927F928F929F92AF92BF92CF92DF92A5
:10039000EF92FF920F931F93DF93CF93CDB7DEB70A
:1003A0000F2EF5E1EF2EFF24F02DEC0EFD1EF701D0
:1003B000C190D1907F010F2EF4E06F2EF1E07F2EDF
:1003C000F02D0F2EF0E34F2EF02D842C5524689441
:1003D00055F80F2EF0E12F2EF1E03F2EF02D5BC1EE
:1003E0000894C11CD11C853221F00E947903570169
:1003F00051C1F60111916F01103311F0992404C01D
:1004000011916F0199249394912F812F80538A30F9
:1004100010F000E012C000E0892F8053902F990F58
:10042000990F900F990F082F090FF60111916F0185
:10043000912F812F80538A3078F37092030160925C
:10044000020110921301133609F4C2C014369CF451
:10045000183509F451C019355CF4123409F478C028
:100460001334ACF4112309F41BC1153281F4C6C056
:10047000123669F46DC0133709F4B6C014371CF492
:10048000143629F407C0153729F01837A9F1570198
:10049000D301B9C0F701208131812093100130933D
:1004A0001101143669F433235CF488279927821BE1
:1004B000930B90931101809310018DE20E940D0126
:1004C000AA24BB246894A1F8AE0CBF1C80E197E27B
:1004D0000E942A0188EE93E00E942A0184E690E0BF
:1004E0000E942A018AE090E00E942A01F1018081A5
:1004F0000E941701D30187C0842D0E940D0188E757
:100500000E940D0110921201183519F4F1E0F093D8
:100510001201AA24BB246894A1F8AE0CBF1CF701F9
:1005200080819181909311018093100180E090E18E
:100530000E942A0180E091E00E942A0180E190E07F
:100540000E942A01F10180810E941701D3015BC042
:10055000842D0E940D0182E60E940D01109212016D
:10056000123419F4F1E0F0931201AA24BB24689428
:10057000A1F8AE0CBF1CF70180819181907090931F
:10058000110180931001F1E0F093130180E890E0F5
:100590000E942A0180E490E00E942A0180E290E01B
:1005A0000E942A0180E190E00E942A0188E090E008
:1005B0000E942A0184E090E00E942A0182E090E0FB
:1005C0000E942A01F10180810E941701D3011BC002
:1005D000AA24BB246894A1F8AE0CBF1CF70180814B
:1005E0000E940D01D3010FC0AA24BB246894A1F876
:1005F000AE0CBF1CF701A081B18105C085E20E944D
:100600000D015701D301E0910201F0910301108225
:10061000B0930301A0930201FD0181917F01F0934A
:100620000301E0930201882389F010163CF5015084
:10063000E0910201F09103018191F0930301E093B5
:100640000201882319F0101694F318C01016B4F4A0
:100650008C918D3211F07D0103C08DE20E947903EF
:10066000102F1150992011F4852D01C0882D0E9462
:100670007903111614F41150F5CFD7018C9188230A
:1006800049F08D010E947903F80181810F5F1F4FAE
:100690008823C1F77501F6018081882309F0A0CE77
:1006A000CF91DF911F910F91FF90EF90DF90CF904E
:1006B000BF90AF909F908F907F906F905F904F9082
:1006C0003F902F90089587E690E09093C500809327
:1006D000C40088E18093C10086E08093C200089541
:1006E000982FE0ECF0E0808185FFFDCF9093C6006D
:1006F00008950E9470030895E0ECF0E08081882363
:10070000ECF78091C6000895282F30E020773070F4
:10071000A901440F551F220F331F220F331F220F31
:10072000331F420F531F559547955595479555953E
:100730004795559547958F70840F0895E82FF0E001
:1007400040E050E08E2F6AE00E941606292F8E2F7F
:100750006AE00E941606E82F332727FD3095042E05
:1007600002C0220F331F0A94E2F7F22B4C5F5F4F57
:100770004031510539F78F2F08951F93CF93DF93A1
:10078000182FEB010E94E70080ED0E94F500113068
:1007900021F08BE00E94F50008C087E00E94F50080
:1007A00088810E949E030E94F50089810E949E0319
:1007B0000E94F5008A810E949E030E94F50080E855
:1007C0000E94F5000E94F100DF91CF911F910895E2
:1007D0000F931F938C010E94E70080ED0E94F500AB
:1007E00080E00E94F500F80180810E949E030E9433
:1007F000F500F80181810E949E030E94F500F80136
:1008000082810E949E030E94F5000E94F1001F91C8
:100810000F9108951F930E94E70080ED0E94F5005C
:100820008EE00E94F5000E94F1000E94E70081ED39
:100830000E94F5000E94FD00182F0E94F100812FF8
:100840001F9108951F930E940A04182F0E94E70029
:1008500080ED0E94F5008EE00E94F500812F867FDA
:100860000E94F5000E94F1001F9108951F930E94BD
:10087000E70080ED0E94F5008FE00E94F5000E94E5
:10088000F1000E94E70081ED0E94F5000E94FD004A
:10089000182F0E94F100812F1F9108951F9381301E
:1008A00029F40E943604182F1E7F04C00E943604CB
:1008B000182F1D7F0E94E70080ED0E94F5008FE059
:1008C0000E94F500812F0E94F5000E94F1001F9107
:1008D00008950F931F930E940A04182F0E94360454
:1008E000082F0E94E70080ED0E94F5008EE00E9434
:1008F000F500812F87600E94F5000E94F1000E94A0
:10090000E70080ED0E94F5008FE00E94F500802F47
:1009100087770E94F5000E94F1001F910F910895C2
:100920001F93CF93DF93182FEB010E94E70080ED18
:100930000E94F500113059F08BE00E94F5000E94F2
:10094000F1000E94E70081ED0E94F5000FC087E0F2
:100950000E94F5000E94F1000E94E70081ED0E94D4
:10096000F5000E94FD000E94840388830E94FD0020
:100970000E94840389830E94FD000E9484038A836D
:100980000E94F100DF91CF911F9108950F931F9363
:100990008C010E94E70080ED0E94F50080E00E943B
:1009A000F5000E94F1000E94E70081ED0E94F50031
:1009B0000E94FD000E948403F80180830E94FD00D4
:1009C0000E948403F80181830E94FD000E94840339
:1009D000F80182830E94F1001F910F9108958AE12E
:1009E0008A95F1F70895E7E2F0E0808183608083E3
:1009F0000895E7E2F0E080818C7F808308950F9373
:100A00001F930E94F30408E210E0F80180818160E6
:100A100080838081826080830E94EF04F80180815E
:100A20008E7F80831F910F9108950F931F9308E28B
:100A300010E0F80180818D7F80830E94EF04F8012F
:100A400080818E7F80830E94EF04F8018081826024
:100A500080830E94EF04F8018081816080830E947E
:100A6000F9041F910F910895FF920F931F93CF9355
:100A7000DF93182F00E0C8E2D0E088818D7F888363
:100A80000E94EF0410FF04C088818160888303C046
:100A900088818E7F88838881826088830E94EF04AA
:100AA0000F5F083011F01695E8CFE8E2F0E08081A2
:100AB0008D7F8083A7E2B0E08C918E7F8C938081C4
:100AC000816080830E94EF04FF24309B02C0FF24DA
:100AD000F394FF2051F0E7E2F0E0808181608083B1
:100AE000E8E2F0E080818E7F80830E94EF0408E2DC
:100AF00010E0F8018081826080830E94EF04F80199
:100B000080818D7F80830E94EF04E7E2F0E08081A6
:100B1000816080838F2DDF91CF911F910F91FF9086
:100B200008951F93182F0E94FF04812F0E943405FF
:100B30000E9415051F910895811188E0683008F022
:100B400067E0862B8093010180680E9491050895DB
:100B500090910101682F6770892F88700E949C0511
:100B600008956091010167700E949C0508950E949C
:100B70009C0508950F931F93182F062F84E40E945D
:100B800091050E94FF041370812F806C0E94340530
:100B9000802F0E9434050E9415051F910F91089522
:100BA00080E060E00E94BA0581E060E00E94BA0542
:100BB00082E060E00E94BA0583E060E00E94BA052E
:100BC0000895882331F080910001806880930001AE
:100BD00005C0809100018F778093000181E06091D2
:100BE00000010E94BA050895982F6A3010F060E065
:100BF00005C0E8E6F0E0E60FF11D6491913031F4B4
:100C0000809100018078682B60930001892F0E94F9
:100C1000BA050895991B79E004C0991F961708F04A
:100C2000961B881F7A95C9F78095089587FB082E33
:100C3000062687FD819567FD6195ECDF0EF49195A1
:0A0C400007FC81950895F894FFCF9A
:020C4A00FF0F9A
:00000001FF
