:100000000C9434000C943E000C943E000C943E0082
:100010000C943E000C943E000C943E000C943E0068
:100020000C943E000C943E000C943E000C943E0058
:100030000C943E000C943E000C943E000C943E0048
:100040000C943E000C943E000C943E000C943E0038
:100050000C943E000C943E000C943E000C943E0028
:100060000C943E000C943E0011241FBECFEFD8E04C
:10007000DEBFCDBF0E9440000C9473000C940000C2
:10008000CF93DF93EAE2F0E080818B7F8083ABE265
:10009000B0E08C9184608C93808188608083E4E2FE
:1000A000F0E0808180628083C9E2D0E0E5E2F0E0A8
:1000B00060E573EC40E951E0888182FDFDCF8C91D1
:1000C00088608C938081806280839B01CA01019744
:1000D000F1F721503040D1F78C91877F8C9380814C
:0A00E0008F7D8083E9CFF894FFCFF5
:00000001FF
