:100000000C9472000C9493000C9493000C94930045
:100010000C9493000C9493000C9493000C94930014
:100020000C9493000C9493000C9493000C94930004
:100030000C9493000C9493000C9493000C949300F4
:100040000C9493000C9493000C9493000C949300E4
:100050000C9493000C9493000C9493000C949300D4
:100060000C9493000C9493000C9493000C949300C4
:100070000C9493000C9493000C9493000C949300B4
:100080000C9493000C9493000C9493000C949300A4
:100090000C9493000C9493000C9493000C94930094
:1000A0000C9493000C9493000C9493000C94930084
:1000B0000C9493000C9493000C9493000C94930074
:1000C0000C9493000C9493000C9493000C94930064
:1000D0000C9493000C9493000C9493000C94930054
:1000E0000C94930011241FBECFEFD1E2DEBFCDBF31
:1000F00000E00CBF13E0A0E0B2E0E8E9FCE100E0C2
:100100000BBF02C007900D92A832B107D9F713E0D8
:10011000A8E2B3E001C01D92A033B107E1F70E944D
:10012000D7010C944A0E0C940000AF92BF92CF926C
:10013000DF92EF92FF920F931F93E5E2F0E0908140
:100140009068908394E6899FC0011124AA2797FDA7
:10015000A095BA2FBC01CD010E94F30A5B016C018E
:1001600020E030E04AE755E40E9469097B018C01F8
:1001700020E030E040E85FE30E94C30A88231CF4DB
:1001800061E070E023C0C801B70120E03FEF4FE716
:1001900057E40E94630A1816ACF4C601B50120E0CA
:1001A00030E040E251E40E9469090E949307CB01CC
:1001B000672B79F020E931E0F9013197F1F70197E8
:1001C000D9F707C0C801B7010E949307CB01019777
:1001D000F1F7E5E2F0E080818F778083C801B70115
:1001E00020E030E040E85FE30E94C30A88231CF46B
:1001F00061E070E023C0C801B70120E03FEF4FE7A6
:1002000057E40E94630A1816ACF4C601B50120E059
:1002100030E040E251E40E9469090E949307CB015B
:10022000672B79F020E931E0F9013197F1F7019777
:10023000D9F707C0C801B7010E949307CB01019706
:10024000F1F7E5E2F0E0808180688083C801B701C2
:1002500020E030E040E85FE30E94C30A88231CF4FA
:1002600061E070E023C0C801B70120E03FEF4FE735
:1002700057E40E94630A1816ACF4C601B50120E0E9
:1002800030E040E251E40E9469090E949307CB01EB
:10029000672B79F020E931E0F9013197F1F7019707
:1002A000D9F707C0C801B7010E949307CB01019796
:1002B000F1F7E5E2F0E080818F778083C801B70134
:1002C00020E030E040E85FE30E94C30A88231CF48A
:1002D00061E070E023C0C801B70120E03FEF4FE7C5
:1002E00057E40E94630A1816ACF4C601B50120E079
:1002F00030E040E251E40E9469090E949307CB017B
:10030000672B79F020E931E0F9013197F1F7019796
:10031000D9F707C0C801B7010E949307CB01019725
:10032000F1F7E5E2F0E0808180688083C801B701E1
:1003300020E030E040E85FE30E94C30A88231CF419
:1003400061E070E023C0C801B70120E03FEF4FE754
:1003500057E40E94630A1816ACF4C601B50120E008
:1003600030E040E251E40E9469090E949307CB010A
:10037000672B79F020E931E0F9013197F1F7019726
:10038000D9F707C0C801B7010E949307CB010197B5
:10039000F1F7E5E2F0E080818F7780831F910F9184
:1003A000FF90EF90DF90CF90BF90AF900895EF92C5
:1003B000FF921F93DF93CF930F92CDB7DEB7E4E2A6
:1003C000F0E0808180688083198281E061E00E9492
:1003D00036077E010894E11CF11CC70161E00E9410
:1003E000FA058230D1F389818A3A69F484E00E9467
:1003F000950080E061E00E94360710E07E010894DD
:10040000E11CF11C04C081E00E949500FCCFC701F3
:1004100061E041E00E9438038823C9F30E9453063B
:100420008823E1F31F5F123391F7E5E2F0E080816A
:100430008068808380E090E00F90CF91DF911F91E2
:10044000FF90EF900895AF92BF92CF92DF92EF921C
:10045000FF920F931F930E94A50B5B016C0120E09C
:1004600030E04AE755E40E9469097B018C0120E0F5
:1004700030E040E85FE30E94C30A88231CF461E097
:1004800070E023C0C801B70120E03FEF4FE757E419
:100490000E94630A1816ACF4C601B50120E030E0F2
:1004A00040E251E40E9469090E949307CB01672B47
:1004B00079F020E931E0F9013197F1F70197D9F7A7
:1004C00007C0C801B7010E949307CB010197F1F75C
:1004D0001F910F91FF90EF90DF90CF90BF90AF9062
:1004E0000895E4E2F0E0808181608083808184600F
:1004F00080838081826080838081877F8083E1E048
:10050000F1E080818F7B8083E2E0F1E08081806494
:10051000808381E58CBD0895882331F4E2E0F1E029
:1005200080818F7D80830895E2E0F1E080818062A8
:10053000808308958EBDEDE4F0E080818823ECF7A0
:100540008EB50895813031F4E2E0F1E08081806180
:1005500080830895E2E0F1E080818F7E80830895BA
:10056000E1E0F1E08081806180838081806280832E
:10057000E2E0F1E080818062808381E00E94A2025B
:1005800008950F931F93CF93DF93EC01062F80E024
:100590000E948C0280911F02813021F480EB8093B5
:1005A0002A0303C080EA80932A0380912A030E94D1
:1005B0009A02002341F01991812F0E949A02015062
:1005C000D1F710932A0381E00E948C02DF91CF9132
:1005D0001F910F910895882399F0813011F5809132
:1005E0001E028330F1F480E00E948C0281EE809341
:1005F0002A030E949A0281E00E948C0281E0089501
:1006000080911E02843069F480E00E948C0282EEA8
:1006100080932A030E949A0281E00E948C0281E06A
:10062000089580E00895FF920F931F93CF93DF9377
:10063000182FEB01042FF22E80E00E948C02812FF4
:100640000E949A028FEF80932A03002331F08FEFEC
:100650000E949A0289930150D1F7FF2019F481E09A
:100660000E948C02DF91CF911F910F91FF9008950E
:100670000F931F93CF93DF93EC01062F142F87E086
:100680006BE273E041E020E00E94130380912B03B2
:1006900085FD12C080911E02833071F410931F02F9
:1006A00080912803813011F400912F03CE01602F37
:1006B0000E94C10281E001C080E0DF91CF911F91D3
:1006C0000F910895FF920F931F93CF93DF93182FED
:1006D000EB01042FF22E80E00E948C021062109336
:1006E0002A03812F0E949A02002341F01991812F41
:1006F0000E949A020150D1F710932A03FF2019F4A7
:1007000081E00E948C02DF91CF911F910F91FF90A9
:1007100008951F93182F80E06BE273E041E020E022
:100720000E941303123061F1133030F4112351F0A1
:10073000113009F054C015C0133091F1143009F094
:100740004EC03EC080E00E94A20280912B038D7FAC
:1007500080932C0362E070E080E090E00E9423022E
:100760004CC080E00E94A20280912B0382608093A3
:100770002C0362E070E080E090E00E9423023DC024
:1007800081E00E94A20280912B038C7F8260809383
:100790002C0362E070E080E090E00E9423022DC014
:1007A00081E00E94A20280912B038C7F8260809363
:1007B0002C0362E070E080E090E00E9423021DC004
:1007C00081E00E94A20280912B03836080932C031E
:1007D00062E070E080E090E00E9423020EC080E0C2
:1007E0000E94A20280912B038D7F80932C0362E0F4
:1007F00070E080E090E00E94230280E06CE273E011
:1008000041E020E00E94620310931E021F910895B0
:100810000F931F93182F062F80E06BE273E041E0E7
:1008200020E00E941303112331F080912B03886094
:1008300080932C0305C080912C03877F80932C0329
:10084000023031F480912C03846080932C0305C026
:1008500080912C038B7F80932C0380E06CE273E00B
:1008600041E020E00E9462031F910F910895FF92E2
:100870000F931F93182F062FF42E80E06BE273E086
:1008800041E020E00E941303112331F080912B03FB
:10089000806480932C0305C080912C038F7B809310
:1008A0002C03002331F080912C03806280932C0371
:1008B00005C080912C038F7D80932C03FF2031F0A5
:1008C00080912C03806180932C0305C080912C03C0
:1008D0008F7E80932C0380E06CE273E041E020E0A7
:1008E0000E9462031F910F91FF900895DF93CF93B1
:1008F0000F92CDB7DEB7982F81508D3750F4998382
:1009000085E0BE016F5F7F4F41E020E00E946203FF
:100910000AC081E0898385E0BE016F5F7F4F41E0BF
:1009200020E00E9462030F90CF91DF9108951F9302
:10093000182F86E06BE273E041E020E00E94130391
:1009400080912B03897F80932B03163071F0173031
:1009500018F4112331F014C01C3059F0123181F415
:100960000CC0866080932C030EC0846080932C039F
:100970000AC0826080932C0306C080932C0303C0BE
:10098000846080932C0386E06CE273E041E020E019
:100990000E9462031F910895CF93DF93EC0186E0DC
:1009A0006BE273E041E020E00E94130380912B038F
:1009B000877D80932B0393E0C83ED90761F097E0D1
:1009C000C03DD90721F0CA3FD10561F407C0886056
:1009D00080932C0309C080932C0306C0806280930F
:1009E0002C0302C080932C0386E06CE273E041E0AC
:1009F00020E00E946203DF91CF9108951F93182F8A
:100A00008350833020F48F5F80932D0303C083E0F5
:100A100080932D0383E06DE273E041E020E00E94CB
:100A2000620310932E031F91089521E030E002C06D
:100A3000220F331F8A95E2F7215020932C0382E086
:100A40006CE273E041E020E00E9462030895EF92BF
:100A5000FF920F931F93DF93CF930F92CDB7DEB723
:100A60008983062F662371F011E17E010894E11C51
:100A7000F11C812FB70141E020E00E9462031F5F5B
:100A80000150B9F7898180932F030F90CF91DF91A7
:100A90001F910F91FF90EF9008950F931F93CF93A5
:100AA000DF9300912E03C0E0D2E01AE0812FBE0157
:100AB000402F20E00E9462031F5F25961031B1F79E
:100AC000DF91CF911F910F91089595E0899FB0011B
:100AD000112465507E4F80E140912E0320E00E945A
:100AE00062030895282F873050F481E090E002C01F
:100AF000880F991F2A95E2F7815080932C0381E09B
:100B00006CE273E041E020E00E94620308950F93DD
:100B10001F93182F062F862F0E9472058DE16BE21E
:100B200073E041E020E00E941303113019F5809139
:100B30002B03846080932C038DE16CE273E041E031
:100B400020E00E946203073050F481E090E002C090
:100B5000880F991F0A95E2F7815080932C038CE14E
:100B60006CE273E041E020E00E94620381E0809348
:100B700028030EC080912B038B7F80932C038DE183
:100B80006CE273E041E020E00E94620310922803CF
:100B90001F910F910895462F10922C038B3F9105C2
:100BA00088F031E08A5F90408B3F910548F0232F19
:100BB0002F5F203111F0322FF5CF30932C0302C07C
:100BC00030932C0380912C03682F6295607F842FD3
:100BD00081508F3028F4842F862B80932C0302C001
:100BE00060932C0384E06CE273E041E020E00E941B
:100BF000620308951F93CF93DF93EC01162F80912A
:100C00001E02843011F080E04AC087E06BE273E09E
:100C100041E020E00E94130380912B0386FD02C077
:100C200082E03DC080912803882311F410912F03A6
:100C300080E00E948C0281E680932A030E949A023F
:100C4000112349F08FEF0E949A0289931150D1F736
:100C50008FEF80932A0381E00E948C0287E16BE290
:100C600073E041E020E00E94130380912B0380FD9C
:100C700002C081E014C087E06BE273E041E020E055
:100C80000E94130380912B03806480932C0387E0E0
:100C90006CE273E041E020E00E94620381E0DF91BA
:100CA000CF911F91089587E06BE273E041E020E06F
:100CB0000E94130380912B0385FF09C087E06BE23C
:100CC00073E041E020E00E94620381E0089584FD2A
:100CD00002C080E0089587E06BE273E041E020E02D
:100CE0000E9462038FEF08958130A1F48DE16BE2E1
:100CF00073E041E020E00E94130380912B038160A8
:100D000080932C038DE16CE273E041E020E00E94CF
:100D1000620308958DE16BE273E041E020E00E9400
:100D2000130380912B038E7F80932C038DE16CE263
:100D300073E041E020E00E9462030895FF920F9368
:100D40001F9381E08093290380E00E94A20288E043
:100D500080932C030CE213E080E0B80141E020E036
:100D60000E9462038FE380932C0381E0B80141E08D
:100D700020E00E94620310922C0382E0B80141E05F
:100D800020E00E94620383E080932C03B80141E0DD
:100D900020E00E94620382E080932C0385E0B8018A
:100DA00041E020E00E9462030F2EFEE0FF2EF02DB6
:100DB000F0922C0386E0B80141E020E00E9462033B
:100DC000F0922C0387E0B80141E020E00E9462032A
:100DD00083E00E94890381E00E94EB0284E00E948C
:100DE000890380E00E94EB0287E06BE273E041E060
:100DF00020E00E94130380912B03806780932C03D3
:100E000087E0B80141E020E00E94620381E061E0F8
:100E100041E00E94370481E061E00E94080485E01F
:100E20000E94FE0488EE93E00E94CC0486E00E94BB
:100E3000970480E20E94760481E00E94150581E01B
:100E400061E00E94270584EF91E06AE00E94CB05F3
:100E500081E00E94720580E061E00E94870581E0E8
:100E60000E9474061F910F91FF9008950F931F9396
:100E7000082F162F0E9471020E94B00266E970E0EE
:100E800080E090E00E942302113021F0809129033C
:100E9000882311F40E949E06013099F0013028F059
:100EA000023009F10330A1F52AC080E00E948903D5
:100EB00081E060E040E00E94370483E00E94890303
:100EC0002FC080E00E94890380E061E041E00E9441
:100ED000370484E00E94890364E670E080E090E0DB
:100EE0000E9423021DC080E00E94890381E061E02E
:100EF00041E00E94370481E00E94890311C080E034
:100F00000E94890381E061E041E00E94370408C04B
:100F100080E00E94890381E061E041E00E943704A3
:100F20001F910F910895EF92FF920F931F937B01F2
:100F30008C0120E030E040E05FE40E94930A8823C7
:100F40008CF0C801B70120E030E040E05FE40E948F
:100F50000B090E94510B9B01AC01205030404040D6
:100F6000504806C0C801B7010E94510B9B01AC015B
:100F7000B901CA011F910F91FF90EF900895A0E071
:100F8000B0E0E5ECF7E00C94130EDC012B01FA0164
:100F90009C91923008F439C1EB018881823008F4C9
:100FA00033C1943069F4843009F02FC111969C91BB
:100FB00011978981981709F428C1A0E2B2E025C1F0
:100FC000843009F421C18230A9F4923009F01DC1A6
:100FD0009A01AD0188E0EA010990AE01E9010992A8
:100FE0009E018150C1F7E201898111969C9189236C
:100FF000818308C1923009F407C112962D903C906C
:101000001397EB018A819B811496AD90BD90CD9092
:10101000DC901797EC80FD800E811F819101281BC9
:10102000390BB90137FF04C066277727621B730BA2
:10103000603271050CF061C0121613066CF53701B1
:101040004801062E04C096948794779467940A9476
:10105000D2F721E030E040E050E004C0220F331F1F
:10106000441F551F6A95D2F72150304040405040F0
:101070002E213F21402351232115310541055105E2
:1010800021F021E030E040E050E079018A01E628DB
:10109000F728082919293CC0232BD1F1260E371E29
:1010A00035014601062E04C0969487947794679480
:1010B0000A94D2F721E030E040E050E004C0220F73
:1010C000331F441F551F6A95D2F7215030404040CE
:1010D00050402A213B214C215D212115310541053C
:1010E000510521F021E030E040E050E059016A0173
:1010F000A628B728C828D9280BC0821593052CF03C
:101100001C01AA24BB24650103C0EE24FF2487012F
:1011100011969C91D20111968C91981709F445C0B3
:10112000992339F0A80197012A193B094C095D0957
:1011300006C0A60195012E193F09400B510B57FD22
:1011400008C01182338222822483358346835783E9
:101150001DC081E081833382228288279927DC01A8
:10116000821B930BA40BB50B84839583A683B78353
:101170000DC0220F331F441F551F24833583468320
:101180005783828193810197938382832481358160
:1011900046815781DA01C9010197A109B1098F5F21
:1011A0009F4FAF4FBF4328F30BC0918333822282FE
:1011B000EA0CFB1C0C1D1D1DE482F58206831783BF
:1011C00083E08083248135814681578157FF1AC08F
:1011D000C901AA2797FDA095BA2F81709070A070C1
:1011E000B0705695479537952795822B932BA42B56
:1011F000B52B84839583A683B783828193810196DF
:1012000093838283DF0101C0D201CD01CDB7DEB768
:10121000E2E10C942F0EA0E2B0E0E1E1F9E00C94E1
:101220001F0E69837A838B839C832D833E834F8338
:101230005887E9E0EE2EF12CEC0EFD1ECE01019652
:10124000B7010E94420D8E010F5E1F4FCE01059621
:10125000B8010E94420D8A8991E089278A8BC701D3
:10126000B801AE01475E5F4F0E94BF070E946D0C40
:10127000A096E6E00C943B0EA0E2B0E0E2E4F9E0D8
:101280000C941F0E69837A838B839C832D833E830A
:101290004F835887F9E0EF2EF12CEC0EFD1ECE01A6
:1012A0000196B7010E94420D8E010F5E1F4FCE01C5
:1012B0000596B8010E94420DC701B801AE01475E14
:1012C0005F4F0E94BF070E946D0CA096E6E00C9451
:1012D0003B0EA0E2B0E0EFE6F9E00C94130E698358
:1012E0007A838B839C832D833E834F835887CE01E3
:1012F0000196BE01675F7F4F0E94420DCE010596A9
:10130000BE016F5E7F4F0E94420D9985923088F03A
:1013100089898230C8F0943019F4823051F404C0C5
:10132000843029F4923081F480E292E0C6C0923099
:1013300049F420E09A858A89981321E02A87CE0112
:101340000996BBC0823049F420E09A858A899813B7
:1013500021E02A8BCE014196B0C02D843E844F847B
:1013600058886D887E888F88988CEE24FF248701AA
:10137000AA24BB24650140E050E060E070E0E0E0BA
:10138000F0E0C10181709070892BE9F0E60CF71C48
:10139000081D191D9A01AB012A0D3B1D4C1D5D1D39
:1013A00080E090E0A0E0B0E0E614F704080519053D
:1013B00020F481E090E0A0E0B0E0BA01A901480F7C
:1013C000591F6A1F7B1FAA0CBB1CCC1CDD1C97FE7F
:1013D00008C081E090E0A0E0B0E0A82AB92ACA2ABB
:1013E000DB2A3196E032F10549F0660C771C881C47
:1013F000991C5694479437942794C3CFFA85EA8969
:101400002B893C898B859C85280F391F2E5F3F4F88
:1014100017C0CA0181709070892B61F016950795ED
:10142000F794E79480E090E0A0E0B0E8E82AF92A99
:101430000A2B1B2B76956795579547952F5F3F4F46
:1014400077FDE7CF0CC0440F551F661F771F17FDB0
:101450004160EE0CFF1C001F111F21503040403036
:1014600090E0590790E0690790E4790760F32B8FCB
:101470003C8FDB01CA018F779070A070B070803410
:101480009105A105B10561F447FD0AC0E114F1041D
:101490000105110529F0405C5F4F6F4F7F4F407889
:1014A0001A8EFE1711F081E08A8F4D8F5E8F6F8F3D
:1014B00078A383E0898FCE0149960E946D0CA09697
:1014C000E2E10C942F0EA8E1B0E0E9E6FAE00C941A
:1014D0001F0E69837A838B839C832D833E834F8386
:1014E000588789E0E82EF12CEC0EFD1ECE01019606
:1014F000B7010E94420D8E010F5E1F4FCE0105966F
:10150000B8010E94420D8985823040F0898982307D
:1015100028F0C701B8010E94BA0D01C08FEF68968C
:10152000E6E00C943B0EA8E1B0E0E9E9FAE00C94A7
:101530001F0E69837A838B839C832D833E834F8325
:10154000588789E0E82EF12CEC0EFD1ECE010196A5
:10155000B7010E94420D8E010F5E1F4FCE0105960E
:10156000B8010E94420D8985823040F0898982301D
:1015700028F0C701B8010E94BA0D01C08FEF68962C
:10158000E6E00C943B0EA8E1B0E0E9ECFAE00C9444
:101590001F0E69837A838B839C832D833E834F83C5
:1015A000588789E0E82EF12CEC0EFD1ECE01019645
:1015B000B7010E94420D8E010F5E1F4FCE010596AE
:1015C000B8010E94420D8985823040F089898230BD
:1015D00028F0C701B8010E94BA0D01C081E06896E9
:1015E000E6E00C943B0EA8E0B0E0E9EFFAE00C94E2
:1015F0001C0E9B01AC0183E08983DA01C9018827B5
:10160000B7FD83959927AA27BB27B82E2115310549
:101610004105510519F482E089833AC08823A9F075
:10162000203080E0380780E0480780E8580729F438
:1016300060E070E080E09FEC30C0EE24FF24870182
:10164000E21AF30A040B150B02C079018A018EE13C
:10165000C82ED12CDC82CB82ED82FE820F831887CC
:10166000C801B7010E941E0C01971816190684F4D0
:10167000082E04C0EE0CFF1C001F111F0A94D2F7A5
:10168000ED82FE820F831887C81AD90ADC82CB82CA
:10169000BA82CE0101960E946D0C2896E9E00C9466
:1016A000380EACE0B0E0E7E5FBE00C94230E698374
:1016B0007A838B839C83CE010196BE016B5F7F4F43
:1016C0000E94420D8D81823061F1823050F1843070
:1016D00021F48E81882351F12EC02F81388537FD6A
:1016E00020C06E812F3131051CF06623F9F023C034
:1016F0008EE190E0821B930B29853A854B855C85B2
:1017000004C056954795379527958A95D2F7662355
:10171000B1F050954095309521953F4F4F4F5F4F19
:101720000EC020E030E040E050E009C02FEF3FEF76
:101730004FEF5FE704C020E030E040E050E8B9013F
:10174000CA012C96E2E00C943F0EA8E0B0E0EBEA70
:10175000FBE00C941B0E7B018C016115710581056A
:10176000910519F482E0898360C083E089838EE16A
:10177000C82ED12CDC82CB82ED82FE820F831887AB
:10178000C801B7010E941E0CFC013197F7FF3BC056
:10179000222733272E1B3F0B57016801022E04C05E
:1017A000D694C794B794A7940A94D2F740E050E037
:1017B00060E070E081E090E0A0E0B0E004C0880F5D
:1017C000991FAA1FBB1F2A95D2F70197A109B1093A
:1017D0008E219F21A023B1230097A105B10521F0FF
:1017E00041E050E060E070E04A295B296C297D29E6
:1017F0004D835E836F8378878EE190E08E1B9F0B15
:101800009C838B8312C0309781F00E2E04C0EE0CA7
:10181000FF1C001F111F0A94D2F7ED82FE820F8376
:101820001887CE1ADF0ADC82CB821A82CE0101969B
:101830000E946D0C2896EAE00C94370EEF92FF920E
:101840000F931F937B018C0180E0E81680E0F8067F
:1018500081E0080780E0180788F48FEFE816F104AC
:101860000105110531F028F088E090E0A0E0B0E03B
:1018700017C080E090E0A0E0B0E012C080E0E81681
:1018800080E0F80680E0080781E0180728F088E18A
:1018900090E0A0E0B0E004C080E190E0A0E0B0E023
:1018A00020E230E040E050E0281B390B4A0B5B0B94
:1018B00004C016950795F794E7948A95D2F7F70137
:1018C000E85DFD4F8081281B310941095109C9019B
:1018D0001F910F91FF90EF900895DF92EF92FF928A
:1018E0000F931F93FC01E480F58006811781D1805E
:1018F0008081823048F480E090E0A0E1B0E0E82A06
:10190000F92A0A2B1B2BA5C0843009F49FC0823012
:1019100021F4EE24FF24870105C0E114F104010540
:10192000110519F4E0E0F0E096C0628173819FEF49
:10193000623879070CF05BC022E83FEF261B370BBB
:101940002A3131052CF020E030E040E050E02AC0A0
:10195000B801A701022E04C0769567955795479563
:101960000A94D2F781E090E0A0E0B0E004C0880FD4
:10197000991FAA1FBB1F2A95D2F70197A109B10988
:101980008E219F21A023B1230097A105B10521F04D
:1019900081E090E0A0E0B0E09A01AB01282B392B68
:1019A0004A2B5B2BDA01C9018F779070A070B07061
:1019B00080349105A105B10539F427FF09C0205CE9
:1019C0003F4F4F4F5F4F04C0215C3F4F4F4F5F4F22
:1019D000E0E0F0E02030A0E03A07A0E04A07A0E411
:1019E0005A0710F0E1E0F0E079018A0127C0603881
:1019F000710564F5FB01E158FF4FD801C7018F77EE
:101A00009070A070B07080349105A105B10539F4D3
:101A1000E7FE0DC080E490E0A0E0B0E004C08FE3FA
:101A200090E0A0E0B0E0E80EF91E0A1F1B1F17FFB0
:101A300005C016950795F794E794319687E01695BB
:101A40000795F794E7948A95D1F705C0EE24FF2413
:101A50008701EFEFF0E06E2F679566276795902F6F
:101A60009F77D794DD24D7948E2F8695492F462BC8
:101A7000582F5D29B701CA011F910F91FF90EF9078
:101A8000DF900895FC01DB01408151812281622FAA
:101A90006F7770E0221F2227221F9381892F880FE2
:101AA000822B282F30E0991F9927991F11969C931C
:101AB000119721153105A9F54115510561057105EC
:101AC00011F482E037C082E89FEF13969C938E93C7
:101AD00012979A01AB0167E0220F331F441F551F75
:101AE0006A95D1F783E08C930DC0220F331F441FFA
:101AF000551F12968D919C911397019713969C9365
:101B00008E931297203080E0380780E0480780E409
:101B1000580758F314962D933D934D935C93179764
:101B200008952F3F310579F441155105610571057F
:101B300019F484E08C93089564FF03C081E08C93D2
:101B400012C01C9210C02F57304013963C932E9316
:101B5000129783E08C9387E0440F551F661F771F11
:101B60008A95D1F7706414964D935D936D937C9331
:101B7000179708951F93DC01FB019C91923008F4A4
:101B800047C08081823008F443C0943051F41196EC
:101B90001C91843099F58181682F70E0611B710977
:101BA0003FC0843021F0923031F48230B9F181812C
:101BB000882389F12DC011961C9111978230F1F084
:101BC00081811817D9F412962D913C911397828137
:101BD00093818217930794F028173907BCF0149665
:101BE0008D919D910D90BC91A02D248135814681D0
:101BF0005781281739074A075B0718F4112341F06A
:101C00000AC082179307A407B50740F4112319F0FF
:101C100061E070E005C06FEF7FEF02C060E070E050
:101C2000CB011F9108952F923F924F925F926F9236
:101C30007F928F929F92AF92BF92CF92DF92EF925C
:101C4000FF920F931F93CF93DF93CDB7DEB7CA1BDD
:101C5000DB0B0FB6F894DEBF0FBECDBF19942A88F8
:101C6000398848885F846E847D848C849B84AA84B0
:101C7000B984C884DF80EE80FD800C811B81AA813D
:101C8000B981CE0FD11D0FB6F894DEBF0FBECDBF08
:081C9000ED010895F894FFCF67
:101C980020C3C2C1A020C3C2C1A120C3C2C1A22007
:101CA800C3C2C1A320C3C2C1A420C3C2C1A5050128
:101CB800000000000000000000010202030303030B
:101CC80004040404040404040505050505050505C4
:101CD80005050505050505050606060606060606A4
:101CE800060606060606060606060606060606068C
:101CF8000606060606060606070707070707070774
:101D0800070707070707070707070707070707075B
:101D1800070707070707070707070707070707074B
:101D2800070707070707070707070707070707073B
:101D38000707070707070707080808080808080823
:101D4800080808080808080808080808080808080B
:101D580008080808080808080808080808080808FB
:101D680008080808080808080808080808080808EB
:101D780008080808080808080808080808080808DB
:101D880008080808080808080808080808080808CB
:101D980008080808080808080808080808080808BB
:101DA80008080808080808080808080808080808AB
:081DB8000808080808080808E3
:00000001FF
