:100000000C9439000C9456000C9456000C94560035
:100010000C9456000C9456000C9456000C94560008
:100020000C9456000C9456000C9456000C946F00DF
:100030000C9456000C9456000C9456000C945600E8
:100040000C9458000C9456000C9456000C945600D6
:100050000C9456000C9456000C9456000C945600C8
:100060000C9456000C9456003F065B4F666D7D075E
:100070007F6F11241FBECFEFD8E0DEBFCDBF12E0EF
:10008000A0E0B1E0EAE4FAE202C005900D92A638E1
:10009000B107D9F712E0A6E8B2E001C01D92A43A78
:1000A000B107E1F70E9495010C9423150C94000010
:1000B0001F920F920FB60F9211248F939F938091EE
:1000C000870290918802019690938802809387021C
:1000D0009F918F910F900FBE0F901F9018951F92B8
:1000E0000F920FB60F9211248F9381E080938902B3
:1000F0008F910F900FBE0F901F90189514BCE5E4E0
:10010000F0E0808184608083EEE6F0E080818160B1
:1001100080830895E0E8F0E020812F732083A1E838
:10012000B0E02C9128602C93EFE6F0E02081226073
:10013000208390938900809388008C9185608C93B4
:100140000895DF93CF9300D00F92CDB7DEB7982FED
:1001500049836B83563440F0862F8F5F8B831A82DE
:100160008831A0F01B8212C05A3068F48B8188233A
:1001700029F487E18B8387E38A8308C081508B83CE
:1001800087E38A8303C0852F8A508A83892FBE0123
:100190006F5F7F4F0E94AC0B0F900F900F90CF912D
:1001A000DF910895FF920F931F93DF93CF9300D0B9
:1001B000CDB7DEB78AEA89831A8281E061E00E94C6
:1001C000750800D080E091E0EDB7FEB7928381839F
:1001D0000E948109FF240F900F908E010E5F1F4F28
:1001E000C80161E00E943907823051F48091890290
:1001F0008823B1F310928902F394F5E0FF1681F79A
:100200002A818981281751F500D08FE091E0EDB760
:10021000FEB7928381830E9481090F900F9080E046
:1002200061E00E947508FF248E010F5F1F4FC80117
:1002300061E041E00E9477048823C9F30E9492079D
:100240008823E1F380918902882389F3109289023F
:10025000F394F5E0FF1659F781E021C0222399F0CD
:1002600000D000D0EDB7FEB731968CE191E09183DC
:100270008083228313820E9481098A810F900F90CC
:100280000F900F900CC000D08AE291E0EDB7FEB75E
:10029000928381830E94810980E00F900F900F90DC
:1002A0000F90CF91DF911F910F91FF9008950F93C1
:1002B0001F93DF93CF9300D00F92CDB7DEB7698342
:1002C000172F7A838B83082F6AE00E94B114682F5E
:1002D00080E00E94E30D802F6AE00E94B11481E06B
:1002E000692F0E94E30D812F6AE00E94B114682FEC
:1002F00082E00E94E30D812F6AE00E94B11483E046
:10030000692F0E94E30D89818E3120F480E00E94E4
:10031000D00D03C081E00E94D00D0F900F900F9080
:10032000CF91DF911F910F9108952F923F924F929D
:100330005F926F927F928F929F92AF92BF92CF9275
:10034000DF92EF92FF920F931F93DF93CF9300D032
:100350000F92CDB7DEB70E94490B0E94280B0E9476
:10036000F90D0E94580C81E061E00E94A60D0E94E8
:100370007E0089E09DE30E948A007894AAE2B0E0C2
:100380008C918E7F8C93EBE2F0E0808181608083A2
:100390008C918D7F8C93808182608083E4E2F0E099
:1003A000808184608083E5E2F0E080818B7F8083C0
:1003B000FE01319683E0DF011D928A95E9F700D0B6
:1003C00087E391E0EDB7FEB7928381830E948109B4
:1003D0000F2EF5E06F2E7724F02DCC24DD240F9026
:1003E0000F900F2EFFE32F2EF1E03F2EF02D4E0148
:1003F0000894811C911C0F2EF9E24F2E5524F02DEC
:100400000F2EF5E2AF2EBB24F02D809189028823B8
:10041000E1F31092890200D0ADB7BEB712963C92BC
:100420002E9211970E9481090F900F90C4010E9493
:10043000B50C69817A818B810E945701F20180811C
:1004400080FD11C0D5018C9184608C9380918902CC
:100450008823E1F310928902F50180818B7F8083EC
:10046000CC24DD24D2CFD2018C9181FD10C0F501C6
:10047000808184608083809189028823E1F31092D7
:100480008902D5018C918B7F8C933601BECF0E945F
:10049000250C90E083709070892B09F445C00E9470
:1004A000250C80FF21C01092880210928702C1148F
:1004B000D104A1F080918702909188020C9738F0C6
:1004C00010928802109287020894C108D1080E94F5
:1004D000550B0E946D0BC114D10461F781E00E949D
:1004E0003D0CCC24DD2491CF10928802109287021B
:1004F0006C147D04A1F080918702909188020C9782
:1005000038F010928802109287020894C11CD11C06
:100510000E945E0B0E946D0BC614D70461F782E047
:100520000E943D0C630171CF0E94D200982FFF24DE
:100530006894F6F8F822EE246894E5F8E8228871C9
:1005400009F46DC0192F1071092F087000D088E4CC
:1005500091E0EDB7FEB7928381830E9481090F90ED
:100560000F9056C081E0B4010E947F0C04C082E06D
:10057000B4010E947F0C69817A818B810E945701AE
:100580008A81865F8A83FF2019F08B5F8A8304C08B
:10059000EE2011F085508A83112339F081E04981E2
:1005A0005A816B810E94A10006C082E049815A8174
:1005B0006B810E94A1000E94D20090E09C01002467
:1005C000220F331F001C220F331F001C232F302D3E
:1005D000FF24F394F2229C013695279532952295BB
:1005E0002F7023273F702327EE24E394E2229C01FF
:1005F000329522952F7023273F702327122F1170D9
:10060000969587959695879596958795082F01706D
:10061000112309F0A7CF002309F0A9CFF6CE892F27
:10062000807609F4F2CE1092880210928702FF20A1
:1006300011F100D0E0E5F1E0ADB7BEB71296FC9342
:10064000EE9311970E9481090F900F900E94550B15
:100650000E946D0B80918702909188020C9738F070
:1006600010928802109287020894C108D1080E9453
:10067000D20086FDDECFEE2011F100D0E5E5F1E0FD
:10068000ADB7BEB71296FC93EE9311970E94810905
:100690000F900F900E945E0B0E946D0B809187025D
:1006A000909188020C9738F010928802109287027D
:1006B0000894C11CD11C0E94D20085FDDECF0E948F
:1006C000670BA3CEAF92BF92CF92DF92EF92FF92D1
:1006D0000F931F930E9443125B016C0120E030E0F6
:1006E0004AE755E40E9465107B018C0120E030E070
:1006F00040E85FE30E94BF1188231CF461E070E0D2
:1007000023C0C801B70120E03FEF4FE757E40E9444
:100710005F111816ACF4C601B50120E030E040E2EC
:1007200051E40E9465100E948F0ECB01672B79F077
:1007300020E931E0F9013197F1F70197D9F707C0C6
:10074000C801B7010E948F0ECB010197F1F71F91ED
:100750000F91FF90EF90DF90CF90BF90AF900895F2
:10076000E4E2F0E08081846080838081886080831F
:1007700080818062808380818F7E808380818D7F75
:100780008083E5E2F0E080818260808381E58CBD3A
:100790000895882331F4E5E2F0E080818E7F808344
:1007A0000895E5E2F0E080818160808308958EBD48
:1007B000EDE4F0E080818823ECF78EB50895813078
:1007C00031F4EBE2F0E08081806880830895EBE211
:1007D000F0E080818F7780830895EAE2F0E0808105
:1007E00080688083E4E2F0E0808181608083E5E2DC
:1007F000F0E080818160808381E00E94DF030895C2
:100800000F931F93CF93DF93EC01062F80E00E949C
:10081000C90380917B01813021F480EB80938C02AD
:1008200003C080EA80938C0280918C020E94D703DF
:10083000002341F01991812F0E94D7030150D1F775
:1008400010938C0281E00E94C903DF91CF911F9128
:100850000F910895882399F0813011F580917A01E4
:100860008330F1F480E00E94C90381EE80938C0212
:100870000E94D70381E00E94C90381E0089580911E
:100880007A01843069F480E00E94C90382EE80938B
:100890008C020E94D70381E00E94C90381E0089581
:1008A00080E00895FF920F931F93CF93DF93182F4B
:1008B000EB01042FF22E80E00E94C903812F0E94D9
:1008C000D7038FEF80938C02002331F08FEF0E94CB
:1008D000D70389930150D1F7FF2019F481E00E94DA
:1008E000C903DF91CF911F910F91FF9008950F934E
:1008F0001F93CF93DF93EC01062F142F87E06DE851
:1009000072E041E020E00E94520480918D0285FD5A
:1009100012C080917A01833071F410937B01809131
:100920008A02813011F400919102CE01602F0E9461
:10093000000481E001C080E0DF91CF911F910F9111
:100940000895FF920F931F93CF93DF93182FEB011E
:10095000042FF22E80E00E94C903106210938C02D3
:10096000812F0E94D703002341F01991812F0E940B
:10097000D7030150D1F710938C02FF2019F481E0C6
:100980000E94C903DF91CF911F910F91FF900895AD
:100990001F93182F80E06DE872E041E020E00E9494
:1009A0005204123061F1133030F4112351F0113040
:1009B00009F054C015C0133091F1143009F04EC045
:1009C0003EC080E00E94DF0380918D028D7F809386
:1009D0008E0262E070E080E090E00E9462034CC012
:1009E00080E00E94DF0380918D02826080938E02FE
:1009F00062E070E080E090E00E9462033DC081E030
:100A00000E94DF0380918D028C7F826080938E0232
:100A100062E070E080E090E00E9462032DC081E01F
:100A20000E94DF0380918D028C7F826080938E0212
:100A300062E070E080E090E00E9462031DC081E00F
:100A40000E94DF0380918D02836080938E0262E0BA
:100A500070E080E090E00E9462030EC080E00E949F
:100A6000DF0380918D028D7F80938E0262E070E0C3
:100A700080E090E00E94620380E06EE872E041E076
:100A800020E00E94A10410937A011F9108950F9312
:100A90001F93182F062F80E06DE872E041E020E000
:100AA0000E945204112331F080918D02886080935E
:100AB0008E0205C080918E02877F80938E02023065
:100AC00031F480918E02846080938E0205C0809103
:100AD0008E028B7F80938E0280E06EE872E041E0B0
:100AE00020E00E94A1041F910F910895FF920F939F
:100AF0001F93182F062FF42E80E06DE872E041E07E
:100B000020E00E945204112331F080918D02806414
:100B100080938E0205C080918E028F7B80938E021F
:100B2000002331F080918E02806280938E0205C096
:100B300080918E028F7D80938E02FF2031F0809114
:100B40008E02806180938E0205C080918E028F7E1E
:100B500080938E0280E06EE872E041E020E00E9427
:100B6000A1041F910F91FF900895DF93CF930F92EF
:100B7000CDB7DEB7982F81508D3750F4998385E03B
:100B8000BE016F5F7F4F41E020E00E94A1040AC0D8
:100B900081E0898385E0BE016F5F7F4F41E020E007
:100BA0000E94A1040F90CF91DF9108951F93182FF9
:100BB00086E06DE872E041E020E00E9452048091FE
:100BC0008D02897F80938D02163071F0173018F4F2
:100BD000112331F014C01C3059F0123181F40CC0D3
:100BE000866080938E020EC0846080938E020AC05D
:100BF000826080938E0206C080938E0203C0846060
:100C000080938E0286E06EE872E041E020E00E9470
:100C1000A1041F910895CF93DF93EC0186E06DE866
:100C200072E041E020E00E94520480918D02877DB5
:100C300080938D0293E0C83ED90761F097E0C03DF4
:100C4000D90721F0CA3FD10561F407C088608093BD
:100C50008E0209C080938E0206C0806280938E024D
:100C600002C080938E0286E06EE872E041E020E0F0
:100C70000E94A104DF91CF9108951F93182F8350F4
:100C8000833020F48F5F80938F0203C083E08093D2
:100C90008F0283E06FE872E041E020E00E94A1044F
:100CA000109390021F91089521E030E002C0220FBE
:100CB000331F8A95E2F7215020938E0282E06EE87E
:100CC00072E041E020E00E94A1040895EF92FF92BB
:100CD0000F931F93DF93CF930F92CDB7DEB7898326
:100CE000062F662371F011E17E010894E11CF11CCE
:100CF000812FB70141E020E00E94A1041F5F015055
:100D0000B9F78981809391020F90CF91DF911F9164
:100D10000F91FF90EF9008950F931F93CF93DF9360
:100D200000919002CCE5D1E01AE0812FBE01402F66
:100D300020E00E94A1041F5F25961031B1F7DF91DA
:100D4000CF911F910F91089595E0899FB0011124D3
:100D5000695A7E4F80E14091900220E00E94A104F8
:100D60000895282F873050F481E090E002C0880F6A
:100D7000991F2A95E2F7815080938E0281E06EE8F8
:100D800072E041E020E00E94A10408950F931F93B8
:100D9000182F062F862F0E94B1068DE16DE872E0B4
:100DA00041E020E00E945204113019F580918D023B
:100DB000846080938E028DE16EE872E041E020E075
:100DC0000E94A104073050F481E090E002C0880F37
:100DD000991F0A95E2F7815080938E028CE16EE8AC
:100DE00072E041E020E00E94A10481E080938A0249
:100DF0000EC080918D028B7F80938E028DE16EE814
:100E000072E041E020E00E94A10410928A021F914A
:100E10000F910895462F10928E028B3F910588F016
:100E200031E08A5F90408B3F910548F0232F2F5F80
:100E3000203111F0322FF5CF30938E0202C0309363
:100E40008E0280918E02682F6295607F842F815080
:100E50008F3028F4842F862B80938E0202C06093FB
:100E60008E0284E06EE872E041E020E00E94A1047E
:100E700008951F93CF93DF93EC01162F80917A0191
:100E8000843011F080E04AC087E06DE872E041E014
:100E900020E00E94520480918D0286FD02C082E013
:100EA0003DC080918A02882311F41091910280E064
:100EB0000E94C90381E680938C020E94D70311230C
:100EC00049F08FEF0E94D70389931150D1F78FEF2C
:100ED00080938C0281E00E94C90387E16DE872E093
:100EE00041E020E00E94520480918D0280FD02C00A
:100EF00081E014C087E06DE872E041E020E00E94EC
:100F0000520480918D02806480938E0287E06EE8A7
:100F100072E041E020E00E94A10481E0DF91CF91E6
:100F20001F91089587E06DE872E041E020E00E94A3
:100F3000520480918D0285FF09C087E06DE872E060
:100F400041E020E00E94A10481E0089584FD02C0F8
:100F500080E0089587E06DE872E041E020E00E94C3
:100F6000A1048FEF08958130A1F48DE16DE872E066
:100F700041E020E00E94520480918D0281608093C4
:100F80008E028DE16EE872E041E020E00E94A10453
:100F900008958DE16DE872E041E020E00E94520486
:100FA00080918D028E7F80938E028DE16EE872E0DB
:100FB00041E020E00E94A1040895FF920F931F9347
:100FC00081E080938B0280E00E94DF0388E08093C1
:100FD0008E020EE812E080E0B80141E020E00E94BD
:100FE000A1048FE380938E0281E0B80141E020E00C
:100FF0000E94A10410928E0282E0B80141E020E03C
:101000000E94A10483E080938E02B80141E020E0B9
:101010000E94A10482E080938E0285E0B80141E045
:1010200020E00E94A1040F2EFEE0FF2EF02DF09292
:101030008E0286E0B80141E020E00E94A104F09217
:101040008E0287E0B80141E020E00E94A10483E025
:101050000E94C80481E00E942A0484E00E94C8041F
:1010600080E00E942A0487E06DE872E041E020E021
:101070000E94520480918D02806780938E0287E0E7
:10108000B80141E020E00E94A10481E061E041E07C
:101090000E94760581E061E00E94470585E00E949C
:1010A0003D0688EE93E00E940B0686E00E94D6057E
:1010B00080E20E94B50581E00E94540681E061E073
:1010C0000E94660684EF91E06AE00E940A0781E0D0
:1010D0000E94B10680E061E00E94C60681E00E94A5
:1010E000B3071F910F91FF9008950F931F93082F3F
:1010F000162F0E94B0030E94ED0366E970E080E0C5
:1011000090E00E946203113021F080918B028823CD
:1011100011F40E94DD07013099F0013028F002300F
:1011200009F10330A1F52AC080E00E94C80481E0E3
:1011300060E040E00E94760583E00E94C8042FC072
:1011400080E00E94C80480E061E041E00E947605F2
:1011500084E00E94C80464E670E080E090E00E94B1
:1011600062031DC080E00E94C80481E061E041E0AC
:101170000E94760581E00E94C80411C080E00E94B0
:10118000C80481E061E041E00E94760508C080E08B
:101190000E94C80481E061E041E00E9476051F9151
:1011A0000F910895E0919202F09193028193F09350
:1011B0009302E09392020895982F8A3014F480E30A
:1011C00007C08091A202882311F487E501C087E35C
:1011D000890F0E94D20881E08093A3020895AC0198
:1011E0008091A0029091A1028417950710F4E0E08D
:1011F00017C066277727641B750B9C01241B350BD2
:10120000E0E0EF5FF22FA32F260F371FC901840FF5
:10121000951F84179507A8F7F093A002A093A10249
:101220008091A302882311F4EE2319F08E2F0E94DF
:10123000DC080895EF92FF920F931F930F2EF0E3B7
:10124000EF2EF02D0F2EF0E3FF2EF02D00E30E9485
:10125000410B182F0E94350B1D3021F0EF2CF02E82
:10126000012FF5CF802F805D24E69E2D9202900104
:101270001124820F2AE09F2D920290011124820FE7
:101280001F910F91FF90EF900895EF92FF920F93AF
:101290001F93CF93DF937C0170E0EB0121971C1625
:1012A0001D0614F000E012C000E00E94410B182F50
:1012B0000E94350B1D3051F0F701E00FF11D108336
:1012C0000F5F802F90E08C179D077CF3F701E00FF4
:1012D000F11D1082DF91CF911F910F91FF90EF9040
:1012E0000895CF93DF93FC018081882339F0EF01CB
:1012F0000E943E0B898121968823D1F7DF91CF91FF
:1013000008952F923F924F925F926F927F928F92A9
:101310009F92AF92BF92CF92DF92EF92FF920F9384
:101320001F93DF93CF93CDB7DEB70F2EF5E1EF2EEE
:10133000FF24F02DEC0EFD1EF701C190D1907F012E
:101340000F2EF4E96F2EF2E07F2EF02D0F2EF0E33A
:101350004F2EF02D842C5524689455F80F2EF0EA6A
:101360002F2EF2E03F2EF02D5BC10894C11CD11C42
:10137000853221F00E943E0B570151C1F6011191B7
:101380006F01103311F0992404C011916F01992459
:101390009394912F812F80538A3010F000E012C077
:1013A00000E0892F8053902F990F990F900F990F7C
:1013B000082F090FF60111916F01912F812F805392
:1013C0008A3078F370929302609292021092A30294
:1013D000133609F4C2C014369CF4183509F451C010
:1013E00019355CF4123409F478C01334ACF41123C9
:1013F00009F41BC1153281F4C6C0123669F46DC000
:10140000133709F4B6C014371CF4143629F407C096
:10141000153729F01837A9F15701D301B9C0F701E1
:10142000208131812093A0023093A102143669F407
:1014300033235CF488279927821B930B9093A10296
:101440008093A0028DE20E94D208AA24BB24689453
:10145000A1F8AE0CBF1C80E197E20E94EF0888EE75
:1014600093E00E94EF0884E690E00E94EF088AE093
:1014700090E00E94EF08F10180810E94DC08D30116
:1014800087C0842D0E94D20888E70E94D20810925B
:10149000A202183519F4F1E0F093A202AA24BB24A9
:1014A0006894A1F8AE0CBF1CF701808191819093E4
:1014B000A1028093A00280E090E10E94EF0880E00A
:1014C00091E00E94EF0880E190E00E94EF08F101B6
:1014D00080810E94DC08D3015BC0842D0E94D20869
:1014E00082E60E94D2081092A202123419F4F1E0AE
:1014F000F093A202AA24BB246894A1F8AE0CBF1CEE
:10150000F7018081918190709093A1028093A00255
:10151000F1E0F093A30280E890E00E94EF0880E4FD
:1015200090E00E94EF0880E290E00E94EF0880E1E6
:1015300090E00E94EF0888E090E00E94EF0884E0CD
:1015400090E00E94EF0882E090E00E94EF08F10135
:1015500080810E94DC08D3011BC0AA24BB246894AC
:10156000A1F8AE0CBF1CF70180810E94D208D30104
:101570000FC0AA24BB246894A1F8AE0CBF1CF701CD
:10158000A081B18105C085E20E94D2085701D30134
:10159000E0919202F09193021082B0939302A09393
:1015A0009202FD0181917F01F0939302E0939202F8
:1015B000882389F010163CF50150E0919202F091D9
:1015C00093028191F0939302E0939202882319F0A1
:1015D000101694F318C01016B4F48C918D3211F0DB
:1015E0007D0103C08DE20E943E0B102F1150992007
:1015F00011F4852D01C0882D0E943E0B111614F4A4
:101600001150F5CFD7018C91882349F08D010E94AC
:101610003E0BF80181810F5F1F4F8823C1F77501D1
:10162000F6018081882309F0A0CECF91DF911F9130
:101630000F91FF90EF90DF90CF90BF90AF909F9071
:101640008F907F906F905F904F903F902F90089574
:1016500087E690E09093C5008093C40088E1809372
:10166000C10086E08093C2000895982FE0ECF0E07E
:10167000808185FFFDCF9093C60008950E94350BB1
:101680000895E0ECF0E080818823ECF78091C600BB
:101690000895EAE2F0E08081806180838081806249
:1016A00080838081806480830895EBE2F0E0808114
:1016B0008F7D80838081806480830895EBE2F0E0F9
:1016C00080818062808380818F7B80830895EBE2BC
:1016D000F0E080818F7E80830895EBE2F0E08081EE
:1016E000806180830895282F30E020773070A90131
:1016F000440F551F220F331F220F331F220F331F9A
:10170000420F531F559547955595479555954795C4
:10171000559547958F70840F0895E82FF0E040E0CD
:1017200050E08E2F6AE00E94BD14292F8E2F6AE0B0
:101730000E94BD14E82F332727FD3095042E02C0E8
:10174000220F331F0A94E2F7F22B4C5F5F4F4031B8
:10175000510539F78F2F08951F93CF93DF93182FDB
:10176000EB010E94090E80ED0E94170E113021F04E
:101770008BE00E94170E08C087E00E94170E888138
:101780000E948D0B0E94170E89810E948D0B0E9472
:10179000170E8A810E948D0B0E94170E80E80E940E
:1017A000170E0E94130EDF91CF911F9108950F9392
:1017B0001F938C010E94090E80ED0E94170E80E09D
:1017C0000E94170EF80180810E948D0B0E94170E57
:1017D000F80181810E948D0B0E94170EF801828111
:1017E0000E948D0B0E94170E0E94130E1F910F91E5
:1017F00008951F930E94090E80ED0E94170E8EE03F
:101800000E94170E0E94130E0E94090E81ED0E9485
:10181000170E0E941F0E182F0E94130E812F1F916A
:1018200008951F930E94F90B182F0E94090E80ED56
:101830000E94170E8EE00E94170E812F867F0E9455
:10184000170E0E94130E1F9108951F930E94090EF8
:1018500080ED0E94170E8FE00E94170E0E94130E5B
:101860000E94090E81ED0E94170E0E941F0E182F74
:101870000E94130E812F1F9108951F93813029F428
:101880000E94250C182F1E7F04C00E94250C182FC3
:101890001D7F0E94090E80ED0E94170E8FE00E94AE
:1018A000170E812F0E94170E0E94130E1F9108958C
:1018B0000F931F930E94F90B182F0E94250C082FDD
:1018C0000E94090E80ED0E94170E8EE00E94170EF6
:1018D000812F87600E94170E0E94130E0E94090E2E
:1018E00080ED0E94170E8FE00E94170E802F8777E1
:1018F0000E94170E0E94130E1F910F9108951F93BF
:10190000CF93DF93182FEB010E94090E80ED0E9408
:10191000170E113059F08BE00E94170E0E94130E23
:101920000E94090E81ED0E94170E0FC087E00E94F1
:10193000170E0E94130E0E94090E81ED0E94170ED1
:101940000E941F0E0E94730B88830E941F0E0E942C
:10195000730B89830E941F0E0E94730B8A830E945F
:10196000130EDF91CF911F9108950F931F938C0158
:101970000E94090E80ED0E94170E80E00E94170E53
:101980000E94130E0E94090E81ED0E94170E0E9404
:101990001F0E0E94730BF80180830E941F0E0E948D
:1019A000730BF80181830E941F0E0E94730BF801D4
:1019B00082830E94130E1F910F9108958AE18A95E8
:1019C000F1F70895E7E2F0E0808183608083089575
:1019D000E7E2F0E080818C7F808308950F931F936E
:1019E0000E94E20C08E210E0F801808181608083AF
:1019F0008081826080830E94DE0CF80180818E7F6E
:101A000080831F910F9108950F931F9308E210E0B8
:101A1000F80180818D7F80830E94DE0CF801808137
:101A20008E7F80830E94DE0CF8018081826080833B
:101A30000E94DE0CF8018081816080830E94E80CA6
:101A40001F910F910895FF920F931F93CF93DF93F0
:101A5000182F00E0C8E2D0E088818D7F88830E9443
:101A6000DE0C10FF04C088818160888303C08881F8
:101A70008E7F88838881826088830E94DE0C0F5F5E
:101A8000083011F01695E8CFE8E2F0E080818D7F14
:101A90008083A7E2B0E08C918E7F8C9380818160FF
:101AA00080830E94DE0CFF24309B02C0FF24F3944D
:101AB000FF2051F0E7E2F0E0808181608083E8E27E
:101AC000F0E080818E7F80830E94DE0C08E210E0CF
:101AD000F8018081826080830E94DE0CF8018081A1
:101AE0008D7F80830E94DE0CE7E2F0E080818160E0
:101AF00080838F2DDF91CF911F910F91FF900895DB
:101B00001F93182F0E94EE0C812F0E94230D0E941C
:101B1000040D1F910895811188E0683008F067E096
:101B2000862B80937D0180680E94800D089590919E
:101B30007D01682F6770892F88700E948B0D089532
:101B400060917D0167700E948B0D08950E948B0D3E
:101B500008950F931F93182F062F84E40E94800D81
:101B60000E94EE0C1370812F806C0E94230D802F39
:101B70000E94230D0E94040D1F910F91089580E093
:101B800060E00E94A90D81E060E00E94A90D82E062
:101B900060E00E94A90D83E060E00E94A90D089515
:101BA000882331F080917C01806880937C0105C09E
:101BB00080917C018F7780937C0181E060917C0132
:101BC0000E94A90D0895982F6A3010F060E005C0BA
:101BD000E8E6F0E0E60FF11D6491913031F4809178
:101BE0007C018078682B60937C01892F0E94A90D6D
:101BF00008958FEF8093B8000895ECEBF0E08081BA
:101C00008B7F80830895ECEBF0E080818823ECF7F4
:101C10000895ECEBF0E080818B7F808384EA808301
:101C20000E94030E089584E98093BC000895809378
:101C3000BB0084E88093BC000E94030E089584ECEE
:101C40008093BC000E94030E8091BB00089584E83D
:101C50008093BC000E94030E8091BB000895ECE7C6
:101C6000F0E080818E648083EAE7F0E08081876025
:101C700080838081806880830895AB01BC01EAE79E
:101C8000F0E0808180648083808186FDFDCF20919B
:101C9000780030917900CB01BA01052E5AE0660F29
:101CA000771F881F991F5A95D1F7502D40E050E0BB
:101CB0000E94CA14822F932F0895DF92EF92FF9211
:101CC0000F931F93CF93DF93EE24FF248701DD242E
:101CD000C0E2DEE461EE73E080E090E00E943D0E41
:101CE000A0E0B0E0E80EF91E0A1F1B1FCE0101970D
:101CF000F1F7D39484E1D81669F7C801B70124E15C
:101D000030E040E050E00E94CA14822F932FDF9110
:101D1000CF911F910F91FF90EF90DF900895EF9278
:101D2000FF920F931F937B018C0120E030E040E095
:101D30005FE40E948F1188238CF0C801B70120E076
:101D400030E040E05FE40E9407100E94EF119B0129
:101D5000AC01205030404040504806C0C801B70197
:101D60000E94EF119B01AC01B901CA011F910F91B3
:101D7000FF90EF900895A0E0B0E0E1ECFEE00C945D
:101D8000EC14DC012B01FA019C91923008F439C16A
:101D9000EB018881823008F433C1943069F48430D7
:101DA00009F02FC111969C9111978981981709F418
:101DB00028C1AEE7B1E025C1843009F421C18230E9
:101DC000A9F4923009F01DC19A01AD0188E0EA0141
:101DD0000990AE01E90109929E018150C1F7E2012B
:101DE000898111969C918923818308C1923009F4DD
:101DF00007C112962D903C901397EB018A819B812D
:101E00001496AD90BD90CD90DC901797EC80FD803E
:101E10000E811F819101281B390BB90137FF04C0C6
:101E200066277727621B730B603271050CF061C067
:101E3000121613066CF537014801062E04C096945D
:101E40008794779467940A94D2F721E030E040E0D9
:101E500050E004C0220F331F441F551F6A95D2F76C
:101E600021503040404050402E213F2140235123FB
:101E7000211531054105510521F021E030E040E018
:101E800050E079018A01E628F728082919293CC081
:101E9000232BD1F1260E371E35014601062E04C034
:101EA00096948794779467940A94D2F721E030E06F
:101EB00040E050E004C0220F331F441F551F6A95B5
:101EC000D2F721503040404050402A213B214C2144
:101ED0005D21211531054105510521F021E030E05A
:101EE00040E050E059016A01A628B728C828D9283F
:101EF0000BC0821593052CF01C01AA24BB2465019C
:101F000003C0EE24FF24870111969C91D201119603
:101F10008C91981709F445C0992339F0A8019701CD
:101F20002A193B094C095D0906C0A60195012E1925
:101F30003F09400B510B57FD08C0118233822282AA
:101F400024833583468357831DC081E08183338298
:101F5000228288279927DC01821B930BA40BB50BE7
:101F600084839583A683B7830DC0220F331F441F3C
:101F7000551F24833583468357838281938101973C
:101F8000938382832481358146815781DA01C90197
:101F90000197A109B1098F5F9F4FAF4FBF4328F34E
:101FA0000BC0918333822282EA0CFB1C0C1D1D1D89
:101FB000E482F5820683178383E080832481358160
:101FC0004681578157FF1AC0C901AA2797FDA095DE
:101FD000BA2F81709070A070B07056954795379564
:101FE0002795822B932BA42BB52B84839583A683D3
:101FF000B78382819381019693838283DF0101C03D
:10200000D201CD01CDB7DEB7E2E10C940815A0E214
:10201000B0E0EDE0F0E10C94F81469837A838B83EF
:102020009C832D833E834F835887E9E0EE2EF12C6D
:10203000EC0EFD1ECE010196B7010E94E0138E0149
:102040000F5E1F4FCE010596B8010E94E0138A89EA
:1020500091E089278A8BC701B801AE01475E5F4FC7
:102060000E94BB0E0E940B13A096E6E00C94141580
:10207000A0E2B0E0EEE3F0E10C94F81469837A8317
:102080008B839C832D833E834F835887F9E0EF2E0B
:10209000F12CEC0EFD1ECE010196B7010E94E0135B
:1020A0008E010F5E1F4FCE010596B8010E94E0130E
:1020B000C701B801AE01475E5F4F0E94BB0E0E9490
:1020C0000B13A096E6E00C941415A0E2B0E0EBE64A
:1020D000F0E10C94EC1469837A838B839C832D83C9
:1020E0003E834F835887CE010196BE01675F7F4FC5
:1020F0000E94E013CE010596BE016F5E7F4F0E94E5
:10210000E0139985923088F089898230C8F0943044
:1021100019F4823051F404C0843029F4923081F4EF
:102120008EE791E0C6C0923049F420E09A858A8912
:10213000981321E02A87CE010996BBC0823049F46A
:1021400020E09A858A89981321E02A8BCE01419656
:10215000B0C02D843E844F8458886D887E888F88D7
:10216000988CEE24FF248701AA24BB24650140E05B
:1021700050E060E070E0E0E0F0E0C101817090705C
:10218000892BE9F0E60CF71C081D191D9A01AB011B
:102190002A0D3B1D4C1D5D1D80E090E0A0E0B0E0ED
:1021A000E614F7040805190520F481E090E0A0E0AA
:1021B000B0E0BA01A901480F591F6A1F7B1FAA0C82
:1021C000BB1CCC1CDD1C97FE08C081E090E0A0E0A9
:1021D000B0E0A82AB92ACA2ADB2A3196E032F105F2
:1021E00049F0660C771C881C991C569447943794C8
:1021F0002794C3CFFA85EA892B893C898B859C85F6
:10220000280F391F2E5F3F4F17C0CA018170907091
:10221000892B61F016950795F794E79480E090E09C
:10222000A0E0B0E8E82AF92A0A2B1B2B76956795DF
:10223000579547952F5F3F4F77FDE7CF0CC0440F71
:10224000551F661F771F17FD4160EE0CFF1C001F16
:10225000111F21503040403090E0590790E069074D
:1022600090E4790760F32B8F3C8FDB01CA018F77F5
:102270009070A070B07080349105A105B10561F433
:1022800047FD0AC0E114F1040105110529F0405C85
:102290005F4F6F4F7F4F40781A8EFE1711F081E02D
:1022A0008A8F4D8F5E8F6F8F78A383E0898FCE01E9
:1022B00049960E940B13A096E2E10C940815A8E140
:1022C000B0E0E5E6F1E10C94F81469837A838B833E
:1022D0009C832D833E834F83588789E0E82EF12C21
:1022E000EC0EFD1ECE010196B7010E94E0138E0197
:1022F0000F5E1F4FCE010596B8010E94E01389853D
:10230000823040F08989823028F0C701B8010E94EC
:10231000581401C08FEF6896E6E00C941415A8E1FC
:10232000B0E0E5E9F1E10C94F81469837A838B83DA
:102330009C832D833E834F83588789E0E82EF12CC0
:10234000EC0EFD1ECE010196B7010E94E0138E0136
:102350000F5E1F4FCE010596B8010E94E0138985DC
:10236000823040F08989823028F0C701B8010E948C
:10237000581401C08FEF6896E6E00C941415A8E19C
:10238000B0E0E5ECF1E10C94F81469837A838B8377
:102390009C832D833E834F83588789E0E82EF12C60
:1023A000EC0EFD1ECE010196B7010E94E0138E01D6
:1023B0000F5E1F4FCE010596B8010E94E01389857C
:1023C000823040F08989823028F0C701B8010E942C
:1023D000581401C081E06896E6E00C941415ACE056
:1023E000B0E0E5EFF1E10C94FC1469837A838B8310
:1023F0009C83CE010196BE016B5F7F4F0E94E0136C
:102400008D81823061F1823050F1843021F48E81EF
:10241000882351F12EC02F81388537FD20C06E8171
:102420002F3131051CF06623F9F023C08EE190E0D6
:10243000821B930B29853A854B855C8504C0569594
:102440004795379527958A95D2F76623B1F0509531
:102450004095309521953F4F4F4F5F4F0EC020E084
:1024600030E040E050E009C02FEF3FEF4FEF5FE773
:1024700004C020E030E040E050E8B901CA012C96E9
:10248000E2E00C941815A8E0B0E0E9E4F2E10C9465
:10249000F4147B018C01611571058105910519F416
:1024A00082E0898360C083E089838EE1C82ED12CCD
:1024B000DC82CB82ED82FE820F831887C801B701D0
:1024C0000E94BC12FC013197F7FF3BC02227332743
:1024D0002E1B3F0B57016801022E04C0D694C794EF
:1024E000B794A7940A94D2F740E050E060E070E01F
:1024F00081E090E0A0E0B0E004C0880F991FAA1F1F
:10250000BB1F2A95D2F70197A109B1098E219F21FE
:10251000A023B1230097A105B10521F041E050E0CF
:1025200060E070E04A295B296C297D294D835E8338
:102530006F8378878EE190E08E1B9F0B9C838B834B
:1025400012C0309781F00E2E04C0EE0CFF1C001F4D
:10255000111F0A94D2F7ED82FE820F831887CE1ADC
:10256000DF0ADC82CB821A82CE0101960E940B1315
:102570002896EAE00C941015EF92FF920F931F93A8
:102580007B018C0180E0E81680E0F80681E0080716
:1025900080E0180788F48FEFE816F10401051105B3
:1025A00031F028F088E090E0A0E0B0E017C080E0D3
:1025B00090E0A0E0B0E012C080E0E81680E0F8060D
:1025C00080E0080781E0180728F088E190E0A0E0AB
:1025D000B0E004C080E190E0A0E0B0E020E230E0B4
:1025E00040E050E0281B390B4A0B5B0B04C01695EA
:1025F0000795F794E7948A95D2F7F701EA57FE4FCB
:102600008081281B310941095109C9011F910F918E
:10261000FF90EF900895DF92EF92FF920F931F9338
:10262000FC01E480F58006811781D18080818230B1
:1026300048F480E090E0A0E1B0E0E82AF92A0A2B13
:102640001B2BA5C0843009F49FC0823021F4EE24F6
:10265000FF24870105C0E114F1040105110519F4F7
:10266000E0E0F0E096C0628173819FEF6238790705
:102670000CF05BC022E83FEF261B370B2A313105F7
:102680002CF020E030E040E050E02AC0B801A70183
:10269000022E04C076956795579547950A94D2F710
:1026A00081E090E0A0E0B0E004C0880F991FAA1F6D
:1026B000BB1F2A95D2F70197A109B1098E219F214D
:1026C000A023B1230097A105B10521F081E090E09E
:1026D000A0E0B0E09A01AB01282B392B4A2B5B2BF1
:1026E000DA01C9018F779070A070B07080349105C5
:1026F000A105B10539F427FF09C0205C3F4F4F4FBA
:102700005F4F04C0215C3F4F4F4F5F4FE0E0F0E070
:102710002030A0E03A07A0E04A07A0E45A0710F0F2
:10272000E1E0F0E079018A0127C06038710564F5C5
:10273000FB01E158FF4FD801C7018F779070A0705F
:10274000B07080349105A105B10539F4E7FE0DC0E4
:1027500080E490E0A0E0B0E004C08FE390E0A0E06F
:10276000B0E0E80EF91E0A1F1B1F17FF05C01695E3
:102770000795F794E794319687E016950795F794B7
:10278000E7948A95D1F705C0EE24FF248701EFEF87
:10279000F0E06E2F679566276795902F9F77D79407
:1027A000DD24D7948E2F8695492F462B582F5D29EF
:1027B000B701CA011F910F91FF90EF90DF9008952C
:1027C000FC01DB01408151812281622F6F7770E033
:1027D000221F2227221F9381892F880F822B282FC7
:1027E00030E0991F9927991F11969C9311972115F5
:1027F0003105A9F5411551056105710511F482E016
:1028000037C082E89FEF13969C938E9312979A019C
:10281000AB0167E0220F331F441F551F6A95D1F7A4
:1028200083E08C930DC0220F331F441F551F129657
:102830008D919C911397019713969C938E93129769
:10284000203080E0380780E0480780E4580758F3DC
:1028500014962D933D934D935C93179708952F3FB6
:10286000310579F4411551056105710519F484E0CC
:102870008C93089564FF03C081E08C9312C01C9276
:1028800010C02F57304013963C932E93129783E03D
:102890008C9387E0440F551F661F771F8A95D1F7E9
:1028A000706414964D935D936D937C931797089580
:1028B0001F93DC01FB019C91923008F447C080819A
:1028C000823008F443C0943051F411961C91843046
:1028D00099F58181682F70E0611B71093FC08430D8
:1028E00021F0923031F48230B9F18181882389F16D
:1028F0002DC011961C9111978230F1F0818118172B
:10290000D9F412962D913C9113978281938182176D
:10291000930794F028173907BCF014968D919D9178
:102920000D90BC91A02D24813581468157812817B7
:1029300039074A075B0718F4112341F00AC08217D0
:102940009307A407B50740F4112319F061E070E084
:1029500005C06FEF7FEF02C060E070E0CB011F9118
:102960000895991B79E004C0991F961708F0961BEB
:10297000881F7A95C9F78095089587FB082E06264B
:1029800087FD819567FD6195ECDF0EF4919507FC5D
:1029900081950895A1E21A2EAA1BBB1BFD010DC053
:1029A000AA1FBB1FEE1FFF1FA217B307E407F507FF
:1029B00020F0A21BB30BE40BF50B661F771F881FDB
:1029C000991F1A9469F760957095809590959B0171
:1029D000AC01BD01CF0108952F923F924F925F92BB
:1029E0006F927F928F929F92AF92BF92CF92DF921F
:1029F000EF92FF920F931F93CF93DF93CDB7DEB784
:102A0000CA1BDB0B0FB6F894DEBF0FBECDBF099417
:102A10002A88398848885F846E847D848C849B846E
:102A2000AA84B984C884DF80EE80FD800C811B817C
:102A3000AA81B981CE0FD11D0FB6F894DEBF0FBEAB
:0A2A4000CDBFED010895F894FFCF1B
:102A4A00526563696576696E672E2E2E0A0D0043FC
:102A5A006F6E6E6563746564210A0D007061796C2E
:102A6A006F61643A2025640A0D00526563696576D0
:102A7A00656420300A0D0053746172740A0D004CAB
:102A8A006F6F7065640A0D00616C61726D0A0D00EA
:102A9A0075700A0D00646F776E0A0D0020C3C2C1FB
:102AAA00A020C3C2C1A120C3C2C1A220C3C2C1A364
:102ABA0020C3C2C1A420C3C2C1A50501FF0F0000E3
:102ACA0000000000000000010202030303030404E3
:102ADA0004040404040405050505050505050505A2
:102AEA000505050505050606060606060606060682
:102AFA00060606060606060606060606060606066C
:102B0A000606060606060707070707070707070751
:102B1A00070707070707070707070707070707073B
:102B2A00070707070707070707070707070707072B
:102B3A00070707070707070707070707070707071B
:102B4A000707070707070808080808080808080801
:102B5A0008080808080808080808080808080808EB
:102B6A0008080808080808080808080808080808DB
:102B7A0008080808080808080808080808080808CB
:102B8A0008080808080808080808080808080808BB
:102B9A0008080808080808080808080808080808AB
:102BAA00080808080808080808080808080808089B
:102BBA00080808080808080808080808080808088B
:062BCA00080808080808D5
:00000001FF
