:100000000C9439000C9458000C9456000C94560033
:100010000C9456000C9456000C9456000C94560008
:100020000C9456000C9456000C9456000C947500D9
:100030000C9456000C9456000C9456000C945600E8
:100040000C9456000C9456000C9456000C945600D8
:100050000C9456000C9456000C9456000C945600C8
:100060000C9456000C9456003F065B4F666D7D075E
:100070007F6F11241FBECFEFD8E0DEBFCDBF12E0EF
:10008000A0E0B1E0E0EEF8E202C005900D92AE3DD6
:10009000B107D9F712E0AEEDB2E001C01D92AA3F60
:1000A000B107E1F70E9470010C946E140C940000EB
:1000B0001F920F920FB60F9211248F9381E08093BD
:1000C000DE028F910F900FBE0F901F901895E9E6FA
:1000D000F0E080818260808380818E7F8083EDE389
:1000E000F0E080818160808308951F920F920FB6A7
:1000F0000F9211248F9381E08093DF028F910F90F4
:100100000FBE0F901F901895A1E8B0E02C912860C9
:100110002C93EFE6F0E02081226020839093890009
:10012000809388008C9185608C930895AAE2B0E05A
:100130008C9180618C938C9180628C938C91806483
:100140008C93E4E2F0E080818D7F808380818B7FDF
:100150008083E7E2F0E080818E7F808380818D7FE5
:100160008083E5E2F0E0808182608083808184602A
:100170008083E8E2F0E0808181608083808182601A
:1001800080838C918B7F8C93EBE2F0E080818460A4
:1001900080830E94670089E09DE30E948400789438
:1001A0000895FF920F931F93DF93CF9300D0CDB7A5
:1001B000DEB78AEA89831A82EBE2F0E0808180640C
:1001C000808380E061E00E94C007FF248E010F5F02
:1001D0001F4FC80161E041E00E94C2038823C9F3B8
:1001E0000E94DD068823E1F38091DF02882389F3F2
:1001F0001092DF02F39485E0F81659F700D000D092
:10020000EDB7FEB7319680E091E0918380838981DC
:10021000828313820E94CC08EBE2F0E080818F7B26
:1002200080830F900F900F900F9081E061E00E940B
:10023000C007FF248E010E5F1F4FC80161E00E94BE
:100240008406823051F48091DF028823B1F310924A
:10025000DF02F394E5E0FE1681F72A8189812817F1
:1002600069F400D08BE091E0EDB7FEB79283818313
:100270000E94CC0880E00F900F9012C000D000D0F8
:10028000EDB7FEB7319688E191E0918380832283B8
:1002900013820E94CC0881E00F900F900F900F9076
:1002A0000F900F90CF91DF911F910F91FF900895C4
:1002B000FF920F931F9300E010E0FF24F3940E943D
:1002C000D100882331F01F5F153011F00F2DF7CFCB
:1002D00001E0802F011181E01F910F91FF9008959F
:1002E0002F923F924F925F926F927F928F929F9246
:1002F000AF92BF92CF92DF92EF92FF920F931F9334
:10030000DF93CF930F92CDB7DEB70E94730A0E949E
:1003100096000F2EFBE2EF2EFF24F02D0F2EF7E8B4
:100320006F2EF1E07F2EF02D0F2EF9E94F2EF1E028
:100330005F2EF02D00E86E010894C11CD11C0F2E19
:10034000FCEA2F2EF1E03F2EF02D8091DE0281306D
:1003500009F0F9C000D087E391E0EDB7FEB79283D2
:1003600081830E94CC080F900F900E9496000E94FB
:100370007A0D0E94A80D9C019AE0203F390720F4D5
:10038000F70180818061808300D000D0EDB7FEB797
:1003900031968CE391E091838083338322830E94A2
:1003A000CC080F900F900F900F900E945801882357
:1003B00039F01092DE02F70180818F7B8083C5CFF8
:1003C000F70180818064808310E00F2EF6E28F2E8B
:1003D0009924F02D0F2EF3E2AF2EBB24F02D809147
:1003E000DF028823A1F01092DF021F5F00D000D04F
:1003F000EDB7FEB731968AE491E091838083128352
:1004000013820E94CC080F900F900F900F900983D9
:10041000F401808180FD10C000D088E591E0EDB747
:10042000FEB7928381830E94CC0889818061898391
:1004300010E00F900F9013C0F401808181FD0FC078
:1004400000D082E691E0EDB7FEB7928381830E94EF
:10045000CC0889818860898310E00F900F90F501A6
:10046000808181FD14C000D08CE691E0EDB7FEB72D
:10047000928381830E94CC08898180648983F701FB
:1004800080818062808310E00F900F902AC0F50178
:10049000808182FD14C000D086E791E0EDB7FEB701
:1004A000928381830E94CC08898180628983F701CD
:1004B00080818062808310E00F900F9012C000D086
:1004C00080E891E0EDB7FEB7928381830E94CC086B
:1004D00089818F778983F70180818F7D80830F9059
:1004E0000F9000D000D0EDB7FEB7319671826082D8
:1004F0008981828313820E94CC080F900F900F9005
:100500000F9080E061E00E94C007C60161E041E019
:100510000E94C2038823C9F30E94DD068823E1F309
:1005200000D0EDB7FEB7528241820E94CC080F90F6
:100530000F901A3008F453CF1092DE02F701808139
:100540008F7B808302CF00D0EDB7FEB7328221824D
:100550000E94CC080F900F90F8CEAF92BF92CF922E
:10056000DF92EF92FF920F931F930E948E115B0117
:100570006C0120E030E04AE755E40E94B00F7B01B7
:100580008C0120E030E040E85FE30E940A118823FC
:100590001CF461E070E023C0C801B70120E03FEF28
:1005A0004FE757E40E94AA101816ACF4C601B50133
:1005B00020E030E040E251E40E94B00F0E94DA0DEA
:1005C000CB01672B79F020E931E0F9013197F1F7A0
:1005D0000197D9F707C0C801B7010E94DA0DCB0116
:1005E0000197F1F71F910F91FF90EF90DF90CF905F
:1005F000BF90AF900895E4E2F0E080818460808352
:1006000080818860808380818062808380818F7E0A
:10061000808380818D7F8083E5E2F0E0808182604D
:10062000808381E58CBD0895882331F4E5E2F0E014
:1006300080818E7F80830895E5E2F0E08081816093
:10064000808308958EBDEDE4F0E080818823ECF78F
:100650008EB50895813031F4EBE2F0E0808180685E
:1006600080830895EBE2F0E080818F7780830895A6
:10067000EAE2F0E0808180688083E4E2F0E080815B
:1006800081608083E5E2F0E080818160808381E0A9
:100690000E942A0308950F931F93CF93DF93EC01D9
:1006A000062F80E00E9414038091D201813021F452
:1006B00080EB8093E20203C080EA8093E2028091A3
:1006C000E2020E942203002341F01991812F0E942F
:1006D00022030150D1F71093E20281E00E9414033B
:1006E000DF91CF911F910F910895882399F0813068
:1006F00011F58091D1018330F1F480E00E94140360
:1007000081EE8093E2020E94220381E00E941403A2
:1007100081E008958091D101843069F480E00E94E5
:10072000140382EE8093E2020E94220381E00E9481
:10073000140381E0089580E00895FF920F931F93C2
:10074000CF93DF93182FEB01042FF22E80E00E944D
:100750001403812F0E9422038FEF8093E202002373
:1007600031F08FEF0E94220389930150D1F7FF20CF
:1007700019F481E00E941403DF91CF911F910F9132
:10078000FF9008950F931F93CF93DF93EC01062FF3
:10079000142F87E063EE72E041E020E00E949D03A9
:1007A0008091E30285FD12C08091D101833071F404
:1007B0001093D2018091E002813011F40091E702A0
:1007C000CE01602F0E944B0381E001C080E0DF91E9
:1007D000CF911F910F910895FF920F931F93CF9385
:1007E000DF93182FEB01042FF22E80E00E941403F8
:1007F00010621093E202812F0E942203002341F035
:100800001991812F0E9422030150D1F71093E20227
:10081000FF2019F481E00E941403DF91CF911F9112
:100820000F91FF9008951F93182F80E063EE72E000
:1008300041E020E00E949D03123061F1133030F45A
:10084000112351F0113009F054C015C0133091F14B
:10085000143009F04EC03EC080E00E942A0380910F
:10086000E3028D7F8093E40262E070E080E090E03C
:100870000E94AD024CC080E00E942A038091E302F6
:1008800082608093E40262E070E080E090E00E9489
:10089000AD023DC081E00E942A038091E3028C7F7B
:1008A00082608093E40262E070E080E090E00E9469
:1008B000AD022DC081E00E942A038091E3028C7F6B
:1008C00082608093E40262E070E080E090E00E9449
:1008D000AD021DC081E00E942A038091E302836083
:1008E0008093E40262E070E080E090E00E94AD025C
:1008F0000EC080E00E942A038091E3028D7F8093E6
:10090000E40262E070E080E090E00E94AD0280E0EE
:1009100064EE72E041E020E00E94EC031093D1010C
:100920001F9108950F931F93182F062F80E063EEF9
:1009300072E041E020E00E949D03112331F080919C
:10094000E30288608093E40205C08091E402877F1F
:100950008093E402023031F48091E4028460809359
:10096000E40205C08091E4028B7F8093E40280E082
:1009700064EE72E041E020E00E94EC031F910F91D1
:100980000895FF920F931F93182F062FF42E80E0E7
:1009900063EE72E041E020E00E949D03112331F0FC
:1009A0008091E30280648093E40205C08091E402B8
:1009B0008F7B8093E402002331F08091E402806217
:1009C0008093E40205C08091E4028F7D8093E4026D
:1009D000FF2031F08091E40280618093E40205C041
:1009E0008091E4028F7E8093E40280E064EE72E006
:1009F00041E020E00E94EC031F910F91FF900895C9
:100A0000DF93CF930F92CDB7DEB7982F81508D37FC
:100A100050F4998385E0BE016F5F7F4F41E020E095
:100A20000E94EC030AC081E0898385E0BE016F5F0C
:100A30007F4F41E020E00E94EC030F90CF91DF91C7
:100A400008951F93182F86E063EE72E041E020E0E6
:100A50000E949D038091E302897F8093E302163018
:100A600071F0173018F4112331F014C01C3059F014
:100A7000123181F40CC086608093E4020EC0846061
:100A80008093E4020AC082608093E40206C08093EF
:100A9000E40203C084608093E40286E064EE72E0C6
:100AA00041E020E00E94EC031F910895CF93DF9373
:100AB000EC0186E063EE72E041E020E00E949D03DD
:100AC0008091E302877D8093E30293E0C83ED907DB
:100AD00061F097E0C03DD90721F0CA3FD10561F42C
:100AE00007C088608093E40209C08093E40206C0D6
:100AF00080628093E40202C08093E40286E064EEA8
:100B000072E041E020E00E94EC03DF91CF91089574
:100B10001F93182F8350833020F48F5F8093E5025A
:100B200003C083E08093E50283E065EE72E041E07C
:100B300020E00E94EC031093E6021F91089521E04B
:100B400030E002C0220F331F8A95E2F72150209334
:100B5000E40282E064EE72E041E020E00E94EC03F7
:100B60000895EF92FF920F931F93DF93CF930F920D
:100B7000CDB7DEB78983062F662371F011E17E01C0
:100B80000894E11CF11C812FB70141E020E00E9494
:100B9000EC031F5F0150B9F789818093E7020F9042
:100BA000CF91DF911F910F91FF90EF9008950F93D8
:100BB0001F93CF93DF930091E602C3EBD1E01AE0DD
:100BC000812FBE01402F20E00E94EC031F5F25967D
:100BD0001031B1F7DF91CF911F910F91089595E0FA
:100BE000899FB001112462557E4F80E14091E60259
:100BF00020E00E94EC030895282F873050F481E014
:100C000090E002C0880F991F2A95E2F781508093E7
:100C1000E40281E064EE72E041E020E00E94EC0337
:100C200008950F931F93182F062F862F0E94FC05FF
:100C30008DE163EE72E041E020E00E949D031130FF
:100C400019F58091E30284608093E4028DE164EE03
:100C500072E041E020E00E94EC03073050F481E0B4
:100C600090E002C0880F991F0A95E2F781508093A7
:100C7000E4028CE164EE72E041E020E00E94EC03CB
:100C800081E08093E0020EC08091E3028B7F80932D
:100C9000E4028DE164EE72E041E020E00E94EC03AA
:100CA0001092E0021F910F910895462F1092E402D6
:100CB0008B3F910588F031E08A5F90408B3F910532
:100CC00048F0232F2F5F203111F0322FF5CF3093D2
:100CD000E40202C03093E4028091E402682F62953E
:100CE000607F842F81508F3028F4842F862B80934F
:100CF000E40202C06093E40284E064EE72E041E04A
:100D000020E00E94EC0308951F93CF93DF93EC0142
:100D1000162F8091D101843011F080E04AC087E025
:100D200063EE72E041E020E00E949D038091E302C7
:100D300086FD02C082E03DC08091E002882311F46C
:100D40001091E70280E00E94140381E68093E202A2
:100D50000E942203112349F08FEF0E9422038993FE
:100D60001150D1F78FEF8093E20281E00E941403CB
:100D700087E163EE72E041E020E00E949D038091F4
:100D8000E30280FD02C081E014C087E063EE72E000
:100D900041E020E00E949D038091E3028064809303
:100DA000E40287E064EE72E041E020E00E94EC03A0
:100DB00081E0DF91CF911F91089587E063EE72E0AB
:100DC00041E020E00E949D038091E30285FF09C07D
:100DD00087E063EE72E041E020E00E94EC0381E0F6
:100DE000089584FD02C080E0089587E063EE72E01C
:100DF00041E020E00E94EC038FEF08958130A1F4E0
:100E00008DE163EE72E041E020E00E949D0380915D
:100E1000E30281608093E4028DE164EE72E041E0E0
:100E200020E00E94EC0308958DE163EE72E041E062
:100E300020E00E949D038091E3028E7F8093E40274
:100E40008DE164EE72E041E020E00E94EC03089541
:100E5000FF920F931F9381E08093E10280E00E9454
:100E60002A0388E08093E40204EE12E080E0B801F7
:100E700041E020E00E94EC038FE38093E40281E0F4
:100E8000B80141E020E00E94EC031092E40282E00D
:100E9000B80141E020E00E94EC0383E08093E4028B
:100EA000B80141E020E00E94EC0382E08093E4027C
:100EB00085E0B80141E020E00E94EC030F2EFEE047
:100EC000FF2EF02DF092E40286E0B80141E020E030
:100ED0000E94EC03F092E40287E0B80141E020E0D8
:100EE0000E94EC0383E00E94130481E00E947503DA
:100EF00084E00E94130480E00E94750387E063EEA3
:100F000072E041E020E00E949D038091E30280674F
:100F10008093E40287E0B80141E020E00E94EC0306
:100F200081E061E041E00E94C10481E061E00E9453
:100F3000920485E00E94880588EE93E00E945605A1
:100F400086E00E94210580E20E94000581E00E9467
:100F50009F0581E061E00E94B10584EF91E06AE0C5
:100F60000E94550681E00E94FC0580E061E00E943D
:100F7000110681E00E94FE061F910F91FF900895D7
:100F80000F931F93082F162F0E94FB020E94380315
:100F900066E970E080E090E00E94AD02113021F03F
:100FA0008091E102882311F40E942807013099F012
:100FB000013028F0023009F10330A1F52AC080E0A9
:100FC0000E94130481E060E040E00E94C10483E0DD
:100FD0000E9413042FC080E00E94130480E061E0AF
:100FE00041E00E94C10484E00E94130464E670E0C2
:100FF00080E090E00E94AD021DC080E00E941304DA
:1010000081E061E041E00E94C10481E00E9413049C
:1010100011C080E00E94130481E061E041E00E9481
:10102000C10408C080E00E94130481E061E041E057
:101030000E94C1041F910F910895E091E802F09180
:10104000E9028193F093E902E093E8020895982F72
:101050008A3014F480E307C08091F802882311F4E9
:1010600087E501C087E3890F0E941D0881E0809316
:10107000F9020895AC018091F6029091F70284176D
:10108000950710F4E0E017C066277727641B750BFF
:101090009C01241B350BE0E0EF5FF22FA32F260FFE
:1010A000371FC901840F951F84179507A8F7F09380
:1010B000F602A093F7028091F902882311F4EE233F
:1010C00019F08E2F0E9427080895EF92FF920F9338
:1010D0001F930F2EF0E3EF2EF02D0F2EF0E3FF2ED7
:1010E000F02D00E30E948C0A182F0E94800A1D3008
:1010F00021F0EF2CF02E012FF5CF802F805D24E61C
:101100009E2D920290011124820F2AE09F2D9202BF
:1011100090011124820F1F910F91FF90EF9008957D
:10112000EF92FF920F931F93CF93DF937C0170E0B8
:10113000EB0121971C161D0614F000E012C000E020
:101140000E948C0A182F0E94800A1D3051F0F7016E
:10115000E00FF11D10830F5F802F90E08C179D072B
:101160007CF3F701E00FF11D1082DF91CF911F9109
:101170000F91FF90EF900895CF93DF93FC01808152
:10118000882339F0EF010E94890A898121968823FA
:10119000D1F7DF91CF9108952F923F924F925F92B6
:1011A0006F927F928F929F92AF92BF92CF92DF9277
:1011B000EF92FF920F931F93DF93CF93CDB7DEB7DC
:1011C0000F2EF5E1EF2EFF24F02DEC0EFD1EF701A2
:1011D000C190D1907F010F2EFAEE6F2EF2E07F2E9C
:1011E000F02D0F2EF0E34F2EF02D842C5524689413
:1011F00055F80F2EF6EF2F2EF2E03F2EF02D5BC1AB
:101200000894C11CD11C853221F00E94890A570123
:1012100051C1F60111916F01103311F0992404C0EE
:1012200011916F0199249394912F812F80538A30CB
:1012300010F000E012C000E0892F8053902F990F2A
:10124000990F900F990F082F090FF60111916F0157
:10125000912F812F80538A3078F37092E902609247
:10126000E8021092F902133609F4C2C014369CF455
:10127000183509F451C019355CF4123409F478C0FA
:101280001334ACF4112309F41BC1153281F4C6C028
:10129000123669F46DC0133709F4B6C014371CF464
:1012A000143629F407C0153729F01837A9F157016A
:1012B000D301B9C0F701208131812093F602309328
:1012C000F702143669F433235CF488279927821BCC
:1012D000930B9093F7028093F6028DE20E941D0813
:1012E000AA24BB246894A1F8AE0CBF1C80E197E24D
:1012F0000E943A0888EE93E00E943A0884E690E063
:101300000E943A088AE090E00E943A08F101808148
:101310000E942708D30187C0842D0E941D0888E7FA
:101320000E941D081092F802183519F4F1E0F093AC
:10133000F802AA24BB246894A1F8AE0CBF1CF701E4
:10134000808191819093F7028093F60280E090E192
:101350000E943A0880E091E00E943A0880E190E023
:101360000E943A08F10180810E942708D3015BC0E6
:10137000842D0E941D0882E60E941D081092F8022A
:10138000123419F4F1E0F093F802AA24BB24689413
:10139000A1F8AE0CBF1CF7018081918190709093F1
:1013A000F7028093F602F1E0F093F90280E890E012
:1013B0000E943A0880E490E00E943A0880E290E0BF
:1013C0000E943A0880E190E00E943A0888E090E0AC
:1013D0000E943A0884E090E00E943A0882E090E09F
:1013E0000E943A08F10180810E942708D3011BC0A6
:1013F000AA24BB246894A1F8AE0CBF1CF70180811D
:101400000E941D08D3010FC0AA24BB246894A1F830
:10141000AE0CBF1CF701A081B18105C085E20E941E
:101420001D085701D301E091E802F091E902108212
:10143000B093E902A093E802FD0181917F01F0934E
:10144000E902E093E802882389F010163CF5015088
:10145000E091E802F091E9028191F093E902E093D2
:10146000E802882319F0101694F318C01016B4F48B
:101470008C918D3211F07D0103C08DE20E94890AAA
:10148000102F1150992011F4852D01C0882D0E9434
:10149000890A111614F41150F5CFD7018C918823C5
:1014A00049F08D010E94890AF80181810F5F1F4F69
:1014B0008823C1F77501F6018081882309F0A0CE49
:1014C000CF91DF911F910F91FF90EF90DF90CF9020
:1014D000BF90AF909F908F907F906F905F904F9054
:1014E0003F902F90089587E690E09093C5008093F9
:1014F000C40088E18093C10086E08093C200089513
:10150000982FE0ECF0E0808185FFFDCF9093C6003E
:1015100008950E94800A0895E0ECF0E0808188231D
:10152000ECF78091C6000895EAE2F0E080818061E6
:10153000808380818062808380818064808308953D
:10154000EBE2F0E080818F7D808380818064808306
:101550000895EBE2F0E080818062808380818F7B60
:1015600080830895EBE2F0E080818F7E8083089590
:10157000EBE2F0E08081806180830895282F30E0E5
:1015800020773070A901440F551F220F331F220FFF
:10159000331F220F331F420F531F55954795559503
:1015A000479555954795559547958F70840F0895A4
:1015B000E82FF0E040E050E08E2F6AE00E94FC133C
:1015C000292F8E2F6AE00E94FC13E82F332727FD76
:1015D0003095042E02C0220F331F0A94E2F7F22B3B
:1015E0004C5F5F4F4031510539F78F2F08951F939E
:1015F000CF93DF93182FEB010E94540D80ED0E94D2
:10160000620D113021F08BE00E94620D08C087E06E
:101610000E94620D88810E94D80A0E94620D898111
:101620000E94D80A0E94620D8A810E94D80A0E94F4
:10163000620D80E80E94620D0E945E0DDF91CF91E5
:101640001F9108950F931F938C010E94540D80EDFC
:101650000E94620D80E00E94620DF80180810E946C
:10166000D80A0E94620DF80181810E94D80A0E9466
:10167000620DF80182810E94D80A0E94620D0E94C8
:101680005E0D1F910F9108951F930E94540D80EDE0
:101690000E94620D8EE00E94620D0E945E0D0E940B
:1016A000540D81ED0E94620D0E946A0D182F0E9458
:1016B0005E0D812F1F9108951F930E94440B182FD8
:1016C0000E94540D80ED0E94620D8EE00E94620D1A
:1016D000812F867F0E94620D0E945E0D1F910895EA
:1016E0001F930E94540D80ED0E94620D8FE00E94B6
:1016F000620D0E945E0D0E94540D81ED0E94620DEC
:101700000E946A0D182F0E945E0D812F1F9108956F
:101710001F93813029F40E94700B182F1E7F04C084
:101720000E94700B182F1D7F0E94540D80ED0E94A7
:10173000620D8FE00E94620D812F0E94620D0E9457
:101740005E0D1F9108950F931F930E94440B182F55
:101750000E94700B082F0E94540D80ED0E94620DB4
:101760008EE00E94620D812F87600E94620D0E94B0
:101770005E0D0E94540D80ED0E94620D8FE00E946C
:10178000620D802F87770E94620D0E945E0D1F916F
:101790000F9108951F93CF93DF93182FEB010E94B1
:1017A000540D80ED0E94620D113059F08BE00E94C3
:1017B000620D0E945E0D0E94540D81ED0E94620D2B
:1017C0000FC087E00E94620D0E945E0D0E94540DC2
:1017D00081ED0E94620D0E946A0D0E94BE0A8883FC
:1017E0000E946A0D0E94BE0A89830E946A0D0E94AF
:1017F000BE0A8A830E945E0DDF91CF911F910895EA
:101800000F931F938C010E94540D80ED0E94620D76
:1018100080E00E94620D0E945E0D0E94540D81EDD9
:101820000E94620D0E946A0D0E94BE0AF801808328
:101830000E946A0D0E94BE0AF80181830E946A0D0F
:101840000E94BE0AF80182830E945E0D1F910F91D3
:1018500008958AE18A95F1F70895E7E2F0E0808142
:10186000836080830895E7E2F0E080818C7F80834D
:1018700008950F931F930E942D0C08E210E0F801C9
:101880008081816080838081826080830E94290CB6
:10189000F80180818E7F80831F910F9108950F93AF
:1018A0001F9308E210E0F80180818D7F80830E9401
:1018B000290CF80180818E7F80830E94290CF80119
:1018C0008081826080830E94290CF8018081816080
:1018D00080830E94330C1F910F910895FF920F9304
:1018E0001F93CF93DF93182F00E0C8E2D0E08881E8
:1018F0008D7F88830E94290C10FF04C0888181603D
:10190000888303C088818E7F8883888182608883F2
:101910000E94290C0F5F083011F01695E8CFE8E21D
:10192000F0E080818D7F8083A7E2B0E08C918E7F94
:101930008C938081816080830E94290CFF24309BDE
:1019400002C0FF24F394FF2051F0E7E2F0E0808131
:1019500081608083E8E2F0E080818E7F80830E9456
:10196000290C08E210E0F8018081826080830E94E7
:10197000290CF80180818D7F80830E94290CE7E289
:10198000F0E08081816080838F2DDF91CF911F9166
:101990000F91FF9008951F93182F0E94390C812FEB
:1019A0000E946E0C0E944F0C1F910895811188E0D7
:1019B000683008F067E0862B8093D40180680E942D
:1019C000CB0C08959091D401682F6770892F88708F
:1019D0000E94D60C08956091D40167700E94D60CC5
:1019E00008950E94D60C08950F931F93182F062F69
:1019F00084E40E94CB0C0E94390C1370812F806C00
:101A00000E946E0C802F0E946E0C0E944F0C1F9142
:101A10000F91089580E060E00E94F40C81E060E0A6
:101A20000E94F40C82E060E00E94F40C83E060E02D
:101A30000E94F40C0895882331F08091D3018068CE
:101A40008093D30105C08091D3018F778093D30118
:101A500081E06091D3010E94F40C0895982F6A30C0
:101A600010F060E005C0E8E6F0E0E60FF11D6491DB
:101A7000913031F48091D3018078682B6093D30149
:101A8000892F0E94F40C08958FEF8093B800089579
:101A9000ECEBF0E080818B7F80830895ECEBF0E04D
:101AA00080818823ECF70895ECEBF0E080818B7F58
:101AB000808384EA80830E944E0D089584E9809398
:101AC000BC0008958093BB0084E88093BC000E9412
:101AD0004E0D089584EC8093BC000E944E0D8091C1
:101AE000BB00089584E88093BC000E944E0D809155
:101AF000BB000895ECE7F0E080818E648083EAE724
:101B0000F0E0808187608083808180688083089591
:101B1000AB01BC01EAE7F0E08081806480838081D2
:101B200086FDFDCF2091780030917900CB01BA017C
:101B3000052E5AE0660F771F881F991F5A95D1F717
:101B4000502D40E050E00E940914822F932F0895F9
:101B5000DF92EF92FF920F931F93CF93DF93EE24C8
:101B6000FF248701DD24C0E2DEE461EE73E080E063
:101B700090E00E94880DA0E0B0E0E80EF91E0A1F78
:101B80001B1FCE010197F1F7D39484E1D81669F7B2
:101B9000C801B70124E130E040E050E00E940914A0
:101BA000822F932FDF91CF911F910F91FF90EF9094
:101BB000DF900895EF92FF920F931F937B018C01AA
:101BC00020E030E040E05FE40E94DA1088238CF0EF
:101BD000C801B70120E030E040E05FE40E94520F0E
:101BE0000E943A119B01AC012050304040405048C7
:101BF00006C0C801B7010E943A119B01AC01B901AE
:101C0000CA011F910F91FF90EF900895A0E0B0E0FE
:101C1000ECE0FEE00C943714DC012B01FA019C91FE
:101C2000923008F439C1EB018881823008F433C165
:101C3000943069F4843009F02FC111969C9111976A
:101C40008981981709F428C1A5EDB1E025C1843038
:101C500009F421C18230A9F4923009F01DC19A0122
:101C6000AD0188E0EA010990AE01E90109929E0107
:101C70008150C1F7E201898111969C91892381836A
:101C800008C1923009F407C112962D903C90139729
:101C9000EB018A819B811496AD90BD90CD90DC9034
:101CA0001797EC80FD800E811F819101281B390B55
:101CB000B90137FF04C066277727621B730B6032B8
:101CC00071050CF061C0121613066CF5370148015E
:101CD000062E04C096948794779467940A94D2F75A
:101CE00021E030E040E050E004C0220F331F441FE9
:101CF000551F6A95D2F721503040404050402E2168
:101D00003F2140235123211531054105510521F083
:101D100021E030E040E050E079018A01E628F72830
:101D2000082919293CC0232BD1F1260E371E350175
:101D30004601062E04C096948794779467940A947B
:101D4000D2F721E030E040E050E004C0220F331F22
:101D5000441F551F6A95D2F72150304040405040F3
:101D60002A213B214C215D212115310541055105D9
:101D700021F021E030E040E050E059016A01A6285E
:101D8000B728C828D9280BC0821593052CF01C0150
:101D9000AA24BB24650103C0EE24FF248701119609
:101DA0009C91D20111968C91981709F445C0992302
:101DB00039F0A80197012A193B094C095D0906C0B1
:101DC000A60195012E193F09400B510B57FD08C084
:101DD00011823382228224833583468357831DC038
:101DE00081E081833382228288279927DC01821B4C
:101DF000930BA40BB50B84839583A683B7830DC087
:101E0000220F331F441F551F248335834683578376
:101E100082819381019793838283248135814681D6
:101E20005781DA01C9010197A109B1098F5F9F4F5D
:101E3000AF4FBF4328F30BC0918333822282EA0C59
:101E4000FB1C0C1D1D1DE482F5820683178383E0B5
:101E50008083248135814681578157FF1AC0C9018B
:101E6000AA2797FDA095BA2F81709070A070B070CE
:101E70005695479537952795822B932BA42BB52BF9
:101E800084839583A683B78382819381019693830C
:101E90008283DF0101C0D201CD01CDB7DEB7E2E11F
:101EA0000C945314A0E2B0E0E8E5FFE00C94431476
:101EB00069837A838B839C832D833E834F835887EA
:101EC000E9E0EE2EF12CEC0EFD1ECE010196B701DD
:101ED0000E942B138E010F5E1F4FCE010596B80195
:101EE0000E942B138A8991E089278A8BC701B80148
:101EF000AE01475E5F4F0E94060E0E945612A096EA
:101F0000E6E00C945F14A0E2B0E0E9E8FFE00C9496
:101F1000431469837A838B839C832D833E834F8311
:101F20005887F9E0EF2EF12CEC0EFD1ECE01019644
:101F3000B7010E942B138E010F5E1F4FCE01059635
:101F4000B8010E942B13C701B801AE01475E5F4F75
:101F50000E94060E0E945612A096E6E00C945F14B2
:101F6000A0E2B0E0E6EBFFE00C94371469837A83DB
:101F70008B839C832D833E834F835887CE010196AC
:101F8000BE01675F7F4F0E942B13CE010596BE01F5
:101F90006F5E7F4F0E942B139985923088F089895C
:101FA0008230C8F0943019F4823051F404C0843087
:101FB00029F4923081F485ED91E0C6C0923049F465
:101FC00020E09A858A89981321E02A87CE01099614
:101FD000BBC0823049F420E09A858A89981321E0B9
:101FE0002A8BCE014196B0C02D843E844F84588800
:101FF0006D887E888F88988CEE24FF248701AA2420
:10200000BB24650140E050E060E070E0E0E0F0E01B
:10201000C10181709070892BE9F0E60CF71C081D56
:10202000191D9A01AB012A0D3B1D4C1D5D1D80E061
:1020300090E0A0E0B0E0E614F7040805190520F4EC
:1020400081E090E0A0E0B0E0BA01A901480F591F7B
:102050006A1F7B1FAA0CBB1CCC1CDD1C97FE08C092
:1020600081E090E0A0E0B0E0A82AB92ACA2ADB2AE1
:102070003196E032F10549F0660C771C881C991CFA
:102080005694479437942794C3CFFA85EA892B89CD
:102090003C898B859C85280F391F2E5F3F4F17C0C9
:1020A000CA0181709070892B61F016950795F7949D
:1020B000E79480E090E0A0E0B0E8E82AF92A0A2B53
:1020C0001B2B76956795579547952F5F3F4F77FD6B
:1020D000E7CF0CC0440F551F661F771F17FD4160E7
:1020E000EE0CFF1C001F111F21503040403090E0CB
:1020F000590790E0690790E4790760F32B8F3C8FD4
:10210000DB01CA018F779070A070B07080349105A8
:10211000A105B10561F447FD0AC0E114F104010510
:10212000110529F0405C5F4F6F4F7F4F40781A8E4A
:10213000FE1711F081E08A8F4D8F5E8F6F8F78A32D
:1021400083E0898FCE0149960E945612A096E2E163
:102150000C945314A8E1B0E0E0EBF0E10C944314CC
:1021600069837A838B839C832D833E834F83588737
:1021700089E0E82EF12CEC0EFD1ECE010196B70190
:102180000E942B138E010F5E1F4FCE010596B801E2
:102190000E942B138985823040F08989823028F093
:1021A000C701B8010E94A31301C08FEF6896E6E053
:1021B0000C945F14A8E1B0E0E0EEF0E10C9443145D
:1021C00069837A838B839C832D833E834F835887D7
:1021D00089E0E82EF12CEC0EFD1ECE010196B70130
:1021E0000E942B138E010F5E1F4FCE010596B80182
:1021F0000E942B138985823040F08989823028F033
:10220000C701B8010E94A31301C08FEF6896E6E0F2
:102210000C945F14A8E1B0E0E0E1F1E10C94431408
:1022200069837A838B839C832D833E834F83588776
:1022300089E0E82EF12CEC0EFD1ECE010196B701CF
:102240000E942B138E010F5E1F4FCE010596B80121
:102250000E942B138985823040F08989823028F0D2
:10226000C701B8010E94A31301C081E06896E6E0AF
:102270000C945F14ACE0B0E0E0E4F1E10C9447149E
:1022800069837A838B839C83CE010196BE016B5F49
:102290007F4F0E942B138D81823061F1823050F18B
:1022A000843021F48E81882351F12EC02F8138850E
:1022B00037FD20C06E812F3131051CF06623F9F007
:1022C00023C08EE190E0821B930B29853A854B85D4
:1022D0005C8504C056954795379527958A95D2F722
:1022E0006623B1F050954095309521953F4F4F4F63
:1022F0005F4F0EC020E030E040E050E009C02FEF1B
:102300003FEF4FEF5FE704C020E030E040E050E8EF
:10231000B901CA012C96E2E00C946314A8E0B0E085
:10232000E4E9F1E10C943F147B018C016115710526
:102330008105910519F482E0898360C083E0898377
:102340008EE1C82ED12CDC82CB82ED82FE820F83FF
:102350001887C801B7010E940712FC013197F7FFE7
:102360003BC0222733272E1B3F0B57016801022E4B
:1023700004C0D694C794B794A7940A94D2F740E0C7
:1023800050E060E070E081E090E0A0E0B0E004C0E8
:10239000880F991FAA1FBB1F2A95D2F70197A10981
:1023A000B1098E219F21A023B1230097A105B1057A
:1023B00021F041E050E060E070E04A295B296C299F
:1023C0007D294D835E836F8378878EE190E08E1B3D
:1023D0009F0B9C838B8312C0309781F00E2E04C01C
:1023E000EE0CFF1C001F111F0A94D2F7ED82FE8233
:1023F0000F831887CE1ADF0ADC82CB821A82CE01C5
:1024000001960E9456122896EAE00C945B14EF9213
:10241000FF920F931F937B018C0180E0E81680E010
:10242000F80681E0080780E0180788F48FEFE816C7
:10243000F1040105110531F028F088E090E0A0E0FA
:10244000B0E017C080E090E0A0E0B0E012C080E013
:10245000E81680E0F80680E0080781E0180728F019
:1024600088E190E0A0E0B0E004C080E190E0A0E06E
:10247000B0E020E230E040E050E0281B390B4A0B8E
:102480005B0B04C016950795F794E7948A95D2F7ED
:10249000F701E352FE4F8081281B310941095109A0
:1024A000C9011F910F91FF90EF900895DF92EF9275
:1024B000FF920F931F93FC01E480F5800681178142
:1024C000D1808081823048F480E090E0A0E1B0E0EB
:1024D000E82AF92A0A2B1B2BA5C0843009F49FC0D7
:1024E000823021F4EE24FF24870105C0E114F104B9
:1024F0000105110519F4E0E0F0E096C062817381F6
:102500009FEF623879070CF05BC022E83FEF261B93
:10251000370B2A3131052CF020E030E040E050E06C
:102520002AC0B801A701022E04C076956795579579
:1025300047950A94D2F781E090E0A0E0B0E004C0B3
:10254000880F991FAA1FBB1F2A95D2F70197A109CF
:10255000B1098E219F21A023B1230097A105B105C8
:1025600021F081E090E0A0E0B0E09A01AB01282BDF
:10257000392B4A2B5B2BDA01C9018F779070A07041
:10258000B07080349105A105B10539F427FF09C069
:10259000205C3F4F4F4F5F4F04C0215C3F4F4F4F78
:1025A0005F4FE0E0F0E02030A0E03A07A0E04A070B
:1025B000A0E45A0710F0E1E0F0E079018A0127C0B9
:1025C0006038710564F5FB01E158FF4FD801C70180
:1025D0008F779070A070B07080349105A105B1051F
:1025E00039F4E7FE0DC080E490E0A0E0B0E004C064
:1025F0008FE390E0A0E0B0E0E80EF91E0A1F1B1F79
:1026000017FF05C016950795F794E794319687E074
:1026100016950795F794E7948A95D1F705C0EE24AF
:10262000FF248701EFEFF0E06E2F6795662767952F
:10263000902F9F77D794DD24D7948E2F8695492F9E
:10264000462B582F5D29B701CA011F910F91FF90AA
:10265000EF90DF900895FC01DB01408151812281E0
:10266000622F6F7770E0221F2227221F9381892F0C
:10267000880F822B282F30E0991F9927991F1196D8
:102680009C93119721153105A9F541155105610557
:10269000710511F482E037C082E89FEF13969C9396
:1026A0008E9312979A01AB0167E0220F331F441FEC
:1026B000551F6A95D1F783E08C930DC0220F331F0D
:1026C000441F551F12968D919C9113970197139655
:1026D0009C938E931297203080E0380780E0480763
:1026E00080E4580758F314962D933D934D935C93D3
:1026F000179708952F3F310579F44115510561056C
:10270000710519F484E08C93089564FF03C081E09F
:102710008C9312C01C9210C02F57304013963C93DC
:102720002E93129783E08C9387E0440F551F661F0A
:10273000771F8A95D1F7706414964D935D936D93CE
:102740007C93179708951F93DC01FB019C919230B5
:1027500008F447C08081823008F443C0943051F4BB
:1027600011961C91843099F58181682F70E0611B6E
:1027700071093FC0843021F0923031F48230B9F1D8
:102780008181882389F12DC011961C911197823087
:10279000F1F081811817D9F412962D913C9113977D
:1027A000828193818217930794F028173907BCF030
:1027B00014968D919D910D90BC91A02D2481358111
:1027C00046815781281739074A075B0718F41123F8
:1027D00041F00AC082179307A407B50740F41123FC
:1027E00019F061E070E005C06FEF7FEF02C060E0BC
:1027F00070E0CB011F91089587FB082E062687FD08
:10280000819567FD619527D00EF4919507FC819520
:102810000895A1E21A2EAA1BBB1BFD010DC0AA1F21
:10282000BB1FEE1FFF1FA217B307E407F50720F039
:10283000A21BB30BE40BF50B661F771F881F991FB4
:102840001A9469F760957095809590959B01AC01FD
:10285000BD01CF010895991B79E004C0991F961717
:1028600008F0961B881F7A95C9F7809508952F92D6
:102870003F924F925F926F927F928F929F92AF9210
:10288000BF92CF92DF92EF92FF920F931F93CF935D
:10289000DF93CDB7DEB7CA1BDB0B0FB6F894DEBFF4
:1028A0000FBECDBF09942A88398848885F846E841A
:1028B0007D848C849B84AA84B984C884DF80EE8064
:1028C000FD800C811B81AA81B981CE0FD11D0FB66D
:1028D000F894DEBF0FBECDBFED010895F894FFCF91
:1028E00053656E743A2025780A0D00436F6E6E654D
:1028F00063746564210A0D004572726F722C206446
:102900006966666572656E74206D6573736167656F
:102910003A2025780A0D0044320A0D006261747471
:102920006572793A2025640A0D0074696D6572310B
:10293000303A2025640A0D00737769746368310AA0
:102940000D00737769746368320A0D0062757474E0
:102950006F6E310A0D00627574746F6E320A0D006D
:102960006E6F6E650A0D007472616E736D697474BA
:1029700065643A2025640A0D00737563636573739B
:10298000207472616E736D69740A0D00656C7365F5
:102990000A0D0020C3C2C1A020C3C2C1A120C3C26E
:1029A000C1A220C3C2C1A320C3C2C1A420C3C2C14B
:1029B000A50501FF0F00000000000000000001025B
:1029C00002030303030404040404040404050505CA
:1029D00005050505050505050505050505060606A4
:1029E0000606060606060606060606060606060687
:1029F0000606060606060606060606060607070774
:102A00000707070707070707070707070707070756
:102A10000707070707070707070707070707070746
:102A20000707070707070707070707070707070736
:102A30000707070707070707070707070708080823
:102A40000808080808080808080808080808080806
:102A500008080808080808080808080808080808F6
:102A600008080808080808080808080808080808E6
:102A700008080808080808080808080808080808D6
:102A800008080808080808080808080808080808C6
:102A900008080808080808080808080808080808B6
:102AA00008080808080808080808080808080808A6
:0E2AB0000808080808080808080808080800B0
:00000001FF
