:100000000C9434000C9453000C9451000C94510047
:100010000C9451000C9451000C9451000C9451001C
:100020000C9451000C9451000C9451000C9451000C
:100030000C9451000C9451000C9451000C945100FC
:100040000C9451000C9451000C9451000C945100EC
:100050000C9451000C9451000C9451000C945100DC
:100060000C9451000C94510011241FBECFEFD8E026
:10007000DEBFCDBF12E0A0E0B1E0EEEAFEE102C0DB
:1000800005900D92A832B107D9F712E0A8E2B2E0CC
:1000900001C01D92A334B107E1F70E9470000C94D7
:1000A000550F0C9400001F920F920FB60F9211245F
:1000B0008F9381E0809328028F910F900FBE0F9055
:1000C0001F901895E9E6F0E080818260808380814E
:1000D0008E7F8083EDE3F0E08081816080830895EE
:1000E000EAE2F0E080818B7F8083EBE2F0E08081C8
:1000F00084608083E4E2F0E0808180628083E5E2D6
:10010000F0E08081806280830E9462007894E5E262
:10011000F0E0809128028130E1F71092280280817E
:100120008F7D8083F6CFECE7F0E080818E64808362
:10013000EAE7F0E080818760808380818068808347
:100140000895AB01BC01EAE7F0E080818064808320
:10015000808186FDFDCF2091780030917900CB0120
:10016000BA01052E5AE0660F771F881F991F5A950E
:10017000D1F7502D40E050E00E94FC0E822F932FCB
:100180000895DF92EF92FF920F931F93CF93DF9327
:10019000EE24FF248701DD24C0E2DEE461EE73E09B
:1001A00080E090E00E94A100A0E0B0E0E80EF91E1F
:1001B0000A1F1B1FCE010197F1F7D39484E1D816D3
:1001C00069F7C801B70124E130E040E050E00E9447
:1001D000FC0E822F932FDF91CF911F910F91FF90F3
:1001E000EF90DF900895AF92BF92CF92DF92EF929F
:1001F000FF920F931F930E948E0C5B016C0120E015
:1002000030E04AE755E40E94B00A7B018C0120E00F
:1002100030E040E85FE30E940A0C88231CF461E0B0
:1002200070E023C0C801B70120E03FEF4FE757E47B
:100230000E94AA0B1816ACF4C601B50120E030E00C
:1002400040E251E40E94B00A0E94DA08CB01672B19
:1002500079F020E931E0F9013197F1F70197D9F709
:1002600007C0C801B7010E94DA08CB010197F1F776
:100270001F910F91FF90EF90DF90CF90BF90AF90C4
:100280000895E4E2F0E0808184608083808188606A
:10029000808380818062808380818F7E8083808163
:1002A0008D7F8083E5E2F0E080818260808381E55C
:1002B0008CBD0895882331F4E5E2F0E080818E7FE3
:1002C00080830895E5E2F0E0808181608083089575
:1002D0008EBDEDE4F0E080818823ECF78EB50895C3
:1002E000813031F4EBE2F0E0808180688083089512
:1002F000EBE2F0E080818F7780830895EAE2F0E01E
:10030000808180688083E4E2F0E080818160808386
:10031000E5E2F0E080818160808381E00E947001ED
:1003200008950F931F93CF93DF93EC01062F80E086
:100330000E945A0180911F01813021F480EB80934B
:100340002B0203C080EA80932B0280912B020E9433
:100350006801002341F01991812F0E94680101502A
:10036000D1F710932B0281E00E945A01DF91CF91C7
:100370001F910F910895882399F0813011F5809194
:100380001E018330F1F480E00E945A0181EE8093D7
:100390002B020E94680181E00E945A0181E00895C9
:1003A00080911E01843069F480E00E945A0182EE3F
:1003B00080932B020E94680181E00E945A0181E033
:1003C000089580E00895FF920F931F93CF93DF93DA
:1003D000182FEB01042FF22E80E00E945A01812F8A
:1003E0000E9468018FEF80932B02002331F08FEF82
:1003F0000E94680189930150D1F7FF2019F481E030
:100400000E945A01DF91CF911F910F91FF900895A3
:100410000F931F93CF93DF93EC01062F142F87E0E8
:100420006CE272E041E020E00E94E30180912C0246
:1004300085FD12C080911E01833071F410931F015D
:1004400080912902813011F400913002CE01602F99
:100450000E94910181E001C080E0DF91CF911F9166
:100460000F910895FF920F931F93CF93DF93182F4F
:10047000EB01042FF22E80E00E945A0110621093CB
:100480002B02812F0E946801002341F01991812FD6
:100490000E9468010150D1F710932B02FF2019F43C
:1004A00081E00E945A01DF91CF911F910F91FF903F
:1004B00008951F93182F80E06CE272E041E020E085
:1004C0000E94E301123061F1133030F4112351F036
:1004D000113009F054C015C0133091F1143009F0F7
:1004E0004EC03EC080E00E94700180912C028D7F42
:1004F00080932D0262E070E080E090E00E94F300C3
:100500004CC080E00E94700180912C028260809338
:100510002D0262E070E080E090E00E94F3003DC0B8
:1005200081E00E94700180912C028C7F8260809318
:100530002D0262E070E080E090E00E94F3002DC0A8
:1005400081E00E94700180912C028C7F82608093F8
:100550002D0262E070E080E090E00E94F3001DC098
:1005600081E00E94700180912C02836080932D02B3
:1005700062E070E080E090E00E94F3000EC080E056
:100580000E94700180912C028D7F80932D0262E089
:1005900070E080E090E00E94F30080E06DE272E0A5
:1005A00041E020E00E94320210931E011F91089545
:1005B0000F931F93182F062F80E06CE272E041E04A
:1005C00020E00E94E301112331F080912C02886029
:1005D00080932D0205C080912D02877F80932D028C
:1005E000023031F480912D02846080932D0205C089
:1005F00080912D028B7F80932D0280E06DE272E06E
:1006000041E020E00E9432021F910F910895FF9275
:100610000F931F93182F062FF42E80E06CE272E0E8
:1006200041E020E00E94E301112331F080912C028F
:10063000806480932D0205C080912D028F7B809372
:100640002D02002331F080912D02806280932D02D3
:1006500005C080912D028F7D80932D02FF2031F007
:1006600080912D02806180932D0205C080912D0222
:100670008F7E80932D0280E06DE272E041E020E009
:100680000E9432021F910F91FF900895DF93CF9344
:100690000F92CDB7DEB7982F81508D3750F49983E4
:1006A00085E0BE016F5F7F4F41E020E00E94320293
:1006B0000AC081E0898385E0BE016F5F7F4F41E022
:1006C00020E00E9432020F90CF91DF9108951F9396
:1006D000182F86E06CE272E041E020E00E94E30126
:1006E00080912C02897F80932C02163071F0173094
:1006F00018F4112331F014C01C3059F0123181F478
:100700000CC0866080932D020EC0846080932D0201
:100710000AC0826080932D0206C080932D0203C020
:10072000846080932D0286E06DE272E041E020E07B
:100730000E9432021F910895CF93DF93EC0186E06F
:100740006CE272E041E020E00E94E30180912C0223
:10075000877D80932C0293E0C83ED90761F097E033
:10076000C03DD90721F0CA3FD10561F407C08860B8
:1007700080932D0209C080932D0206C08062809371
:100780002D0202C080932D0286E06DE272E041E00E
:1007900020E00E943202DF91CF9108951F93182F1D
:1007A0008350833020F48F5F80932E0203C083E058
:1007B00080932E0283E06EE272E041E020E00E942E
:1007C000320210932F021F91089521E030E002C001
:1007D000220F331F8A95E2F7215020932D0282E0E9
:1007E0006DE272E041E020E00E9432020895EF9253
:1007F000FF920F931F93DF93CF930F92CDB7DEB786
:100800008983062F662371F011E17E010894E11CB3
:10081000F11C812FB70141E020E00E9432021F5FEE
:100820000150B9F78981809330020F90CF91DF9109
:100830001F910F91FF90EF9008950F931F93CF9307
:10084000DF9300912F02C0E0D1E01AE0812FBE01BA
:10085000402F20E00E9432021F5F25961031B1F731
:10086000DF91CF911F910F91089595E0899FB0017D
:10087000112465507F4F80E140912F0220E00E94BB
:1008800032020895282F873050F481E090E002C0B2
:10089000880F991F2A95E2F7815080932D0281E0FD
:1008A0006DE272E041E020E00E94320208950F9371
:1008B0001F93182F062F862F0E9442048DE16CE2B1
:1008C00072E041E020E00E94E301113019F58091CF
:1008D0002C02846080932D028DE16DE272E041E094
:1008E00020E00E943202073050F481E090E002C024
:1008F000880F991F0A95E2F7815080932D028CE1B1
:100900006DE272E041E020E00E94320281E08093DB
:1009100029020EC080912C028B7F80932D028DE1E5
:100920006DE272E041E020E00E9432021092290262
:100930001F910F910895462F10922D028B3F910524
:1009400088F031E08A5F90408B3F910548F0232F7B
:100950002F5F203111F0322FF5CF30932D0202C0DE
:1009600030932D0280912D02682F6295607F842F35
:1009700081508F3028F4842F862B80932D0202C063
:1009800060932D0284E06DE272E041E020E00E947D
:10099000320208951F93CF93DF93EC01162F8091BD
:1009A0001E01843011F080E04AC087E06CE272E002
:1009B00041E020E00E94E30180912C0286FD02C00C
:1009C00082E03DC080912902882311F41091300209
:1009D00080E00E945A0181E680932B020E94680108
:1009E000112349F08FEF0E94680189931150D1F7CC
:1009F0008FEF80932B0281E00E945A0187E16CE225
:100A000072E041E020E00E94E30180912C0280FD31
:100A100002C081E014C087E06CE272E041E020E0B7
:100A20000E94E30180912C02806480932D0287E074
:100A30006DE272E041E020E00E94320281E0DF914D
:100A4000CF911F91089587E06CE272E041E020E0D1
:100A50000E94E30180912C0285FF09C087E06CE2CF
:100A600072E041E020E00E94320281E0089584FDBE
:100A700002C080E0089587E06CE272E041E020E08F
:100A80000E9432028FEF08958130A1F48DE16CE273
:100A900072E041E020E00E94E30180912C0281603D
:100AA00080932D028DE16DE272E041E020E00E9432
:100AB000320208958DE16CE272E041E020E00E9494
:100AC000E30180912C028E7F80932D028DE16DE2F7
:100AD00072E041E020E00E9432020895FF920F93FD
:100AE0001F9381E080932A0280E00E94700188E0D9
:100AF00080932D020DE212E080E0B80141E020E099
:100B00000E9432028FE380932D0281E0B80141E020
:100B100020E00E94320210922D0282E0B80141E0F2
:100B200020E00E94320283E080932D02B80141E070
:100B300020E00E94320282E080932D0285E0B8011D
:100B400041E020E00E9432020F2EFEE0FF2EF02D49
:100B5000F0922D0286E0B80141E020E00E943202CE
:100B6000F0922D0287E0B80141E020E00E943202BD
:100B700083E00E94590281E00E94BB0184E00E9450
:100B8000590280E00E94BB0187E06CE272E041E024
:100B900020E00E94E30180912C02806780932D0267
:100BA00087E0B80141E020E00E94320281E061E08C
:100BB00041E00E94070381E061E00E94D80285E0E5
:100BC0000E94CE0388EE93E00E949C0386E00E9480
:100BD000670380E20E94460381E00E94E50381E012
:100BE00061E00E94F70384EF91E06AE00E949B04B9
:100BF00081E00E94420480E061E00E94570481E0AD
:100C00000E9444051F910F91FF9008950F931F9329
:100C1000082F162F0E9441010E947E0166E970E0B4
:100C200080E090E00E94F300113021F080912A02D0
:100C3000882311F40E946E05013099F0013028F0EC
:100C4000023009F10330A1F52AC080E00E94590268
:100C500081E060E040E00E94070383E00E945902C7
:100C60002FC080E00E94590280E061E041E00E94D4
:100C7000070384E00E94590264E670E080E090E09F
:100C80000E94F3001DC080E00E94590281E061E0F3
:100C900041E00E94070381E00E94590211C080E0F8
:100CA0000E94590281E061E041E00E94070308C010
:100CB00080E00E94590281E061E041E00E94070368
:100CC0001F910F910895E0913102F09132028193CA
:100CD000F0933202E09331020895982F8A3014F491
:100CE00080E307C080914102882311F487E501C0A9
:100CF00087E3890F0E94630681E080934202089592
:100D0000AC0180913F02909140028417950710F446
:100D1000E0E017C066277727641B750B9C01241B36
:100D2000350BE0E0EF5FF22FA32F260F371FC9012D
:100D3000840F951F84179507A8F7F0933F02A0939F
:100D4000400280914202882311F4EE2319F08E2F85
:100D50000E946D060895EF92FF920F931F930F2E3E
:100D6000F0E3EF2EF02D0F2EF0E3FF2EF02D00E339
:100D70000E94D208182F0E94C6081D3021F0EF2CC7
:100D8000F02E012FF5CF802F805D24E69E2D92025C
:100D900090011124820F2AE09F2D920290011124CC
:100DA000820F1F910F91FF90EF900895EF92FF92A5
:100DB0000F931F93CF93DF937C0170E0EB0121979A
:100DC0001C161D0614F000E012C000E00E94D208BC
:100DD000182F0E94C6081D3051F0F701E00FF11DD9
:100DE00010830F5F802F90E08C179D077CF3F70135
:100DF000E00FF11D1082DF91CF911F910F91FF90B5
:100E0000EF900895CF93DF93FC018081882339F020
:100E1000EF010E94CF08898121968823D1F7DF91C5
:100E2000CF9108952F923F924F925F926F927F924F
:100E30008F929F92AF92BF92CF92DF92EF92FF92EA
:100E40000F931F93DF93CF93CDB7DEB70F2EF5E14E
:100E5000EF2EFF24F02DEC0EFD1EF701C190D19076
:100E60007F010F2EF3E36F2EF2E07F2EF02D0F2E79
:100E7000F0E34F2EF02D842C5524689455F80F2E56
:100E8000FFE32F2EF2E03F2EF02D5BC10894C11C32
:100E9000D11C853221F00E94CF08570151C1F601C3
:100EA00011916F01103311F0992404C011916F0159
:100EB00099249394912F812F80538A3010F000E071
:100EC00012C000E0892F8053902F990F990F900F37
:100ED000990F082F090FF60111916F01912F812FA2
:100EE00080538A3078F3709232026092310210920D
:100EF0004202133609F4C2C014369CF4183509F4C2
:100F000051C019355CF4123409F478C01334ACF4D0
:100F1000112309F41BC1153281F4C6C0123669F4DD
:100F20006DC0133709F4B6C014371CF4143629F415
:100F300007C0153729F01837A9F15701D301B9C0F7
:100F4000F7012081318120933F0230934002143613
:100F500069F433235CF488279927821B930B9093C1
:100F6000400280933F028DE20E946306AA24BB24C4
:100F70006894A1F8AE0CBF1C80E197E20E94800645
:100F800088EE93E00E94800684E690E00E9480064E
:100F90008AE090E00E948006F10180810E946D0647
:100FA000D30187C0842D0E94630688E70E946306F0
:100FB00010924102183519F4F1E0F0934102AA248D
:100FC000BB246894A1F8AE0CBF1CF701808191810D
:100FD0009093400280933F0280E090E10E9480065F
:100FE00080E091E00E94800680E190E00E9480060F
:100FF000F10180810E946D06D3015BC0842D0E94A7
:10100000630682E60E94630610924102123419F4CC
:10101000F1E0F0934102AA24BB246894A1F8AE0C3D
:10102000BF1CF70180819181907090934002809362
:101030003F02F1E0F093420280E890E00E948006D7
:1010400080E490E00E94800680E290E00E948006AA
:1010500080E190E00E94800688E090E00E94800697
:1010600084E090E00E94800682E090E00E9480068A
:10107000F10180810E946D06D3011BC0AA24BB240C
:101080006894A1F8AE0CBF1CF70180810E94630632
:10109000D3010FC0AA24BB246894A1F8AE0CBF1CD6
:1010A000F701A081B18105C085E20E946306570166
:1010B000D301E0913102F09132021082B0933202FA
:1010C000A0933102FD0181917F01F0933202E09300
:1010D0003102882389F010163CF50150E09131026D
:1010E000F09132028191F0933202E0933102882331
:1010F00019F0101694F318C01016B4F48C918D32B8
:1011000011F07D0103C08DE20E94CF08102F115015
:10111000992011F4852D01C0882D0E94CF08111649
:1011200014F41150F5CFD7018C91882349F08D012B
:101130000E94CF08F80181810F5F1F4F8823C1F7FC
:101140007501F6018081882309F0A0CECF91DF914F
:101150001F910F91FF90EF90DF90CF90BF90AF90D5
:101160009F908F907F906F905F904F903F902F90C7
:10117000089587E690E09093C5008093C40088E1CD
:101180008093C10086E08093C2000895982FE0EC20
:10119000F0E0808185FFFDCF9093C60008950E9406
:1011A000C6080895E0ECF0E080818823ECF7809198
:1011B000C6000895EF92FF920F931F937B018C015D
:1011C00020E030E040E05FE40E94DA0B88238CF0FE
:1011D000C801B70120E030E040E05FE40E94520A1D
:1011E0000E943A0C9B01AC012050304040405048D6
:1011F00006C0C801B7010E943A0C9B01AC01B901BD
:10120000CA011F910F91FF90EF900895A0E0B0E008
:10121000ECE0F9E00C941E0FDC012B01FA019C912B
:10122000923008F439C1EB018881823008F433C16F
:10123000943069F4843009F02FC111969C91119774
:101240008981981709F428C1A0E2B1E025C1843052
:1012500009F421C18230A9F4923009F01DC19A012C
:10126000AD0188E0EA010990AE01E90109929E0111
:101270008150C1F7E201898111969C918923818374
:1012800008C1923009F407C112962D903C90139733
:10129000EB018A819B811496AD90BD90CD90DC903E
:1012A0001797EC80FD800E811F819101281B390B5F
:1012B000B90137FF04C066277727621B730B6032C2
:1012C00071050CF061C0121613066CF53701480168
:1012D000062E04C096948794779467940A94D2F764
:1012E00021E030E040E050E004C0220F331F441FF3
:1012F000551F6A95D2F721503040404050402E2172
:101300003F2140235123211531054105510521F08D
:1013100021E030E040E050E079018A01E628F7283A
:10132000082919293CC0232BD1F1260E371E35017F
:101330004601062E04C096948794779467940A9485
:10134000D2F721E030E040E050E004C0220F331F2C
:10135000441F551F6A95D2F72150304040405040FD
:101360002A213B214C215D212115310541055105E3
:1013700021F021E030E040E050E059016A01A62868
:10138000B728C828D9280BC0821593052CF01C015A
:10139000AA24BB24650103C0EE24FF248701119613
:1013A0009C91D20111968C91981709F445C099230C
:1013B00039F0A80197012A193B094C095D0906C0BB
:1013C000A60195012E193F09400B510B57FD08C08E
:1013D00011823382228224833583468357831DC042
:1013E00081E081833382228288279927DC01821B56
:1013F000930BA40BB50B84839583A683B7830DC091
:10140000220F331F441F551F248335834683578380
:1014100082819381019793838283248135814681E0
:101420005781DA01C9010197A109B1098F5F9F4F67
:10143000AF4FBF4328F30BC0918333822282EA0C63
:10144000FB1C0C1D1D1DE482F5820683178383E0BF
:101450008083248135814681578157FF1AC0C90195
:10146000AA2797FDA095BA2F81709070A070B070D8
:101470005695479537952795822B932BA42BB52B03
:1014800084839583A683B783828193810196938316
:101490008283DF0101C0D201CD01CDB7DEB7E2E129
:1014A0000C943A0FA0E2B0E0E8E5FAE00C942A0FC1
:1014B00069837A838B839C832D833E834F835887F4
:1014C000E9E0EE2EF12CEC0EFD1ECE010196B701E7
:1014D0000E942B0E8E010F5E1F4FCE010596B801A4
:1014E0000E942B0E8A8991E089278A8BC701B80157
:1014F000AE01475E5F4F0E9406090E94560DA096FE
:10150000E6E00C94460FA0E2B0E0E9E8FAE00C94C3
:101510002A0F69837A838B839C832D833E834F8339
:101520005887F9E0EF2EF12CEC0EFD1ECE0101964E
:10153000B7010E942B0E8E010F5E1F4FCE01059644
:10154000B8010E942B0EC701B801AE01475E5F4F84
:101550000E9406090E94560DA096E6E00C94460FE4
:10156000A0E2B0E0E6EBFAE00C941E0F69837A8308
:101570008B839C832D833E834F835887CE010196B6
:10158000BE01675F7F4F0E942B0ECE010596BE0104
:101590006F5E7F4F0E942B0E9985923088F089896B
:1015A0008230C8F0943019F4823051F404C0843091
:1015B00029F4923081F480E291E0C6C0923049F47F
:1015C00020E09A858A89981321E02A87CE0109961E
:1015D000BBC0823049F420E09A858A89981321E0C3
:1015E0002A8BCE014196B0C02D843E844F8458880A
:1015F0006D887E888F88988CEE24FF248701AA242A
:10160000BB24650140E050E060E070E0E0E0F0E025
:10161000C10181709070892BE9F0E60CF71C081D60
:10162000191D9A01AB012A0D3B1D4C1D5D1D80E06B
:1016300090E0A0E0B0E0E614F7040805190520F4F6
:1016400081E090E0A0E0B0E0BA01A901480F591F85
:101650006A1F7B1FAA0CBB1CCC1CDD1C97FE08C09C
:1016600081E090E0A0E0B0E0A82AB92ACA2ADB2AEB
:101670003196E032F10549F0660C771C881C991C04
:101680005694479437942794C3CFFA85EA892B89D7
:101690003C898B859C85280F391F2E5F3F4F17C0D3
:1016A000CA0181709070892B61F016950795F794A7
:1016B000E79480E090E0A0E0B0E8E82AF92A0A2B5D
:1016C0001B2B76956795579547952F5F3F4F77FD75
:1016D000E7CF0CC0440F551F661F771F17FD4160F1
:1016E000EE0CFF1C001F111F21503040403090E0D5
:1016F000590790E0690790E4790760F32B8F3C8FDE
:10170000DB01CA018F779070A070B07080349105B2
:10171000A105B10561F447FD0AC0E114F10401051A
:10172000110529F0405C5F4F6F4F7F4F40781A8E54
:10173000FE1711F081E08A8F4D8F5E8F6F8F78A337
:1017400083E0898FCE0149960E94560DA096E2E172
:101750000C943A0FA8E1B0E0E0EBFBE00C942A0F08
:1017600069837A838B839C832D833E834F83588741
:1017700089E0E82EF12CEC0EFD1ECE010196B7019A
:101780000E942B0E8E010F5E1F4FCE010596B801F1
:101790000E942B0E8985823040F08989823028F0A2
:1017A000C701B8010E94A30E01C08FEF6896E6E062
:1017B0000C94460FA8E1B0E0E0EEFBE00C942A0F99
:1017C00069837A838B839C832D833E834F835887E1
:1017D00089E0E82EF12CEC0EFD1ECE010196B7013A
:1017E0000E942B0E8E010F5E1F4FCE010596B80191
:1017F0000E942B0E8985823040F08989823028F042
:10180000C701B8010E94A30E01C08FEF6896E6E001
:101810000C94460FA8E1B0E0E0E1FCE00C942A0F44
:1018200069837A838B839C832D833E834F83588780
:1018300089E0E82EF12CEC0EFD1ECE010196B701D9
:101840000E942B0E8E010F5E1F4FCE010596B80130
:101850000E942B0E8985823040F08989823028F0E1
:10186000C701B8010E94A30E01C081E06896E6E0BE
:101870000C94460FACE0B0E0E0E4FCE00C942E0FDA
:1018800069837A838B839C83CE010196BE016B5F53
:101890007F4F0E942B0E8D81823061F1823050F19A
:1018A000843021F48E81882351F12EC02F81388518
:1018B00037FD20C06E812F3131051CF06623F9F011
:1018C00023C08EE190E0821B930B29853A854B85DE
:1018D0005C8504C056954795379527958A95D2F72C
:1018E0006623B1F050954095309521953F4F4F4F6D
:1018F0005F4F0EC020E030E040E050E009C02FEF25
:101900003FEF4FEF5FE704C020E030E040E050E8F9
:10191000B901CA012C96E2E00C944A0FA8E0B0E0AD
:10192000E4E9FCE00C94260F7B018C016115710544
:101930008105910519F482E0898360C083E0898381
:101940008EE1C82ED12CDC82CB82ED82FE820F8309
:101950001887C801B7010E94070DFC013197F7FFF6
:101960003BC0222733272E1B3F0B57016801022E55
:1019700004C0D694C794B794A7940A94D2F740E0D1
:1019800050E060E070E081E090E0A0E0B0E004C0F2
:10199000880F991FAA1FBB1F2A95D2F70197A1098B
:1019A000B1098E219F21A023B1230097A105B10584
:1019B00021F041E050E060E070E04A295B296C29A9
:1019C0007D294D835E836F8378878EE190E08E1B47
:1019D0009F0B9C838B8312C0309781F00E2E04C026
:1019E000EE0CFF1C001F111F0A94D2F7ED82FE823D
:1019F0000F831887CE1ADF0ADC82CB821A82CE01CF
:101A000001960E94560D2896EAE00C94420FEF9240
:101A1000FF920F931F937B018C0180E0E81680E01A
:101A2000F80681E0080780E0180788F48FEFE816D1
:101A3000F1040105110531F028F088E090E0A0E004
:101A4000B0E017C080E090E0A0E0B0E012C080E01D
:101A5000E81680E0F80680E0080781E0180728F023
:101A600088E190E0A0E0B0E004C080E190E0A0E078
:101A7000B0E020E230E040E050E0281B390B4A0B98
:101A80005B0B04C016950795F794E7948A95D2F7F7
:101A9000F701E85DFE4F8081281B3109410951099A
:101AA000C9011F910F91FF90EF900895DF92EF927F
:101AB000FF920F931F93FC01E480F580068117814C
:101AC000D1808081823048F480E090E0A0E1B0E0F5
:101AD000E82AF92A0A2B1B2BA5C0843009F49FC0E1
:101AE000823021F4EE24FF24870105C0E114F104C3
:101AF0000105110519F4E0E0F0E096C06281738100
:101B00009FEF623879070CF05BC022E83FEF261B9D
:101B1000370B2A3131052CF020E030E040E050E076
:101B20002AC0B801A701022E04C076956795579583
:101B300047950A94D2F781E090E0A0E0B0E004C0BD
:101B4000880F991FAA1FBB1F2A95D2F70197A109D9
:101B5000B1098E219F21A023B1230097A105B105D2
:101B600021F081E090E0A0E0B0E09A01AB01282BE9
:101B7000392B4A2B5B2BDA01C9018F779070A0704B
:101B8000B07080349105A105B10539F427FF09C073
:101B9000205C3F4F4F4F5F4F04C0215C3F4F4F4F82
:101BA0005F4FE0E0F0E02030A0E03A07A0E04A0715
:101BB000A0E45A0710F0E1E0F0E079018A0127C0C3
:101BC0006038710564F5FB01E158FF4FD801C7018A
:101BD0008F779070A070B07080349105A105B10529
:101BE00039F4E7FE0DC080E490E0A0E0B0E004C06E
:101BF0008FE390E0A0E0B0E0E80EF91E0A1F1B1F83
:101C000017FF05C016950795F794E794319687E07E
:101C100016950795F794E7948A95D1F705C0EE24B9
:101C2000FF248701EFEFF0E06E2F67956627679539
:101C3000902F9F77D794DD24D7948E2F8695492FA8
:101C4000462B582F5D29B701CA011F910F91FF90B4
:101C5000EF90DF900895FC01DB01408151812281EA
:101C6000622F6F7770E0221F2227221F9381892F16
:101C7000880F822B282F30E0991F9927991F1196E2
:101C80009C93119721153105A9F541155105610561
:101C9000710511F482E037C082E89FEF13969C93A0
:101CA0008E9312979A01AB0167E0220F331F441FF6
:101CB000551F6A95D1F783E08C930DC0220F331F17
:101CC000441F551F12968D919C911397019713965F
:101CD0009C938E931297203080E0380780E048076D
:101CE00080E4580758F314962D933D934D935C93DD
:101CF000179708952F3F310579F441155105610576
:101D0000710519F484E08C93089564FF03C081E0A9
:101D10008C9312C01C9210C02F57304013963C93E6
:101D20002E93129783E08C9387E0440F551F661F14
:101D3000771F8A95D1F7706414964D935D936D93D8
:101D40007C93179708951F93DC01FB019C919230BF
:101D500008F447C08081823008F443C0943051F4C5
:101D600011961C91843099F58181682F70E0611B78
:101D700071093FC0843021F0923031F48230B9F1E2
:101D80008181882389F12DC011961C911197823091
:101D9000F1F081811817D9F412962D913C91139787
:101DA000828193818217930794F028173907BCF03A
:101DB00014968D919D910D90BC91A02D248135811B
:101DC00046815781281739074A075B0718F4112302
:101DD00041F00AC082179307A407B50740F4112306
:101DE00019F061E070E005C06FEF7FEF02C060E0C6
:101DF00070E0CB011F910895A1E21A2EAA1BBB1B14
:101E0000FD010DC0AA1FBB1FEE1FFF1FA217B307C6
:101E1000E407F50720F0A21BB30BE40BF50B661FDC
:101E2000771F881F991F1A9469F7609570958095A0
:101E300090959B01AC01BD01CF0108952F923F9277
:101E40004F925F926F927F928F929F92AF92BF92CA
:101E5000CF92DF92EF92FF920F931F93CF93DF9376
:101E6000CDB7DEB7CA1BDB0B0FB6F894DEBF0FBED3
:101E7000CDBF09942A88398848885F846E847D8420
:101E80008C849B84AA84B984C884DF80EE80FD8022
:101E90000C811B81AA81B981CE0FD11D0FB6F89498
:0E1EA000DEBF0FBECDBFED010895F894FFCF59
:101EAE0020C3C2C1A020C3C2C1A120C3C2C1A220EF
:101EBE00C3C2C1A320C3C2C1A420C3C2C1A5050110
:101ECE0000000000000000000001020203030303F3
:101EDE0004040404040404040505050505050505AC
:101EEE00050505050505050506060606060606068C
:101EFE000606060606060606060606060606060674
:101F0E00060606060606060607070707070707075B
:101F1E000707070707070707070707070707070743
:101F2E000707070707070707070707070707070733
:101F3E000707070707070707070707070707070723
:101F4E00070707070707070708080808080808080B
:101F5E0008080808080808080808080808080808F3
:101F6E0008080808080808080808080808080808E3
:101F7E0008080808080808080808080808080808D3
:101F8E0008080808080808080808080808080808C3
:101F9E0008080808080808080808080808080808B3
:101FAE0008080808080808080808080808080808A3
:101FBE000808080808080808080808080808080893
:081FCE000808080808080808CB
:00000001FF
