:100000000C9439000C9456000C9456000C94560035
:100010000C9456000C9456000C9456000C94560008
:100020000C9456000C9456000C9456000C945600F8
:100030000C9456000C9456000C9456000C945600E8
:100040000C9456000C9456000C9456000C945600D8
:100050000C9456000C9456000C9456000C945600C8
:100060000C9456000C9456003F065B4F666D7D075E
:100070007F6F11241FBECFEFD8E0DEBFCDBF12E0EF
:10008000A0E0B1E0E8E6F4E202C005900D92AA32E9
:10009000B107D9F712E0AAE2B2E001C01D92A43480
:1000A000B107E1F70E9458000C9432120C94000042
:1000B000EAE2F0E0808180618083808180628083D9
:1000C000808180648083EBE2F0E0808180618083C6
:1000D00080818062808380818064808380E090E082
:1000E0000895AF92BF92CF92DF92EF92FF920F935B
:1000F0001F930E94520F5B016C0120E030E04AE741
:1001000055E40E94740D7B018C0120E030E040E852
:100110005FE30E94CE0E88231CF461E070E023C0F0
:10012000C801B70120E03FEF4FE757E40E946E0E91
:100130001816ACF4C601B50120E030E040E251E40D
:100140000E94740D0E949E0BCB01672B79F020E971
:1001500031E0F9013197F1F70197D9F707C0C801EC
:10016000B7010E949E0BCB010197F1F71F910F91F0
:10017000FF90EF90DF90CF90BF90AF900895E4E2B2
:10018000F0E08081846080838081886080838081CA
:100190008062808380818F7E808380818D7F808359
:1001A000E5E2F0E080818260808381E58CBD089586
:1001B000882331F4E5E2F0E080818E7F808308952A
:1001C000E5E2F0E080818160808308958EBDEDE4FA
:1001D000F0E080818823ECF78EB50895813031F40A
:1001E000EBE2F0E08081806880830895EBE2F0E04C
:1001F00080818F7780830895EAE2F0E080818068D3
:100200008083E4E2F0E0808181608083E5E2F0E0D9
:1002100080818160808381E00E94EE0008950F93C9
:100220001F93CF93DF93EC01062F80E00E94D8004C
:1002300080911F01813021F480EB80932C0203C058
:1002400080EA80932C0280912C020E94E600002319
:1002500041F01991812F0E94E6000150D1F71093CF
:100260002C0281E00E94D800DF91CF911F910F9165
:100270000895882399F0813011F580911E01833013
:10028000F1F480E00E94D80081EE80932C020E945D
:10029000E60081E00E94D80081E0089580911E016F
:1002A000843069F480E00E94D80082EE80932C02B2
:1002B0000E94E60081E00E94D80081E0089580E07D
:1002C0000895FF920F931F93CF93DF93182FEB01A5
:1002D000042FF22E80E00E94D800812F0E94E600B9
:1002E0008FEF80932C02002331F08FEF0E94E60005
:1002F00089930150D1F7FF2019F481E00E94D800C2
:10030000DF91CF911F910F91FF9008950F931F934D
:10031000CF93DF93EC01062F142F87E06DE272E09C
:1003200041E020E00E94610180912D0285FD12C014
:1003300080911E01833071F410931F0180912A0275
:10034000813011F400913102CE01602F0E940F0123
:1003500081E001C080E0DF91CF911F910F9108955E
:10036000FF920F931F93CF93DF93182FEB01042F6E
:10037000F22E80E00E94D800106210932C02812F90
:100380000E94E600002341F01991812F0E94E600AF
:100390000150D1F710932C02FF2019F481E00E9444
:1003A000D800DF91CF911F910F91FF9008951F9377
:1003B000182F80E06DE272E041E020E00E946101D0
:1003C000123061F1133030F4112351F0113009F083
:1003D00054C015C0133091F1143009F04EC03EC026
:1003E00080E00E94EE0080912D028D7F80932E028E
:1003F00062E070E080E090E00E9471004CC080E01C
:100400000E94EE0080912D02826080932E0262E0B5
:1004100070E080E090E00E9471003DC081E00E94A9
:10042000EE0080912D028C7F826080932E0262E02C
:1004300070E080E090E00E9471002DC081E00E9499
:10044000EE0080912D028C7F826080932E0262E00C
:1004500070E080E090E00E9471001DC081E00E9489
:10046000EE0080912D02836080932E0262E070E0A6
:1004700080E090E00E9471000EC080E00E94EE00DB
:1004800080912D028D7F80932E0262E070E080E0EB
:1004900090E00E94710080E06EE272E041E020E0B6
:1004A0000E94B00110931E011F9108950F931F9396
:1004B000182F062F80E06DE272E041E020E00E94FC
:1004C0006101112331F080912D02886080932E020A
:1004D00005C080912E02877F80932E02023031F476
:1004E00080912E02846080932E0205C080912E029E
:1004F0008B7F80932E0280E06EE272E041E020E08C
:100500000E94B0011F910F910895FF920F931F93C6
:10051000182F062FF42E80E06DE272E041E020E01B
:100520000E946101112331F080912D02806480933B
:100530002E0205C080912E028F7B80932E02002315
:1005400031F080912E02806280932E0205C080914E
:100550002E028F7D80932E02FF2031F080912E029B
:10056000806180932E0205C080912E028F7E809341
:100570002E0280E06EE272E041E020E00E94B001D5
:100580001F910F91FF900895DF93CF930F92CDB7F6
:10059000DEB7982F81508D3750F4998385E0BE01E6
:1005A0006F5F7F4F41E020E00E94B0010AC081E010
:1005B000898385E0BE016F5F7F4F41E020E00E94AC
:1005C000B0010F90CF91DF9108951F93182F86E00F
:1005D0006DE272E041E020E00E94610180912D0215
:1005E000897F80932D02163071F0173018F4112393
:1005F00031F014C01C3059F0123181F40CC0866007
:1006000080932E020EC0846080932E020AC0826006
:1006100080932E0206C080932E0203C084608093D4
:100620002E0286E06EE272E041E020E00E94B0011E
:100630001F910895CF93DF93EC0186E06DE272E0A5
:1006400041E020E00E94610180912D02877D80932E
:100650002D0293E0C83ED90761F097E0C03DD9076D
:1006600021F0CA3FD10561F407C0886080932E0253
:1006700009C080932E0206C0806280932E0202C0C1
:1006800080932E0286E06EE272E041E020E00E945C
:10069000B001DF91CF9108951F93182F83508330BD
:1006A00020F48F5F80932F0203C083E080932F029A
:1006B00083E06FE272E041E020E00E94B00110931D
:1006C00030021F91089521E030E002C0220F331F55
:1006D0008A95E2F7215020932E0282E06EE272E0CA
:1006E00041E020E00E94B0010895EF92FF920F9345
:1006F0001F93DF93CF930F92CDB7DEB78983062F79
:10070000662371F011E17E010894E11CF11C812F38
:10071000B70141E020E00E94B0011F5F0150B9F72E
:100720008981809331020F90CF91DF911F910F91BA
:10073000FF90EF9008950F931F93CF93DF93009155
:100740003002C0E0D1E01AE0812FBE01402F20E04E
:100750000E94B0011F5F25961031B1F7DF91CF9154
:100760001F910F91089595E0899FB0011124655064
:100770007F4F80E14091300220E00E94B001089557
:10078000282F873050F481E090E002C0880F991F35
:100790002A95E2F7815080932E0281E06EE272E0AA
:1007A00041E020E00E94B00108950F931F93182F9D
:1007B000062F862F0E94C0038DE16DE272E041E0BA
:1007C00020E00E946101113019F580912D028460B2
:1007D00080932E028DE16EE272E041E020E00E9403
:1007E000B001073050F481E090E002C0880F991FFB
:1007F0000A95E2F7815080932E028CE16EE272E05E
:1008000041E020E00E94B00181E080932A020EC006
:1008100080912D028B7F80932E028DE16EE272E03B
:1008200041E020E00E94B00110922A021F910F9136
:100830000895462F10922E028B3F910588F031E0EB
:100840008A5F90408B3F910548F0232F2F5F203126
:1008500011F0322FF5CF30932E0202C030932E02CA
:1008600080912E02682F6295607F842F81508F3097
:1008700028F4842F862B80932E0202C060932E02D0
:1008800084E06EE272E041E020E00E94B001089551
:100890001F93CF93DF93EC01162F80911E018430BC
:1008A00011F080E04AC087E06DE272E041E020E0B4
:1008B0000E94610180912D0286FD02C082E03DC050
:1008C00080912A02882311F41091310280E00E9465
:1008D000D80081E680932C020E94E600112349F0A3
:1008E0008FEF0E94E60089931150D1F78FEF80932C
:1008F0002C0281E00E94D80087E16DE272E041E0C5
:1009000020E00E94610180912D0280FD02C081E003
:1009100014C087E06DE272E041E020E00E946101D6
:1009200080912D02806480932E0287E06EE272E057
:1009300041E020E00E94B00181E0DF91CF911F9162
:10094000089587E06DE272E041E020E00E946101DD
:1009500080912D0285FF09C087E06DE272E041E0E1
:1009600020E00E94B00181E0089584FD02C080E093
:10097000089587E06DE272E041E020E00E94B0015E
:100980008FEF08958130A1F48DE16DE272E041E0D6
:1009900020E00E94610180912D02816080932E02EF
:1009A0008DE16EE272E041E020E00E94B001089526
:1009B0008DE16DE272E041E020E00E9461018091F2
:1009C0002D028E7F80932E028DE16EE272E041E077
:1009D00020E00E94B0010895FF920F931F9381E0E1
:1009E00080932B0280E00E94EE0088E080932E022C
:1009F0000EE212E080E0B80141E020E00E94B00188
:100A00008FE380932E0281E0B80141E020E00E9454
:100A1000B00110922E0282E0B80141E020E00E9475
:100A2000B00183E080932E02B80141E020E00E94F3
:100A3000B00182E080932E0285E0B80141E020E021
:100A40000E94B0010F2EFEE0FF2EF02DF0922E023C
:100A500086E0B80141E020E00E94B001F0922E0251
:100A600087E0B80141E020E00E94B00183E00E94ED
:100A7000D70181E00E94390184E00E94D70180E023
:100A80000E94390187E06DE272E041E020E00E94BF
:100A9000610180912D02806780932E0287E0B8016A
:100AA00041E020E00E94B00181E061E041E00E946D
:100AB000850281E061E00E94560285E00E944C03BD
:100AC00088EE93E00E941A0386E00E94E50280E22D
:100AD0000E94C40281E00E94630381E061E00E9401
:100AE000750384EF91E06AE00E94190481E00E949E
:100AF000C00380E061E00E94D50381E00E94C2044F
:100B00001F910F91FF9008950F931F93082F162F99
:100B10000E94BF000E94FC0066E970E080E090E067
:100B20000E947100113021F080912B02882311F472
:100B30000E94EC04013099F0013028F0023009F1F4
:100B40000330A1F52AC080E00E94D70181E060E077
:100B500040E00E94850283E00E94D7012FC080E020
:100B60000E94D70180E061E041E00E94850284E0BC
:100B70000E94D70164E670E080E090E00E9471007E
:100B80001DC080E00E94D70181E061E041E00E9449
:100B9000850281E00E94D70111C080E00E94D70148
:100BA00081E061E041E00E94850208C080E00E948F
:100BB000D70181E061E041E00E9485021F910F9121
:100BC0000895E0913202F09133028193F093330261
:100BD000E09332020895982F8A3014F480E307C01E
:100BE00080914202882311F487E501C087E3890FD1
:100BF0000E94E10581E0809343020895AC01809159
:100C00004002909141028417950710F4E0E017C06C
:100C100066277727641B750B9C01241B350BE0E0CE
:100C2000EF5FF22FA32F260F371FC901840F951FE7
:100C300084179507A8F7F0934002A0934102809192
:100C40004302882311F4EE2319F08E2F0E94EB0546
:100C50000895EF92FF920F931F930F2EF0E3EF2E64
:100C6000F02D0F2EF0E3FF2EF02D00E30E94500830
:100C7000182F0E9444081D3021F0EF2CF02E012F78
:100C8000F5CF802F805D24E69E2D920290011124E5
:100C9000820F2AE09F2D920290011124820F1F9152
:100CA0000F91FF90EF900895EF92FF920F931F9393
:100CB000CF93DF937C0170E0EB0121971C161D069A
:100CC00014F000E012C000E00E945008182F0E94AB
:100CD00044081D3051F0F701E00FF11D10830F5F44
:100CE000802F90E08C179D077CF3F701E00FF11D3A
:100CF0001082DF91CF911F910F91FF90EF90089597
:100D0000CF93DF93FC018081882339F0EF010E94AB
:100D10004D08898121968823D1F7DF91CF910895DD
:100D20002F923F924F925F926F927F928F929F92FB
:100D3000AF92BF92CF92DF92EF92FF920F931F93E9
:100D4000DF93CF93CDB7DEB70F2EF5E1EF2EFF2463
:100D5000F02DEC0EFD1EF701C190D1907F010F2EFA
:100D6000F4E36F2EF2E07F2EF02D0F2EF0E34F2EE6
:100D7000F02D842C5524689455F80F2EF0E42F2E76
:100D8000F2E03F2EF02D5BC10894C11CD11C8532CE
:100D900021F00E944D08570151C1F60111916F01D8
:100DA000103311F0992404C011916F019924939488
:100DB000912F812F80538A3010F000E012C000E0A4
:100DC000892F8053902F990F990F900F990F082F0B
:100DD000090FF60111916F01912F812F80538A30F5
:100DE00078F370923302609232021092430213360B
:100DF00009F4C2C014369CF4183509F451C01935F1
:100E00005CF4123409F478C01334ACF4112309F4FF
:100E10001BC1153281F4C6C0123669F46DC0133798
:100E200009F4B6C014371CF4143629F407C015377A
:100E300029F01837A9F15701D301B9C0F701208172
:100E400031812093400230934102143669F43323F8
:100E50005CF488279927821B930B9093410280931F
:100E600040028DE20E94E105AA24BB246894A1F807
:100E7000AE0CBF1C80E197E20E94FE0588EE93E075
:100E80000E94FE0584E690E00E94FE058AE090E064
:100E90000E94FE05F10180810E94EB05D30187C00D
:100EA000842D0E94E10588E70E94E105109242022C
:100EB000183519F4F1E0F0934202AA24BB24689497
:100EC000A1F8AE0CBF1CF701808191819093410283
:100ED0008093400280E090E10E94FE0580E091E076
:100EE0000E94FE0580E190E00E94FE05F1018081F4
:100EF0000E94EB05D3015BC0842D0E94E10582E6D0
:100F00000E94E10510924202123419F4F1E0F093CC
:100F10004202AA24BB246894A1F8AE0CBF1CF701BE
:100F20008081918190709093410280934002F1E022
:100F3000F093430280E890E00E94FE0580E490E098
:100F40000E94FE0580E290E00E94FE0580E190E0B4
:100F50000E94FE0588E090E00E94FE0584E090E09B
:100F60000E94FE0582E090E00E94FE05F101808172
:100F70000E94EB05D3011BC0AA24BB246894A1F8EE
:100F8000AE0CBF1CF70180810E94E105D3010FC0A8
:100F9000AA24BB246894A1F8AE0CBF1CF701A08161
:100FA000B18105C085E20E94E1055701D301E091BE
:100FB0003202F09133021082B0933302A0933202D6
:100FC000FD0181917F01F0933302E0933202882387
:100FD00089F010163CF50150E0913202F091330295
:100FE0008191F0933302E0933202882319F01016B6
:100FF00094F318C01016B4F48C918D3211F07D0169
:1010000003C08DE20E944D08102F1150992011F459
:10101000852D01C0882D0E944D08111614F4115021
:10102000F5CFD7018C91882349F08D010E944D089E
:10103000F80181810F5F1F4F8823C1F77501F60109
:101040008081882309F0A0CECF91DF911F910F916D
:10105000FF90EF90DF90CF90BF90AF909F908F90D8
:101060007F906F905F904F903F902F90089587E60C
:1010700090E09093C5008093C40088E18093C10004
:1010800086E08093C2000895982FE0ECF0E0808124
:1010900085FFFDCF9093C60008950E9444080895EF
:1010A000E0ECF0E080818823ECF78091C6000895A1
:1010B000EAE2F0E0808180618083808180628083C9
:1010C0008081806480830895EBE2F0E080818F7DF1
:1010D00080838081806480830895EBE2F0E08081EA
:1010E0008062808380818F7B80830895EBE2F0E0D3
:1010F00080818F7E80830895EBE2F0E080818061C3
:1011000080830895282F30E020773070A901440FA4
:10111000551F220F331F220F331F220F331F420F81
:10112000531F559547955595479555954795559511
:1011300047958F70840F0895E82FF0E040E050E06D
:101140008E2F6AE00E94C011292F8E2F6AE00E9424
:10115000C011E82F332727FD3095042E02C0220F3F
:10116000331F0A94E2F7F22B4C5F5F4F4031510579
:1011700039F78F2F08951F93CF93DF93182FEB012B
:101180000E94180B80ED0E94260B113021F08BE09D
:101190000E94260B08C087E00E94260B88810E94CF
:1011A0009C080E94260B89810E949C080E94260BA5
:1011B0008A810E949C080E94260B80E80E94260BD0
:1011C0000E94220BDF91CF911F9108950F931F93DF
:1011D0008C010E94180B80ED0E94260B80E00E947B
:1011E000260BF80180810E949C080E94260BF801C2
:1011F00081810E949C080E94260BF80182810E9436
:101200009C080E94260B0E94220B1F910F910895AB
:101210001F930E94180B80ED0E94260B8EE00E9407
:10122000260B0E94220B0E94180B81ED0E94260BB8
:101230000E942E0B182F0E94220B812F1F910895C0
:101240001F930E940809182F0E94180B80ED0E941E
:10125000260B8EE00E94260B812F867F0E94260B94
:101260000E94220B1F9108951F930E94180B80ED7E
:101270000E94260B8FE00E94260B0E94220B0E94E8
:10128000180B81ED0E94260B0E942E0B182F0E9436
:10129000220B812F1F9108951F93813029F40E9402
:1012A0003409182F1E7F04C00E943409182F1D7F97
:1012B0000E94180B80ED0E94260B8FE00E94260BE7
:1012C000812F0E94260B0E94220B1F9108950F93DD
:1012D0001F930E940809182F0E943409082F0E94AA
:1012E000180B80ED0E94260B8EE00E94260B812FAA
:1012F00087600E94260B0E94220B0E94180B80ED33
:101300000E94260B8FE00E94260B802F87770E9479
:10131000260B0E94220B1F910F9108951F93CF93CC
:10132000DF93182FEB010E94180B80ED0E94260B13
:10133000113059F08BE00E94260B0E94220B0E9474
:10134000180B81ED0E94260B0FC087E00E94260B30
:101350000E94220B0E94180B81ED0E94260B0E9416
:101360002E0B0E94820888830E942E0B0E94820806
:1013700089830E942E0B0E9482088A830E94220B7E
:10138000DF91CF911F9108950F931F938C010E94BD
:10139000180B80ED0E94260B80E00E94260B0E9415
:1013A000220B0E94180B81ED0E94260B0E942E0B2F
:1013B0000E948208F80180830E942E0B0E948208FE
:1013C000F80181830E942E0B0E948208F80182831B
:1013D0000E94220B1F910F9108958AE18A95F1F7DF
:1013E0000895E7E2F0E08081836080830895E7E27A
:1013F000F0E080818C7F808308950F931F930E947B
:10140000F10908E210E0F801808181608083808129
:10141000826080830E94ED09F80180818E7F808345
:101420001F910F9108950F931F9308E210E0F801A8
:1014300080818D7F80830E94ED09F80180818E7FFD
:1014400080830E94ED09F8018081826080830E9480
:10145000ED09F8018081816080830E94F7091F9166
:101460000F910895FF920F931F93CF93DF93182F3F
:1014700000E0C8E2D0E088818D7F88830E94ED097A
:1014800010FF04C088818160888303C088818E7FBB
:1014900088838881826088830E94ED090F5F08300D
:1014A00011F01695E8CFE8E2F0E080818D7F80832F
:1014B000A7E2B0E08C918E7F8C93808181608083E5
:1014C0000E94ED09FF24309B02C0FF24F394FF200B
:1014D00051F0E7E2F0E0808181608083E8E2F0E0B3
:1014E00080818E7F80830E94ED0908E210E0F80180
:1014F0008081826080830E94ED09F80180818D7F68
:1015000080830E94ED09E7E2F0E0808181608083C2
:101510008F2DDF91CF911F910F91FF9008951F9311
:10152000182F0E94FD09812F0E94320A0E94130A7F
:101530001F910895811188E0683008F067E0862BDC
:101540008093210180680E948F0A08959091210163
:10155000682F6770892F88700E949A0A0895609199
:10156000210167700E949A0A08950E949A0A0895BC
:101570000F931F93182F062F84E40E948F0A0E9456
:10158000FD091370812F806C0E94320A802F0E9407
:10159000320A0E94130A1F910F91089580E060E0C3
:1015A0000E94B80A81E060E00E94B80A82E060E030
:1015B0000E94B80A83E060E00E94B80A0895882378
:1015C00031F08091200180688093200105C08091D6
:1015D00020018F778093200181E0609120010E949B
:1015E000B80A0895982F6A3010F060E005C0E8E668
:1015F000F0E0E60FF11D6491913031F4809120010B
:101600008078682B60932001892F0E94B80A089582
:101610008FEF8093B8000895ECEBF0E080818B7F32
:1016200080830895ECEBF0E080818823ECF7089547
:10163000ECEBF0E080818B7F808384EA80830E94E2
:10164000120B089584E98093BC0008958093BB0039
:1016500084E88093BC000E94120B089584EC809370
:10166000BC000E94120B8091BB00089584E8809317
:10167000BC000E94120B8091BB000895ECE7F0E0E3
:1016800080818E648083EAE7F0E0808187608083D8
:101690008081806880830895AB01BC01EAE7F0E0B7
:1016A000808180648083808186FDFDCF20917800D9
:1016B00030917900CB01BA01052E5AE0660F771FF1
:1016C000881F991F5A95D1F7502D40E050E00E9495
:1016D000CD11822F932F0895DF92EF92FF920F93F7
:1016E0001F93CF93DF93EE24FF248701DD24C0E214
:1016F000DEE461EE73E080E090E00E944C0BA0E03D
:10170000B0E0E80EF91E0A1F1B1FCE010197F1F78A
:10171000D39484E1D81669F7C801B70124E130E019
:1017200040E050E00E94CD11822F932FDF91CF91A6
:101730001F910F91FF90EF90DF900895EF92FF922D
:101740000F931F937B018C0120E030E040E05FE4C9
:101750000E949E0E88238CF0C801B70120E030E083
:1017600040E05FE40E94160D0E94FE0E9B01AC015A
:10177000205030404040504806C0C801B7010E9488
:10178000FE0E9B01AC01B901CA011F910F91FF90A0
:10179000EF900895A0E0B0E0E0EDFBE00C94FB11C9
:1017A000DC012B01FA019C91923008F439C1EB0164
:1017B0008881823008F433C1943069F4843009F0B0
:1017C0002FC111969C9111978981981709F428C10E
:1017D000A2E2B1E025C1843009F421C18230A9F42C
:1017E000923009F01DC19A01AD0188E0EA0109902B
:1017F000AE01E90109929E018150C1F7E2018981A0
:1018000011969C918923818308C1923009F407C104
:1018100012962D903C901397EB018A819B81149630
:10182000AD90BD90CD90DC901797EC80FD800E813F
:101830001F819101281B390BB90137FF04C06627AE
:101840007727621B730B603271050CF061C01216B2
:1018500013066CF537014801062E04C09694879450
:10186000779467940A94D2F721E030E040E050E0AA
:1018700004C0220F331F441F551F6A95D2F7215011
:101880003040404050402E213F214023512321151C
:1018900031054105510521F021E030E040E050E004
:1018A00079018A01E628F728082919293CC0232B49
:1018B000D1F1260E371E35014601062E04C096943E
:1018C0008794779467940A94D2F721E030E040E05F
:1018D00050E004C0220F331F441F551F6A95D2F7F2
:1018E00021503040404050402A213B214C215D2175
:1018F000211531054105510521F021E030E040E09E
:1019000050E059016A01A628B728C828D9280BC079
:10191000821593052CF01C01AA24BB24650103C089
:10192000EE24FF24870111969C91D20111968C918F
:10193000981709F445C0992339F0A80197012A198D
:101940003B094C095D0906C0A60195012E193F0906
:10195000400B510B57FD08C0118233822282248331
:101960003583468357831DC081E081833382228281
:1019700088279927DC01821B930BA40BB50B84836A
:101980009583A683B7830DC0220F331F441F551FB5
:101990002483358346835783828193810197938380
:1019A00082832481358146815781DA01C9010197FB
:1019B000A109B1098F5F9F4FAF4FBF4328F30BC001
:1019C000918333822282EA0CFB1C0C1D1D1DE482D4
:1019D000F5820683178383E08083248135814681E5
:1019E000578157FF1AC0C901AA2797FDA095BA2FA2
:1019F00081709070A070B070569547953795279577
:101A0000822B932BA42BB52B84839583A683B7833A
:101A100082819381019693838283DF0101C0D20189
:101A2000CD01CDB7DEB7E2E10C941712A0E2B0E031
:101A3000ECE1FDE00C94071269837A838B839C832D
:101A40002D833E834F835887E9E0EE2EF12CEC0E78
:101A5000FD1ECE010196B7010E94EF108E010F5EB0
:101A60001F4FCE010596B8010E94EF108A8991E0C0
:101A700089278A8BC701B801AE01475E5F4F0E947C
:101A8000CA0B0E941A10A096E6E00C942312A0E262
:101A9000B0E0EDE4FDE00C94071269837A838B8358
:101AA0009C832D833E834F835887F9E0EF2EF12CE2
:101AB000EC0EFD1ECE010196B7010E94EF108E01C3
:101AC0000F5E1F4FCE010596B8010E94EF10C701AF
:101AD000B801AE01475E5F4F0E94CA0B0E941A1008
:101AE000A096E6E00C942312A0E2B0E0EAE7FDE065
:101AF0000C94FB1169837A838B839C832D833E83B3
:101B00004F835887CE010196BE01675F7F4F0E94C9
:101B1000EF10CE010596BE016F5E7F4F0E94EF1061
:101B20009985923088F089898230C8F0943019F410
:101B3000823051F404C0843029F4923081F482E27E
:101B400091E0C6C0923049F420E09A858A899813C2
:101B500021E02A87CE010996BBC0823049F420E0FB
:101B60009A858A89981321E02A8BCE014196B0C0CC
:101B70002D843E844F8458886D887E888F88988C09
:101B8000EE24FF248701AA24BB24650140E050E035
:101B900060E070E0E0E0F0E0C10181709070892BBE
:101BA000E9F0E60CF71C081D191D9A01AB012A0D7E
:101BB0003B1D4C1D5D1D80E090E0A0E0B0E0E61410
:101BC000F7040805190520F481E090E0A0E0B0E0FA
:101BD000BA01A901480F591F6A1F7B1FAA0CBB1C21
:101BE000CC1CDD1C97FE08C081E090E0A0E0B0E0D6
:101BF000A82AB92ACA2ADB2A3196E032F10549F02F
:101C0000660C771C881C991C56944794379427942B
:101C1000C3CFFA85EA892B893C898B859C85280F5F
:101C2000391F2E5F3F4F17C0CA0181709070892BFA
:101C300061F016950795F794E79480E090E0A0E0B6
:101C4000B0E8E82AF92A0A2B1B2B76956795579559
:101C500047952F5F3F4F77FDE7CF0CC0440F551FCF
:101C6000661F771F17FD4160EE0CFF1C001F111F40
:101C700021503040403090E0590790E0690790E4EF
:101C8000790760F32B8F3C8FDB01CA018F7790704F
:101C9000A070B07080349105A105B10561F447FDD5
:101CA0000AC0E114F1040105110529F0405C5F4F01
:101CB0006F4F7F4F40781A8EFE1711F081E08A8FA8
:101CC0004D8F5E8F6F8F78A383E0898FCE01499609
:101CD0000E941A10A096E2E10C941712A8E1B0E05D
:101CE000E4E7FEE00C94071269837A838B839C837C
:101CF0002D833E834F83588789E0E82EF12CEC0E2C
:101D0000FD1ECE010196B7010E94EF108E010F5EFD
:101D10001F4FCE010596B8010E94EF1089858230D1
:101D200040F08989823028F0C701B8010E9467110C
:101D300001C08FEF6896E6E00C942312A8E1B0E0B2
:101D4000E4EAFEE00C94071269837A838B839C8318
:101D50002D833E834F83588789E0E82EF12CEC0ECB
:101D6000FD1ECE010196B7010E94EF108E010F5E9D
:101D70001F4FCE010596B8010E94EF108985823071
:101D800040F08989823028F0C701B8010E946711AC
:101D900001C08FEF6896E6E00C942312A8E1B0E052
:101DA000E4EDFEE00C94071269837A838B839C83B5
:101DB0002D833E834F83588789E0E82EF12CEC0E6B
:101DC000FD1ECE010196B7010E94EF108E010F5E3D
:101DD0001F4FCE010596B8010E94EF108985823011
:101DE00040F08989823028F0C701B8010E9467114C
:101DF00001C081E06896E6E00C942312ACE0B0E00C
:101E0000E4E0FFE00C940B1269837A838B839C835C
:101E1000CE010196BE016B5F7F4F0E94EF108D8156
:101E2000823061F1823050F1843021F48E81882338
:101E300051F12EC02F81388537FD20C06E812F31A2
:101E400031051CF06623F9F023C08EE190E0821B7F
:101E5000930B29853A854B855C8504C0569547953B
:101E6000379527958A95D2F76623B1F0509540951E
:101E7000309521953F4F4F4F5F4F0EC020E030E02F
:101E800040E050E009C02FEF3FEF4FEF5FE704C0A5
:101E900020E030E040E050E8B901CA012C96E2E0D1
:101EA0000C942712A8E0B0E0E8E5FFE00C940312E0
:101EB0007B018C01611571058105910519F482E0A2
:101EC000898360C083E089838EE1C82ED12CDC82B7
:101ED000CB82ED82FE820F831887C801B7010E9472
:101EE000CB0FFC013197F7FF3BC0222733272E1B76
:101EF0003F0B57016801022E04C0D694C794B794D3
:101F0000A7940A94D2F740E050E060E070E081E0EE
:101F100090E0A0E0B0E004C0880F991FAA1FBB1F8B
:101F20002A95D2F70197A109B1098E219F21A023FB
:101F3000B1230097A105B10521F041E050E060E038
:101F400070E04A295B296C297D294D835E836F836C
:101F500078878EE190E08E1B9F0B9C838B8312C051
:101F6000309781F00E2E04C0EE0CFF1C001F111FD5
:101F70000A94D2F7ED82FE820F831887CE1ADF0A09
:101F8000DC82CB821A82CE0101960E941A1028961A
:101F9000EAE00C941F12EF92FF920F931F937B01C4
:101FA0008C0180E0E81680E0F80681E0080780E018
:101FB000180788F48FEFE816F1040105110531F0D8
:101FC00028F088E090E0A0E0B0E017C080E090E06A
:101FD000A0E0B0E012C080E0E81680E0F80680E003
:101FE000080781E0180728F088E190E0A0E0B0E061
:101FF00004C080E190E0A0E0B0E020E230E040E00A
:1020000050E0281B390B4A0B5B0B04C01695079553
:10201000F794E7948A95D2F7F701E65DFE4F808149
:10202000281B310941095109C9011F910F91FF90E6
:10203000EF900895DF92EF92FF920F931F93FC01B0
:10204000E480F58006811781D1808081823048F458
:1020500080E090E0A0E1B0E0E82AF92A0A2B1B2BEF
:10206000A5C0843009F49FC0823021F4EE24FF24FF
:10207000870105C0E114F1040105110519F4E0E040
:10208000F0E096C0628173819FEF623879070CF0AF
:102090005BC022E83FEF261B370B2A3131052CF0BD
:1020A00020E030E040E050E02AC0B801A701022E55
:1020B00004C076956795579547950A94D2F781E0C5
:1020C00090E0A0E0B0E004C0880F991FAA1FBB1FDA
:1020D0002A95D2F70197A109B1098E219F21A0234A
:1020E000B1230097A105B10521F081E090E0A0E0C7
:1020F000B0E09A01AB01282B392B4A2B5B2BDA017C
:10210000C9018F779070A070B07080349105A105DF
:10211000B10539F427FF09C0205C3F4F4F4F5F4F97
:1021200004C0215C3F4F4F4F5F4FE0E0F0E02030B4
:10213000A0E03A07A0E04A07A0E45A0710F0E1E067
:10214000F0E079018A0127C06038710564F5FB0170
:10215000E158FF4FD801C7018F779070A070B07021
:1021600080349105A105B10539F4E7FE0DC080E486
:1021700090E0A0E0B0E004C08FE390E0A0E0B0E029
:10218000E80EF91E0A1F1B1F17FF05C016950795BD
:10219000F794E794319687E016950795F794E794BE
:1021A0008A95D1F705C0EE24FF248701EFEFF0E018
:1021B0006E2F679566276795902F9F77D794DD24BC
:1021C000D7948E2F8695492F462B582F5D29B7011E
:1021D000CA011F910F91FF90EF90DF900895FC01CD
:1021E000DB01408151812281622F6F7770E0221FD5
:1021F0002227221F9381892F880F822B282F30E0DE
:10220000991F9927991F11969C93119721153105B4
:10221000A9F5411551056105710511F482E037C03A
:1022200082E89FEF13969C938E9312979A01AB01CD
:1022300067E0220F331F441F551F6A95D1F783E0D3
:102240008C930DC0220F331F441F551F12968D9182
:102250009C911397019713969C938E93129720301D
:1022600080E0380780E0480780E4580758F3149668
:102270002D933D934D935C93179708952F3F310510
:1022800079F4411551056105710519F484E08C93C9
:10229000089564FF03C081E08C9312C01C9210C0AB
:1022A0002F57304013963C932E93129783E08C93D4
:1022B00087E0440F551F661F771F8A95D1F770641A
:1022C00014964D935D936D937C93179708951F9388
:1022D000DC01FB019C91923008F447C08081823080
:1022E00008F443C0943051F411961C91843099F550
:1022F0008181682F70E0611B71093FC0843021F03B
:10230000923031F48230B9F18181882389F12DC076
:1023100011961C9111978230F1F081811817D9F430
:1023200012962D913C911397828193818217930786
:1023300094F028173907BCF014968D919D910D905B
:10234000BC91A02D248135814681578128173907FA
:102350004A075B0718F4112341F00AC0821793075C
:10236000A407B50740F4112319F061E070E005C03F
:102370006FEF7FEF02C060E070E0CB011F91089526
:1023800087FB082E062687FD819567FD619527D07E
:102390000EF4919507FC81950895A1E21A2EAA1BCF
:1023A000BB1BFD010DC0AA1FBB1FEE1FFF1FA21705
:1023B000B307E407F50720F0A21BB30BE40BF50B02
:1023C000661F771F881F991F1A9469F7609570958B
:1023D000809590959B01AC01BD01CF010895991B9B
:1023E00079E004C0991F961708F0961B881F7A950C
:1023F000C9F7809508952F923F924F925F926F9206
:102400007F928F929F92AF92BF92CF92DF92EF9284
:10241000FF920F931F93CF93DF93CDB7DEB7CA1B05
:10242000DB0B0FB6F894DEBF0FBECDBF09942A8830
:10243000398848885F846E847D848C849B84AA84D8
:10244000B984C884DF80EE80FD800C811B81AA8165
:10245000B981CE0FD11D0FB6F894DEBF0FBECDBF30
:08246000ED010895F894FFCF8F
:1024680020C3C2C1A020C3C2C1A120C3C2C1A2202F
:10247800C3C2C1A320C3C2C1A420C3C2C1A5050150
:10248800FF0F00000000000000000001020203032B
:1024980003030404040404040404050505050505F0
:1024A80005050505050505050505060606060606CE
:1024B80006060606060606060606060606060606B4
:1024C800060606060606060606060707070707079E
:1024D8000707070707070707070707070707070784
:1024E8000707070707070707070707070707070774
:1024F8000707070707070707070707070707070764
:10250800070707070707070707070808080808084D
:102518000808080808080808080808080808080833
:102528000808080808080808080808080808080823
:102538000808080808080808080808080808080813
:102548000808080808080808080808080808080803
:1025580008080808080808080808080808080808F3
:1025680008080808080808080808080808080808E3
:1025780008080808080808080808080808080808D3
:0A25880008080808080808080808F9
:00000001FF
