:100000000C9434000C943E000C943E000C943E0082
:100010000C943E000C943E000C943E000C943E0068
:100020000C943E000C943E000C943E000C943E0058
:100030000C943E000C943E000C943E000C943E0048
:100040000C943E000C943E000C943E000C943E0038
:100050000C943E000C943E000C943E000C943E0028
:100060000C943E000C943E0011241FBECFEFD8E04C
:10007000DEBFCDBF0E9440000C9499000C9400009C
:100080000E946F000E947B000E94930020E23EE4E9
:1000900040E951E0CA010197F1F721503040D1F712
:1000A0000E948D0020E137E240E951E0CA0101974A
:1000B000F1F721503040D1F70E9484000E94930054
:1000C00020E23EE440E951E0CA010197F1F72150F6
:1000D0003040D1F70E948D0080E090E00895EAE280
:1000E000F0E0808180618083808180628083808174
:1000F000806480830895EBE2F0E080818F7D8083CF
:100100008081806480830895EBE2F0E080818062EA
:10011000808380818F7B80830895EBE2F0E0808193
:100120008F7E80830895EBE2F0E0808180618083A0
:060130000895F894FFCFD2
:00000001FF
